:1000000000100020FD040000FB040000FB040000C1
:10001000FB040000FB040000FB040000FB040000E4
:10002000FB040000FB040000FB040000FB040000D4
:10003000FB040000FB040000FB040000FB040000C4
:10004000FB040000FB040000FB040000FB040000B4
:10005000FB040000FB040000FB0400001102000090
:10006000FB040000FB040000FB040000FB04000094
:10007000FB040000FB040000FB04000091040000EE
:100080009D040000FB040000FB040000FB040000D2
:10009000FB040000FB040000FB040000FB04000064
:1000A000FB040000FB040000FB040000FB04000054
:1000B000FB040000FB040000FB040000FB04000044
:1000C000FB040000FB040000FB040000FB04000034
:1000D000FB040000FB040000FB040000FB04000024
:1000E000FB040000FB040000FB040000FB04000014
:1000F000FB040000FB040000FB040000FB04000004
:10010000FB040000FB040000FB040000FB040000F3
:10011000FB040000FB040000FB040000FB040000E3
:10012000FB040000FB040000FB040000FB040000D3
:10013000FB040000FB040000FB040000FB040000C3
:1001400010B5054C237833B9044B13B1044800E0D3
:1001500000BF0123237010BD8810002000000000A4
:10016000C83A000008B5034B1BB10349034800E03F
:1001700000BF08BD000000008C100020C83A00003D
:10018000A3F5803A704700BF174B002B08BF134BF5
:100190009D46FFF7F5FF00218B460F461348144A92
:1001A000121A02F009FA0E4B002B00D098470D4BA3
:1001B000002B00D098470020002104000D000D48BE
:1001C000002802D00C4800E000BF02F0D1F9200066
:1001D000290000F0B6F802F0B7F900BF00000800EF
:1001E0000000000000000000001000208810002027
:1001F000401100200000000000000000034A1369C5
:1002000023F00403136130BF704700BF00ED00E02E
:1002100038B5124B124A5969124D51611A6E124C7F
:1002200002F00302012A0CBF5A6F9A6E2A601A6EFE
:1002300002F00302012A0CBF5B6F9B6E236000F08B
:100240002FF900F02EF92A6823680849D21A084BC2
:100250001868BDE8384001F09EBE00BF0080045021
:1002600000A00450A4100020A8100020B036000008
:100270002411002008B503214FF4806000F0A2FF94
:10028000BDE8084001213A2000F0E4BB30B58BB056
:100290006C46074D0FCD0FC40FCD0FC495E803007A
:1002A00084E80300684600F08DFD0BB030BD00BF50
:1002B000B4360000012200231146104601F0CCBAEA
:1002C00030B589B00E22002104A802F075F90D2284
:1002D0000021684602F070F901250223104C04A9A0
:1002E00020468DF801308DF806508DF8005001F051
:1002F00063FB4FF001120B4B0021C3F87C552046E5
:10030000C3F880256A4601F0AFFBA36943F01003F0
:10031000A3618022044B1A60E56009B030BD00BFC4
:100320000080045000C0035000E100E008B5FFF772
:10033000ADFFFFF79FFFFFF7BDFFBDE80840FFF7E8
:10034000BFBF08B502F0E8F8FFF7F0FF02F0F1F8E0
:10035000FFF754FFFAE7704708B50321802000F04B
:1003600031FF03214FF4806000F02CFF03214FF494
:10037000906000F027FF08214FF4C06000F022FFDA
:1003800008214FF4F06000F01DFF08213E2000F02E
:1003900019FF08212D2000F015FF002008BD0000E6
:1003A00008B5134B1B68C3F30743012B0ED1114B48
:1003B00004205A6E4FF480230F49520358BF0F4A4E
:1003C0004B6601F51041086258BF536601F080FD8D
:1003D00000F08FF801F00EFD01F02EFD01F062FD3E
:1003E000FFF7BAFF01F016FDBDE8084000F078B84D
:1003F0000080E00F008000500090005000A00050EE
:10040000704708B500F06AF801F016FEBDE8084034
:1004100000F03CB8704700F045B87047704770472F
:100420007047000070B5154C92B00BAD0FCC0FC5E6
:1004300094E80700032385E8070004F10C0606ADE5
:100440008DF845300FCE0FC5336820342B6002ADD8
:1004500094E80F0085E80F00094B294600930948EE
:1004600006AB0BAA01F084FF044618B187210648A9
:1004700000F004F9204612B070BD00BF0C37000038
:10048000AC1000200C110020DC360000FFF7CABFC2
:10049000014B186802F028B80C110020FFF7F8BFD4
:1004A00070477047012208B5074B1A700022074BAE
:1004B0001A700422064B1A701F22064B1A7001F0A4
:1004C00031FD054B186008BD0010002028110020E8
:1004D0000110002002100020241100200F2070477E
:1004E00008B501213A2000F0B5FABDE80840FFF751
:1004F00032BF01213A2000F0ADBAFEE708B500F0A6
:100500002DF8124B12498B4212D30020114B124985
:100510008B4218D3FFF738FE186850F8224058680D
:1005200040F82240013298688242F5D30C33EAE762
:100530000022F8E71C6844F8220001325C68A242FD
:10054000F8D30833E4E70022F8E700BFD03A000010
:10055000DC3A0000DC3A0000DC3A00004FF40041D5
:100560004FF0FF30124B134A10B59A60D3F8882031
:1005700042F47002C3F888200F4A916601F1884165
:1005800001F5005210664FF6DF7050660220C3F886
:10059000D000BFF34F8FBFF36F8F08244FF4403369
:1005A0000648C0F88041D36004600B6110BD00BFF5
:1005B00000ED00E0000000000090005000E100E0CD
:1005C000014B1868704700BF08100020084B1B6FD4
:1005D00003F00703022B04D0032B05D0012B05D019
:1005E000FEE7044B18687047034BFBE7034870476E
:1005F00000800050081000200C100020002D310158
:1006000008B5FFF7E3FF054B1B6FC3F3033301335B
:10061000B0FBF3F0024B186008BD00BF0080005033
:10062000041000200048704700B4C404014B18684F
:10063000704700BF0C100020054B1860054B1B6F66
:1006400003F00703032B01D1FFF7DABF704700BFA8
:100650000C100020008000500020704700487047B8
:10066000002D31014FF4004070474FF47A7070470D
:10067000014B1868704700BF10100020FEE7000013
:1006800005490A681318054883428CBF4FF0FF32B2
:100690000B601046704700BF14100020008000203F
:1006A000044BD3F88420D206FBD4D3F88400C0F3E3
:1006B000811070470040005038B5124B0546D3F802
:1006C00020310C4603F00303022B0BD0032B0DD07B
:1006D000012B0FD1FFF774FF052305B1286004B18A
:1006E000236038BDFFF7A2FF0323F6E7FFF7B6FF4D
:1006F0000223F2E7044841F22B01FFF7BFFF00237A
:100700001846EAE7008000504C370000F7B5002794
:10071000114B0197D3F88041064604F00304012CE5
:100720000D4608D0022C12D041F278110B48FFF789
:10073000A5FF3C4604E0394601A8FFF7BDFF0F24A2
:100740000EB1019B336005B12C6003B0F0BDFFF723
:1007500085FF0190F4E700BF008000504C37000097
:1007600038B5194B0546D3F824310C4603F007037E
:10077000013B052B20D8DFE803F0030F171B0B13F9
:10078000FFF71EFF052305B1286004B1236038BDC3
:10079000FFF716FF0623F6E7FFF748FF0323F2E70C
:1007A000FFF744FF0423EEE7FFF758FF0223EAE7D1
:1007B000FFF752FF0723E6E7044840F68851FFF7AA
:1007C0005DFF00231846DEE7008000504C37000034
:1007D00038B5124B0546D3F840310C4603F00303FD
:1007E000022B0BD0032B0DD0012B0FD1FFF73AFFBB
:1007F000092305B1286004B1236038BDFFF738FF35
:100800000823F6E7FFF731FF0B23F2E7044841F234
:100810005901FFF733FF00231846EAE70080005034
:100820004C37000038B5154B0546D3F800320C465E
:1008300003F00703013B032B18D8DFE803F0020A9B
:100840000E12FFF70FFF092305B1286004B12360E2
:1008500038BDFFF70DFF0823F6E7FFF706FF0B2370
:10086000F2E7FFF7CDFE0E23800AEDE7044841F2E0
:100870002E21FFF703FF00231846E5E70080005014
:100880004C37000038B5124B0546D3F840320C46C1
:1008900003F00303022B0BD0032B0DD0012B0FD140
:1008A000FFF7E0FE092305B1286004B1236038BDDD
:1008B000FFF7DEFE0823F6E7FFF7D7FE0B23F2E78C
:1008C000044841F2C111FFF7D9FE00231846EAE7B8
:1008D000008000504C37000038B5124B0546D3F865
:1008E00060310C4603F00303022B0BD0032B0DD019
:1008F000012B0FD1FFF7B6FE092305B1286004B123
:10090000236038BDFFF7B4FE0823F6E7FFF7ADFE1E
:100910000B23F2E7044841F28701FFF7AFFE002303
:100920001846EAE7008000504C37000010B40F4C26
:100930000B46D4F8204204F00304012C0ED0022C04
:1009400010D008B1002101600BB100221A6040F6FE
:10095000B25107485DF8044BFFF790BE5DF8044BB9
:10096000FFF7AABE5DF8044BFFF732BF00800050CE
:100970004C370000B0F5207F10B534D009D8B0F561
:10098000007F2AD003D898B1B0F5C07F10D00024E2
:1009900021E0B0F5607FFAD1154BD3F88030C3F376
:1009A00001149B0617D5032C15D040F282210FE0CD
:1009B0000F4B1C6F230B13F00E0FC4F303340AD03C
:1009C000032C08D0072C06D00F2C04D040F2722143
:1009D0000848FFF753FE601C10BD054BD3F890404C
:1009E000C4F30464F7E7024B1C6FC4F38024F2E7FE
:1009F000008000504C3700004FF400320E4B10B511
:100A000004469A660020FFF7B5FF41F67132604355
:100A10000A4C0B4BA0428CBF4FF480100020D969C8
:100A2000DA639A6822F4401202439A60CA0344BF10
:100A30000022DA6310BD00BF00900050005A62022D
:100A40000000035008B5FFF7EDFDBDE808400021A8
:100A5000FFF7D2BF70B5460904460D460FD140F2EC
:100A600016310D48FFF70AFE334604F01F0485B126
:100A700003F58053012000FA04F41C6070BD012EC0
:100A800005D0064B064A022E18BF1346EDE7054B6C
:100A9000EBE703F50053EDE74C37000068800050AA
:100AA0006082005064800050002330B5802885B0FB
:100AB0000446019374D02AD8002877D0A0F12004EE
:100AC000412C32D8412C30D8DFE804F070737073B9
:100AD000868686867373903FA6653F7373732F2F48
:100AE0002F2F2F2F8B57737373B0AB732F2F2F2F85
:100AF0002F2F2F2F2F2F2F2F2F702F707070862FAB
:100B00002F2F2F2F2F2F2F2F2F2F2F2F7070B0F52C
:100B1000806F61D024D8B0F5007F54D00BD8B0F5E9
:100B2000807F68D0B0F5C07F40D040F26D41424830
:100B3000FFF7A4FD37E0B0F5607F44D0F5D8B0F5FD
:100B4000207F36D0B0F5407FEFD1FFF759FD044646
:100B50004FF42070FFF70EFFB4FBF0F0400821E0E7
:100B6000B0F5C06F58D00DD8B0F5A06F39D0B0F542
:100B7000B06F3BD0B0F5906FD7D1002101A8FFF73F
:100B8000EFFD10E0B0F5E06F4BD0B0F5F06F4DD059
:100B9000B0F5D06FC9D1002101A8FFF743FE02E0F4
:100BA000FFF714FD0190019805B030BDFFF728FD57
:100BB000F8E7FFF725FD04464FF42070FFF7DAFE53
:100BC000B4FBF0F0EEE7FFF701FD05462046FFF726
:100BD000D1FEB5FBF0F0E5E7002101A8FFF76CFDC1
:100BE000E1E7002101A8FFF7A1FEDCE7002101A851
:100BF000FFF78CFDD7E702934FF0E0231B695B07FB
:100C000005D5FFF7FDFC0290029B0193CBE703A9FA
:100C100002A8FFF7DDFDF7E7002101A8FFF7D8FDE7
:100C2000C1E7002101A8FFF72DFEBCE7002101A8C4
:100C3000FFF752FEB7E700BF4C37000008B5802031
:100C4000FFF732FF034B98429EBF4FF48032024BB6
:100C50001A6708BD005A620200A000501FB50023A9
:100C6000B0F5807F01937FD027D8382800F09C8092
:100C70000BD82438092810D809280ED8DFE800F04E
:100C80006F6F6F6F0D0D670D3685522867D007D8CF
:100C90003D283AD03E2800F08C8040F24B5152E083
:100CA0008028FAD1454B1B6F03F00703013B032B50
:100CB00047D8DFE803F044413F75B0F5D06F64D00A
:100CC00019D8B0F5A06F6FD00AD8B0F5806F46D0B4
:100CD000B0F5906FE1D1002001A9FFF741FD3AE0A6
:100CE000B0F5B06F33D0B0F5C06FD6D1002001A9F8
:100CF000FFF76EFD2FE0B0F5006FECD00AD8B0F52D
:100D0000E06F56D0B0F5F06FC7D1002001A9FFF712
:100D1000E3FD20E0B0F5086FBFD1284BD3F80031D8
:100D200003F00303022B35D0032B37D0012B39D12D
:100D3000FFF77CFC032300E0052301930BE0022373
:100D4000FBE740F29F411E48FFF798FC03E00020BC
:100D500001A9FFF7DBFC019805B05DF804FB00205A
:100D600001A9FFF7A9FCF6E702934FF0E0231B6906
:100D70005B0705D5FFF744FC0C230393039BDCE7DB
:100D800003A902A8FFF724FDF8E7002001A9FFF757
:100D900049FDE0E7FFF76CFC0823CEE7FFF75CFCBA
:100DA0000723CAE70123C8E7002001A9FFF7BEFD1A
:100DB000D1E7002001A9FFF765FDCCE700800050D6
:100DC0004C370000036870B50F2B044604D940F679
:100DD00063216E48FFF752FC63680F2B04D940F67D
:100DE00066216A48FFF74AFCA3680F2B04D940F636
:100DF00069216648FFF742FC237B0F2B04D940F69C
:100E00006C216248FFF73AFC637B0F2B04D940F654
:100E10006F215E48FFF732FCA37B3F2B04D940F6DD
:100E200072215A48FFF72AFCE37B3F2B04D940F696
:100E300075215648FFF722FC2369032B04D940F69D
:100E400078215248FFF71AFC6369032B04D940F656
:100E50007B214E48FFF712FCE369012B04D940F6D1
:100E60007E214A48FFF70AFC8020FFF7F7FE03289F
:100E700000F082804FF40022454B02215A6645F66D
:100E80000E03444AC2F88030434B9962012103F5B6
:100E900080539962936DD903FCD4D4E900131B05E8
:100EA00043EA0163E17B94F822500B43217B94F8E1
:100EB000236043EA0143617B43EA0133A17B43EAB8
:100EC000811313619169D4E904031B0643EA80632B
:100ED00001F000410B43A17EE07E0B43217E43EAFB
:100EE0000143617E43EA01239361E369126A002BA7
:100EF0000CBF0021082122F00D0242EA030242EA5F
:100F00008002244B42EA01021A6294F820204FEA40
:100F1000421232D1986A94F8211020F0330042EA4C
:100F20000112024342F001029A621C4A996D32EAB0
:100F30000101FBD1022218498A621A659A6D52009A
:100F4000FCD41869A26820F4700040EA02504FF007
:100F500000421861104B9A611DB9022203F58053BB
:100F60009A6216B901220E4B9A6294F824301BB192
:100F7000084B0C4AC3F8802070BD996A21F03301F8
:100F800031430A4342EA4502EEE700BF4C37000016
:100F90000090005000C0005000D0005003000140FD
:100FA00000E00050F1A7FFFF014B93F900007047EC
:100FB00029110020436810B5072B044604D940F6D8
:100FC000E1312A48FFF75AFBA368032B04D940F606
:100FD000E3312648FFF752FB2378032B04D940F670
:100FE000E5312248FFF74AFB94F90130002B04DA7F
:100FF00040F6E7311D48FFF741FB4FF480011C4AE2
:10100000637851664FF4D151022002F5B832516233
:1010100018494F2B48604FF0010028BF4F2301F5BE
:10102000805148601169C903FCD4217843EA012347
:101030005361D4E901131B0143EA0123617B0B4394
:10104000217B43EA41039360E37BA17B1B0143EADD
:101050004113617C0B43217C43EA41035360A37C31
:1010600013B16FF4D153536210BD00BF4C37000071
:101070000090005000100250014B1880704700BFD4
:10108000181000200029CCBF01210021FFF7B4BCBB
:10109000B0F5207F10B565D00ED8B0F5007F4FD0E9
:1010A00003D800B3B0F5C07F1DD040F2F921BDE8F0
:1010B00010403448FFF7E2BAB0F5607FF5D14C1E1E
:1010C000012C06D9042904D040F2DD212D48FFF778
:1010D000D5FA2D4AD2F8803023F0300343EA0413C6
:1010E000C2F8803010BD102901F1FF3404D8274B1D
:1010F00023FA01F1CB0704D440F2B2212148FFF7D3
:10110000BDFAFFF79FFC00F045F84FF48031204B0B
:101110001D4A1967136F23F4704343EA04331367BE
:10112000FFF76EFA0446FFF7BBFAC0F10201204652
:10113000FFF7A8FF00F034F8BDE81040FFF77EBDD0
:101140004C1E1F2C04D940F2ED210E48FFF796FAF1
:101150000D4BD3F8901021F0F85141EA0461C3F827
:101160009010BFE74C1E012C04D940F2F321054832
:10117000FFF784FA044B196F21F4806141EA84215E
:101180001967AFE74C3700000080005016010100DE
:101190000090005002214FF42070FFF779BF00004B
:1011A00008B54FF4C070FFF77FFCBDE80840044964
:1011B00088428CBF022101214FF42070FFF768BFE5
:1011C00080F0FA02B0F5807F70B50C4600F008811F
:1011D0002BD8382800F0A08110D82438092816D838
:1011E000092814D8DFE810F0E100E100E100E10097
:1011F00013001300CC00130048005001522800F0E7
:10120000D48007D83D2851D03E2800F09C8140F67C
:1012100067011FE18028FAD18B1E052B00F2A58003
:10122000DFE803F0A091A3ABA364B0F5D06F00F0AA
:101230002B8130D8B0F5A06F00F06E8115D8B0F5D5
:10124000806F00F0B280B0F5906FE0D1023C052CC9
:1012500000F21381A74B195DA74AD2F8243123F07D
:1012600007030B43C2F824316CE0B0F5B06F00F017
:101270008780B0F5C06FCAD1083C032C00F2EF8024
:101280009E4B195D9C4AD2F8403123F003030B4377
:10129000C2F8403156E0B0F5006FD7D015D8B0F5A0
:1012A000E06F00F05081B0F5F06FB0D1083C032C36
:1012B00000F2DC80924B195D8F4AD2F8603123F046
:1012C00003030B43C2F860313CE0B0F5086F9ED1D8
:1012D0004C1E072C00F20481DFE814F00701020124
:1012E00009010201020102010001F60000250426A5
:1012F0000121022000F05EF9FFF7A4FBFFF74AFF8F
:101300004FF480317F4B7C4A1967136F23F007033A
:1013100033431367FFF774F90646FFF7C1F9C0F1CD
:1013200002013046FFF7AEFE0121002000F09AF9DD
:10133000FFF736FFFFF782FC25B9032C02D101220B
:10134000714B9A6270BD4FF400226E4B0E465A6686
:10135000012203F540539D6A03F58053C5F3400510
:101360009A62C5E700250126C2E7002540F28D51AB
:101370006648FFF783F92E46BAE700250226B7E74D
:10138000022C07D00F2C0ED040F2D2515F48FFF74D
:1013900075F90024584BD3F8801121F003010C4358
:1013A000C3F88041CEE70124F4E7032C12D0052CCA
:1013B00012D0022C12D040F209615448FFF75EF9B6
:1013C00000224D49D1F8203123F003031343C1F823
:1013D0002031B7E70222F4E70122F2E70322F0E727
:1013E000A1F10804082C33D8DFE804F00505320524
:1013F0001C32323205004FF480323F4B4449586E64
:1014000003F580535A660B6A43F001030B62C10374
:101410005CBF404B5A664FF0E022136923F004038F
:1014200013618FE74FF48032334B3949586E03F51F
:1014300080535A660B6A23F001030B62C3035CBF3F
:10144000344B5A664FF0E022136943F00403E7E798
:1014500040F23161BDE870402C48FFF70FB940F20F
:101460004D612A48FFF70AF900210BE74FF4CD61DF
:101470002648FFF703F900211EE740F28D6123485B
:10148000FFF7FCF80021E7E6083C062C13D8DFE85C
:1014900004F00419190E1212100002221649D1F894
:1014A000003223F007031343C1F800324AE7032256
:1014B000F4E70422F2E740F2AD611448FFF7DEF8EA
:1014C0000022EBE70122E9E702220B49D1F80031C3
:1014D00023F003031343C1F8003133E70322F4E799
:1014E00040F2E9610948FFF7C9F80022EDE701225F
:1014F000EBE700BF9B3700000080005097370000EB
:10150000973700000090005000E000504C3700007A
:1015100000C0075000A000500F2C10D0102C10D08D
:1015200040F234711248FFF7A9F800221149D1F8AE
:10153000203223F003031343C1F8203202E70122D3
:10154000F4E70222F2E7083C032C0AD80A4B195DA3
:10155000084AD2F8403223F003030B43C2F840326A
:10156000F0E640F2B5710248FFF788F80021EFE796
:101570004C3700000080005097370000EFF31080D8
:1015800072B6704700B962B67047EFF3118030232E
:1015900083F31188704780F311887047034A0179FB
:1015A000D36E23F030030B43D366704700400050E6
:1015B000704700002DE9F0410446264BD3F8842003
:1015C000D006FBD4D3F88430C3F381139C423ED0C1
:1015D000FEF7FCFF012C05460BD11F4B984204D9A6
:1015E00040F2FD611D48FFF749F801212846FFF749
:1015F00049FDFFF7C3FF4FF00072194B07465A66CB
:101600002046FFF7D5FF4FF48063124E621E9340D1
:10161000DFF848803367736E9A0103D4D6F88430BC
:101620009B060AD53846FFF7ADFF022C0FD128469E
:10163000BDE8F0410021FFF725BDD6F884309906BA
:10164000E9D540F20B714046FFF718F8E3E7BDE833
:10165000F08100BF00400050005A6202A137000034
:101660000060005007B518B90191FEF7AFFF01996E
:10167000064B1B7843B1064B984205D8012003B0B6
:101680005DF804EBFFF796BF0220F8E72A1100206F
:10169000005A6202704700004FF0004210B501246A
:1016A0004AF6CD31154B5A66154A03F50B235460A3
:1016B0005A6C1964224088B9996811F0010F1149D8
:1016C00003D08C60D86AC007FCD501234B6012B1EF
:1016D0000D4B0E4A1A64FFF7DDFF10BDD96A0907EA
:1016E000FCD42021074B59620121A3F58053996056
:1016F00005494B6A9B06FCD5E9E700BF0090005006
:101700000050095000600950004009503254FFFF5A
:101710004FF0004238B5194B194C5A66012203F5B7
:101720000C235A604AF6CD33656C23644378154028
:1017300093401343134AD363A368827823F074035E
:1017400043EA0213C278002A14BF04220022134382
:10175000A3600279837943EA022323614279C37942
:1017600043EA022363610078FFF796FF0DB1064B51
:101770002364FFF78FFF012038BD00BF00900050A9
:1017800000400950004000503254FFFF38B50D466C
:101790000446D8B101281CD002281CD0032803D14C
:1017A0000C23EB40DB0704D440F22D410B48FEF73D
:1017B00065FF3020012141F21003444304F1A044AD
:1017C00001FA05F504F57034E55038BD40F2FF1319
:1017D000E7E71F23E5E7FF23E3E700BFEC3700005F
:1017E00038B50D460446D8B101281CD002281CD0BB
:1017F000032803D10C23EB40DB0704D440F2FE3175
:101800000B48FEF73BFF3020012142F21003444316
:1018100004F1A04401FA05F504F57034E55038BD33
:1018200040F2FF13E7E71F23E5E7FF23E3E700BFED
:10183000EC37000070B5054614460E46FFF79EFED5
:10184000296881EA040202EA06044C402C60BDE8E3
:101850007040FFF797BE0000F8B50D4616461F46CC
:10186000044660B301282DD002282DD0032803D1CF
:101870000C22EA40D30704D44FF4B0711B48FEF7A2
:10188000FDFE26B12946204607B3FFF77FFF04EB94
:101890004403072D4FF00F014FEA031319D8A80096
:1018A00006FA00F2814012481844FFF7C3FFE6B978
:1018B00029462046AFB1BDE8F840FFF767BF40F2C8
:1018C000FF12D6E71F22D4E7FF22D2E7FFF788FFF7
:1018D000DDE7A5F10800800006FA00F28140054826
:1018E000E2E7BDE8F840FFF77BBFF8BD38380000FD
:1018F00004C003500CC003500B4B984211D003F5A9
:10190000804398420DD003F58043984209D003F5F7
:101910008043984205D003F58043C31A584258418A
:1019200070470120704700BF00800450F8B51F4683
:101930001A4B0E46984215461ED003F58043984236
:101940001CD003F5804398421AD003F58043984297
:1019500018D003F58043984216D011488221FEF733
:101960008DFE4FF0FF3006210E4C7FB101FB006071
:1019700004EB8000C560F8BD0020F4E70120F2E729
:101980000220F0E70320EEE70420ECE701FB006013
:101990002D0204EB8004E560EDE700BF00800450F9
:1019A0008438000000810350036BDA0702D5036915
:1019B0005B06F9D47047000038B505460C46FFF7C2
:1019C0009BFF18B9A5212748FEF758FE2846FFF7C8
:1019D000EBFF012205F500531A63237961881B028E
:1019E00043EA8143617A0B436178002914BF4021A7
:1019F00000210B43A17A002914BF802100210B4351
:101A0000E17A002914BF202100210B43217B00290A
:101A100014BF102100210B43617B002914BF082152
:101A200000210B43A179002914BF4FF4803100211C
:101A30000B436B6005F580531A6322780AB90223C1
:101A4000EB6000236B62E179237A43EA81036179D9
:101A5000002914BF102100210B43AB600AB1012300
:101A6000EB6038BD84380000F8B506460F461446D2
:101A7000FFF742FF18B9F5212748FEF7FFFD022FB7
:101A800003D9F6212448FEF7F9FD3046FFF78CFF15
:101A9000012206F500531A63E279E57A002A627A98
:101AA00014BF4FF480110021002A14BF102200221D
:101AB000A37943EAC5430B43134306EB47152B6653
:101AC000237A2BB3237B2A6E394642EA43422A66A5
:101AD000013B18BF0123A278FFF728FF012306F579
:101AE00080563363637822781B0643EA8263E27888
:101AF00043EA0233227943EA8223627943EA0223EA
:101B0000A27A002A14BF0422002213436B66F8BD98
:101B10002B6E2B66E2E700BF843800002DE9F04110
:101B200080460E461F46154622B94FF4A171314832
:101B3000FEF7A4FD26B94FF42070FEF7B5FF064668
:101B4000402F2AD009D8A7B1202F1CD040F28911EC
:101B5000BDE8F0412748FEF791BD602FF6D1B5EB07
:101B6000960F04D940F283112248FEF787FD042422
:101B70001DE0B5EB161F04D94FF4BA711D48FEF7EE
:101B80007DFD102413E0B5EBD60F04D940F2791196
:101B90001848FEF773FD082409E00624B6FBF4F3A9
:101BA000AB4204D24FF4BF711248FEF767FD6C439D
:101BB000610801EB4616B6FBF4F40F4E203CB6EB81
:101BC000C40F4FEAC40504D24FF4D0710948FEF7A0
:101BD00055FDD8F80830354023F06003C8F80830C8
:101BE000D8F808301F43C8F80870C8F81C50BDE882
:101BF000F08100BFD1380000F8FF7F0038B50E4BF0
:101C0000044698420D4608D003F58043984204D01C
:101C10004FF433710948FEF731FD012204F580537A
:101C20005A60EB43934003F00A036361656115B9A1
:101C300004F50054626038BD00C00550D138000082
:101C4000194B10B59842044608D003F580439842DA
:101C500004D040F242411548FEF710FD012204F580
:101C600080535A6040F6AA6341F205026361002383
:101C70000F49A360E365E26004F500522361E3616C
:101C8000E36491640849A3658C4202D00948844208
:101C900007D18C42236502D0064B9C4201D1002320
:101CA00063650123536010BD00C00550D1380000AA
:101CB000FFFF010000000650444B70B598420446F7
:101CC0000D4608D003F58043984204D040F2FD2130
:101CD0003F48FEF7D3FC2046FFF7B2FF012304F58F
:101CE00080567360AB7C1BB1A36843F08043A36054
:101CF000EB7C5BB1354A2B7D944245D1A2F5103285
:101D0000C2F88C31E36D43F08003E3652A8A6B7B74
:101D100020461343EA891343E3602B7BD5E9011284
:101D2000FFF7FCFE6B7D1BB1A36843F48033A36017
:101D3000AB7D1BB1A36843F40043A360EB7D2A7E17
:101D40001B07120502F4E00203F0E0431343A3650E
:101D5000697E1E4A8B1E012B1E4B1FD894421BD03E
:101D600002F5804294420CBF01224FF0FF3203EB98
:101D70004213022041F21C620329985020D104230F
:101D8000F3652B78636170BD134A944204BFA2F5DA
:101D90002032C2F89C31B5E70022E8E794420DD02A
:101DA0000D4A94420CBF01224FF0FF3203EB421365
:101DB000022042F21C6201299850DFE70022F5E779
:101DC000042204F50053DA65DBE700BF00C00550CC
:101DD000D138000000C003500000065083691B0684
:101DE000FCD5406AC0B2704783695B06FCD5C1630D
:101DF0007047000007B56B46054A1068516803C379
:101E00006846FFF785FC002003B05DF804FB00BFC7
:101E10001E39000013B50024064A6846536F43F08C
:101E20000103536700948DF80440FFF7B7FB204689
:101E300002B010BD0040005030B58BB06C46154D5F
:101E40000FCD0FC40FCD0FC495E8030084E8030045
:101E5000114BD3F84C21120314D4D3F85041E4B2FF
:101E60008DF81940FFF7A0F8204480F308008DF8A2
:101E700018000A48FEF7E0FB6846FEF7A3FF0020C3
:101E80000BB030BD064B1C884FF6FF739C4208BF59
:101E90008C24E5E7283900000080E00F00F04902BB
:101EA0000001E00F30B5094D87B001AC0FCD0FC474
:101EB0002B6801A8236019238DF80530FFF77AF805
:101EC0006420FFF7D9F8002007B030BD503900007A
:101ED0006FF00402502110B50A480B4C12F0800F2D
:101EE000D3B21BBF03F00F03043BA3181B1802F16E
:101EF00001020CBF83F800131976402AEED10020AE
:101F000010BD00BF00ED00E000E100E010B50446A8
:101F1000FFF734FB024B1C60FFF734FB002010BDC1
:101F20002C11002010B5FFF729FB034B1C68FFF7AD
:101F300029FB204610BD00BF2C11002007B530B989
:101F4000CDE90012FFF7EEFFDDE9001230B1436882
:101F500023B1006803B05DF804EB1847232003B0F9
:101F60005DF804FB30B51C4685B058B9CDE90012C8
:101F7000FFF7D8FFDDE9001204B903AC20B9232034
:101F800005B030BD03B903AC8568002DF7D02346FA
:101F90000068A847F4E70EB477B507AB53F8046BB5
:101FA00005460193B0B9FFF7BDFF0446054630462C
:101FB000019900F0CDFBAC42064602D02046FFF767
:101FC000A5FF002ED4BF3720002003B0BDE870402D
:101FD00003B07047FFF7A6FF85420446E7D02846C6
:101FE000FFF794FFE3E700207047FEE74FF400534C
:101FF00000204B607047012070470020704707B5F4
:10200000002001AB0190FFF7ADFF0198002808BF49
:102010004FF0FF3003B05DF804FB000010B5002066
:102020001446FFF78BFF18B1BF210248FEF726FBCD
:10203000204610BD64390000034B022218680023BB
:102040008068194600F0C0BA1C10002080F82410E7
:10205000704790F82400704770B504460568FFF794
:1020600061FF844202D10020FFF750FF95F928302C
:10207000002B11DB012203F01F015B099B0003F120
:1020800060438A4003F56143C3F88021C3F8802090
:10209000BFF34F8FBFF36F8F00232846C4E900338F
:1020A000C4E90433A360EB68BDE87040184790F8BA
:1020B000243070B505460C468E18E3B9A6420AD006
:1020C00095F82630002BF9D028462B6814F8011B10
:1020D00098470028F2D070BD95F826305BB1237880
:1020E0000A2B03D10D2128462B68984728462B68D8
:1020F00014F8011B9847B442EED1ECE72DE9F74301
:102100004FF00009044690461E46C3F800904F1E4B
:102110003368434505D2FFF738FAA269C2B9FFF721
:102120003AFA94F827305BB91123012220460DF1C9
:1021300007018DF80730FFF7BAFF012384F8273035
:102140003368002B0CBF1B20002003B0BDE8F083D8
:10215000E16922698A5C07F8012F2569226A013545
:10216000954208BF4D46A2692561013AA261FFF779
:1021700012FAA36820469847336801333360C7E7F3
:1021800008B5FFF794FF002008BD0000F8B51F4612
:10219000536805460C461646002B3ED09368002B2C
:1021A0003DD02C220021204600F006FA73681D4A1B
:1021B000E361B3682362337B84F82430B37B276008
:1021C00084F8253040F20113E384069B6360079B8B
:1021D000A360089BE36096F9003084F828306A60B9
:1021E000114A002BAA60114A2C602A61104A6A61C8
:1021F000104AEA600CDB012203F01F015B099B001F
:1022000003F160438A4003F56143C3F880211A60FB
:102210002846FFF77BFE0020F8BD2220FCE72120A6
:10222000FAE700BF81210000FD2000004D200000E2
:10223000532000005920000010B50446FFF7A5F90F
:10224000A269236A9A4203D2FFF7A5F9012010BDC3
:10225000FFF7A1F90020FAE773B504460D4600E048
:1022600000BFFFF792F994F8253006466BB1132DA5
:1022700007D1002384F8263002B0BDE87040FFF794
:102280008AB9112D01D10123F4E7A269236A9A4288
:1022900004D340F269111348FEF7F0F96369E2696B
:1022A0003046D554A26963690132A261226A0133C2
:1022B0009342636104BF00236361FFF76CF9A26975
:1022C000236A9A420BD11323012220460DF1070104
:1022D0008DF80730FFF7EBFE002384F8273002B0BB
:1022E00070BD00BFCE390000C26AD36C43F0040356
:1022F000D364704710B50446C26A93695906FCD589
:10230000002394F835101A4694F83400FFF7A4FA25
:10231000002394F837101A4694F83600FFF79CFA19
:1023200094F83C30DA0707D5002394F839101A46A0
:1023300094F83800FFF790FA94F83C309B0707D5E3
:10234000002394F83B101A4694F83A00FFF784FAF9
:10235000E06A0021FFF752FC206B0021FEF77AFBB8
:10236000002010BD08B5C06AFFF73EFD002008BD83
:102370002DE9F0411C46574B86B00293564B01277E
:10238000019300230C9D00939046CDE903770A4604
:10239000524B2946FFF7FAFE0646002874D12368FF
:1023A0003946EB6263683A202B63637A85F83530EF
:1023B000237A85F83430E37A85F83730A37A85F8C4
:1023C0003630637B85F83930237B85F83830E37B02
:1023D00085F83B30A37B85F83A30FEF73BFB3B4664
:1023E0000422617A207AFFF737FA3B460222E17A2B
:1023F000A07AFFF731FA39466068FEF72BFB88F8C0
:10240000006041462068FFF757FC1422237C5B01E3
:1024100003F1A04303F57033C3F81C26617A227AD6
:1024200042EA0142C3F83426E17AA27A42EA014242
:10243000C3F82C2685F83C6098F81930032B46D851
:10244000DFE803F01A022640012385F83C3000251E
:1024500000230222617B207BFFF7FEF9637B227B56
:10246000217C42EA03421E4B49015A500422236850
:1024700003F58053DA6575B920680521C36C43F014
:102480000403C364FFF7BAFB304606B0BDE8F08131
:10249000022385F83C3000230422E17BA07BFFF778
:1024A000DBF9022541F21C61227C0E4B03EB42104A
:1024B0004550E07BA17BB13241EA004103EB42137E
:1024C0009960D9E7032385F83C300125C0E723262E
:1024D000DAE700BFF5220000E922000065230000D2
:1024E00024D6035000C00350C36A10B59B6904464C
:1024F0001B0610D5FFF7A0FE40B1E06AFFF76EFCA7
:1025000001462046BDE81040FFF7A6BEE26AD36C44
:1025100023F00403D36410BD08B5FDF741FFFDF7B8
:102520006FFFFDF76EFFFDF775FFBDE80840FDF793
:1025300072BF08B5FDF771FFFDF770FFFDF76FFF84
:10254000BDE80840FDF76CBF08B5074B044613B162
:10255000002100E000BF054B1868836A03B198476B
:102560002046FFF742FD00BF00000000303A0000A7
:1025700070B50D4D00260D4C641BA410A64209D168
:102580000B4D00260B4C01F087F8641BA410A642EB
:1025900005D170BD55F8043B01369847EEE755F874
:1025A000043B01369847F2E780100020801000209D
:1025B000801000208410002002440346934200D182
:1025C000704703F8011BF9E72DE9F7431D465C4B03
:1025D00004460E461F68904627B1BB6913B93846BA
:1025E00000F0E6F9574B9C4267D17C68B8F1020FC6
:1025F00006D0B8F1010F00F29E80002DC0F29B8042
:10260000636EDB0705D4A389980502D4A06D00F0A2
:102610006DFA2146384600F037F9616B41B104F19B
:102620004403994202D0384600F0D0FA0023636395
:102630000023A3616360A389190603D52169384685
:1026400000F0C4FAA389B8F1020F23F44A6323F01F
:102650000303A3816BD001AB6A462146384600F0E4
:1026600047FAA3891843A081002D30D1009D284648
:1026700000F0A4FA0646002854D1DDF80090A945E0
:1026800049D14FF0FF350022B4F90C30A26004F1BB
:10269000470243F00203226022610122A3816261AA
:1026A000626ED20705D413F4007F02D1A06D00F052
:1026B0001EFA284603B0BDE8F083234B9C4201D1AB
:1026C000BC6893E7214B9C4208BFFC688EE7002E54
:1026D000CDD0BB6913B9384600F06AF9B8F1010FE3
:1026E000266002BFA38943F00103A381A28912F0EF
:1026F0000803C4E904651CD0D30745BF00236D421D
:10270000A560A36048BFA561656E15F0010515D1F0
:1027100012F4007FC9E7484600F050FA0646002848
:10272000AFD04D46A38943F08003A381D1E70025B4
:10273000A9E7A360E8E74FF0FF35BAE70025B8E75F
:102740001C100020543A0000743A0000343A000093
:1027500013B50B46094902460C6844B1A16931B969
:10276000CDE90003204600F023F9DDE90023A1684C
:10277000204602B0BDE8104000F032BB1C10002023
:102780008A892DE9F041054610070C4658D44B685C
:10279000002B05DC0B6C002B02DC0020BDE8F08177
:1027A000E66A002EF9D0002312F480522F682B60C5
:1027B00032D0606DA3895A0705D56368C01A636B70
:1027C0000BB1236CC01A00230246E66A2846216A30
:1027D000B047431CA38906D129681D292CD8294A52
:1027E000CA40D60728D50022D90462602269226037
:1027F00004D5421C01D12B6803B96065616B2F6061
:102800000029CAD004F14403994202D0284600F0BE
:10281000DDF900206063C1E7216A01232846B04743
:10282000411CC7D12B68002BC4D01D2B01D0162B07
:1028300001D12F60B1E7A38943F04003A381ADE745
:102840000F69002FA9D093070E680F600CBF4B696A
:102850000023A6EB07088B60B8F1000F9DDD43460F
:102860003A46216A2846A66AB047002806DCA389B2
:102870004FF0FF3043F04003A3818FE70744A8EBFC
:102880000008E9E70100402038B50B6905460C4611
:1028900013B90025284638BD18B183690BB900F07B
:1028A00087F8144B9C421BD16C68B4F90C30002B98
:1028B000EFD0626ED00704D4990502D4A06D00F069
:1028C00015F928462146FFF75BFF636E0546DA07D8
:1028D000E0D4A3899B05DDD4A06D00F008F9D9E709
:1028E000054B9C4201D1AC68DFE7044B9C4208BF1A
:1028F000EC68DAE7543A0000743A0000343A000019
:10290000002310B504468360818119464366C28165
:1029100008228361C0E90033C0E904335C30FFF76B
:102920004BFE054B24626362044BA362044BE362DB
:10293000044B236310BD00BF8D330000AF33000094
:10294000E73300000B340000014900F0AFB800BFCE
:102950008928000070B568224D1E0E46554305F1CA
:10296000740100F09FF9044640B1002105F16802AE
:10297000C0E900160C30A060FFF71EFE204670BDB7
:10298000014800F0B3B800BF31110020014800F049
:10299000AEB800BF31110020014800F0A7B800BF59
:1029A00032110020014800F0A2B800BF321100200F
:1029B00010B50446FFF7F0FFA3691BB1BDE8104056
:1029C000FFF7F0BFC4E9123323652046124B134AC8
:1029D0001B68A262A34204BF0123A36100F020F898
:1029E0006060204600F01CF8A060204600F018F857
:1029F00000220421E0606068FFF782FF01220921C4
:102A0000A068FFF77DFF02221221E068FFF778FF40
:102A10000123A361D2E700BF303A0000492900003A
:102A2000F8B50746FFF7ACFF1E4B1E68B36913B934
:102A30003046FFF7BDFF4836D6E90134013B03D5E8
:102A400033680BB33668F7E7B4F90C50D5B9164BB9
:102A500004F158006566E36000F047F8FFF796FF61
:102A60000822294604F15C002560A561C4E90155EE
:102A7000C4E90455FFF7A0FDC4E90D55C4E912559A
:102A80002046F8BD6834D9E704213846FFF762FFD5
:102A9000044630600028D5D1FFF778FF0C233B6057
:102AA000EEE700BF303A00000100FFFF2DE9F843D8
:102AB0000646884600F148040027D4E90195B9F19B
:102AC000010905D52468002CF7D13846BDE8F88304
:102AD000AB89012B07D9B5F90E30013303D0294654
:102AE0003046C04707436835E9E77047704770478D
:102AF00070B50E46B1F90E1096B0144600291D4669
:102B000008DAB6F90C3000222A601A0610D44FF405
:102B100080630EE06A4600F05FFD0028F1DB019A59
:102B200002F47042A2F500535A425A412A60EEE77D
:102B300040230020236016B070BD00008B8973B560
:102B40009D0706460C4607D504F147032360236121
:102B50000123636102B070BD01AB6A46FFF7C8FF95
:102B600000990546304600F09DF848B9B4F90C309C
:102B70009A05EFD423F0030343F00203A381E3E7B4
:102B80000D4BB362A389206043F080032061A381D1
:102B9000009B6361019B5BB1B4F90E10304600F0FD
:102BA0002DFD28B1A38923F0030343F00103A38182
:102BB000A0890543A581CDE749290000024B0146C4
:102BC000186800F06FB800BF1C10002037B500294E
:102BD00043D051F8043C0C1F0190002BB8BFE418FF
:102BE00000F03CFD1E4A0198136833B9636014601D
:102BF00003B0BDE8304000F037BDA34208D92568D6
:102C000061198B4201BF19685B6849192160EDE7C2
:102C10001A465B680BB1A342FAD911685518A54250
:102C20000BD12468214454181160A342E0D11C68E0
:102C30005B68214453601160DAE702D90C2303601A
:102C4000D6E7256861198B4202BF19685B6849198C
:102C5000636008BF21605460CAE703B030BD00BFA5
:102C60003411002070B50E4E0C460546316811B97E
:102C700000F07CFB30602146284600F077FB431CC7
:102C80000AD0C41C24F00304A04207D0211A28460D
:102C900000F06CFB013001D14FF0FF34204670BDD5
:102CA000381100202DE9F041CD1C074625F0030521
:102CB00008350C2D38BF0C25002D01DBA94205D9A4
:102CC0000C2300263B603046BDE8F0812E4E00F01C
:102CD000C5FC33681C4634BB29463846FFF7C2FFA3
:102CE000431C04464DD134682646002E40D123684B
:102CF0003146384604EB030800F038FB80453AD1F2
:102D00002168033538466D1A25F0030508350C2D6A
:102D100038BF0C252946FFF7A5FF01302BD02368CB
:102D20002B4423600EE02268521B1ED40B2A16D9B6
:102D30006119A342256018BF5960636808BF3160FC
:102D400062514B6004F10B06384600F08DFC231DE8
:102D500026F00706F21AB6D09B1BA350B3E76268B1
:102D6000A3420CBF32605A60ECE723466468B2E7C6
:102D700034467668B9E70C2338463B6000F074FCB3
:102D8000A1E72560DEE700BF341100209368013B16
:102D9000002B936010B408DA9469A34201DB0A297E
:102DA00003D15DF8044B00F035BB1368581C10606C
:102DB000084619705DF8044B7047F8B506460F4693
:102DC0001446D518AC4201D1002007E03A4614F869
:102DD000011B3046FFF7DAFF431CF3D1F8BD0000BA
:102DE0002DE9F04F0D469DB014469846064618B1A1
:102DF00083690BB9FFF7DCFD894B9D421BD17568D8
:102E00006B6ED90705D4AB899A0502D4A86DFFF77C
:102E10006DFEAB891B0701D52B69EBB929463046FE
:102E200000F05CFBC0B16B6EDC070ED54FF0FF30DD
:102E30001DB0BDE8F08F7B4B9D4201D1B568DFE747
:102E4000794B9D4208BFF568DAE7AB899805EDD468
:102E5000A86DFFF74CFEE9E70023CDF80C804FF09A
:102E60000109DFF8C881099320238DF82930302328
:102E70008DF82A3023469A4613F8012B0AB1252AE9
:102E8000F9D1BAEB040B0BD05B46224629463046FB
:102E9000FFF793FF013000F0AA80099A5A44099283
:102EA0009AF80030002B00F0A28000234FF0FF3290
:102EB0000AF1010A049307938DF853301A93CDE970
:102EC000052354460522594814F8011B00F0B8FBAD
:102ED000049AD8B9D10644BF20238DF85330130784
:102EE00044BF2B238DF853309AF800302A2B15D08D
:102EF000079A544600204FF00A0C214611F8013B76
:102F0000303B092B4ED9B0B1079214E0A0EB080377
:102F1000A24609FA03F313430493D2E7039B191D56
:102F20001B68002B0391BBBF5B4242F00202079378
:102F30000793B8BF049223782E2B0CD163782A2BE9
:102F400035D1039B02341A1D1B68002B0392B8BFB6
:102F50004FF0FF330593DFF8E4A0032221785046B9
:102F600000F06EFB40B14023A0EB0A00013403FAED
:102F700000F0049B0343049314F8011B06222C4821
:102F80008DF8281000F05CFB00283FD0294B1BBBBC
:102F9000039B073323F0070308330393099B3B4448
:102FA000099367E70CFB02320C460120A5E70023DA
:102FB00001344FF00A0C19460593204610F8012BF6
:102FC000303A092A03D9002BC5D00591C3E70CFB81
:102FD000012104460123F0E703AB2A4604A9304649
:102FE0000093154B00E000BF0746781CD6D16B6EEE
:102FF000D90705D4AB899A0502D4A86DFFF777FDF0
:10300000AB895B063FF512AF099811E703AB2A467F
:1030100004A930460093084B00F082F8E4E700BFB3
:10302000543A0000743A0000343A0000943A000028
:103030009E3A000000000000BB2D00009A3A0000FC
:103040002DE9F047164699468A6807460B690C46F3
:10305000DDF820809342B8BF1346336091F84320D7
:103060000AB1013333602368990642BF33680233E3
:103070003360256815F0060506D104F1190AE368E6
:1030800032689B1AAB4229DC94F84320131E226855
:1030900018BF012392062ED404F143024946384654
:1030A000C047013021D023681A3454F80E5C03F075
:1030B000060332680026042B54F8123C08BFAD1AF0
:1030C00054F80A2C14BF002525EAE5759342C4BFC5
:1030D0009B1AED18B5421AD1002008E00123524690
:1030E00049463846C047013003D14FF0FF30BDE8B4
:1030F000F0870135C3E7E1185A1C3020023322441F
:1031000081F8430094F8451082F84310C4E7012386
:10311000224649463846C0470130E6D00136D9E755
:103120002DE9FF470F7E914680460C46782F9A4640
:103130000C9D01F1430207D8622F0AD8002F00F03E
:10314000D880582F00F0A38004F1420584F8427023
:103150003AE0A7F16303152BF6D801A151F823F04B
:10316000B9310000CD310000493100004931000083
:103170004931000049310000CD31000049310000E3
:10318000493100004931000049310000D9320000C6
:10319000FD310000BB320000493100004931000020
:1031A000FB32000049310000FD31000049310000D0
:1031B00049310000C33200002B681A1D1B682A60C9
:1031C00004F1420584F842300123A3E02068296815
:1031D000060601F104030AD50E682B60002E03DAFF
:1031E0002D23764284F843305E480A2319E00E68A6
:1031F00010F0400F2B6018BF36B2EFE72B68206845
:10320000191D2960010601D51E6802E04606FBD59E
:103210001E886F2F53480CBF08230A23002184F80F
:1032200043106568002DA560A2BF216821F004014C
:1032300021600EB9002D4DD01546B6FBF3F103FB0E
:103240001167C75D05F8017D37460E46BB42F4D9CC
:10325000082B0BD12368DE0708D5236961689942E2
:10326000DEBF302305F8013C05F1FF35521B22611A
:103270004B4603AA21464046CDF800A0FFF7E0FEEA
:1032800001304CD14FF0FF3004B0BDE8F087354835
:1032900081F845702968236851F8046B29601D0680
:1032A00014D5DF0744BF43F0200323601EB9236811
:1032B00023F0200323601023B0E7236843F02003AA
:1032C00023607823284884F84530E3E7590648BF4F
:1032D000B6B2E6E71546BBE72B682668181D61699C
:1032E000286035061B6801D5196002E07006FBD521
:1032F0001980002315462361BAE72B6800211A1DA7
:103300002A601D686268284600F09AF908B1401BDF
:10331000606063682361002384F84330A8E7236971
:103320002A4649464046D0470130ABD023689B0728
:1033300013D4E068039B9842B8BF1846A4E7012362
:10334000324649464046D04701309BD00135E368BC
:1033500003995B1AAB42F2DCEBE7002504F1190696
:10336000F5E700BFA53A0000B63A000038B50023E3
:10337000054D044608462B60FDF782F9431C02D137
:103380002B6803B1236038BD3C11002010B50C46FA
:10339000B1F90E1000F06EF90028ABBF636DA38980
:1033A0001B1823F48053ACBF6365A38110BD2DE9C6
:1033B000F0411F468B8905460C46DB05164605D5B0
:1033C00002230022B1F90E1000F028F9A389324639
:1033D000B4F90E10284623F48053A3813B46BDE880
:1033E000F04100F069B810B50C46B1F90E1000F0CC
:1033F00015F9431CA38915BF606523F4805343F47A
:103400008053A38118BFA38110BDB1F90E1000F045
:10341000D3B80000F8B50E461446054618B18369C6
:103420000BB9FFF7C5FA214B9C422BD16C68A369FD
:10343000A360A3891A072FD523696BB32369F6B25A
:1034400020683746C01A6369834204DC2146284657
:10345000FFF71AFA30BBA3680130013BA360236871
:103460005A1C22601E706369834204D0A389DB0763
:1034700006D50A2E04D121462846FFF705FA88B959
:103480003846F8BD0A4B9C4201D1AC68CFE7094BE6
:103490009C4208BFEC68CAE72146284600F01EF8A7
:1034A0000028CBD04FF0FF37EAE700BF543A0000C6
:1034B000743A0000343A000038B50446064D084618
:1034C000114600222A601A46FEF7A8FD431C02D1CD
:1034D0002B6803B1236038BD3C110020324B70B51E
:1034E0001D6806460C4625B1AB6913B92846FFF79F
:1034F0005FFA2E4B9C420FD16C68A389B4F90C2063
:1035000019072CD4DD0611D40923336042F040039F
:103510004FF0FF30A3813EE0254B9C4201D1AC68C7
:10352000EBE7244B9C4208BFEC68E6E7580712D54E
:10353000616B41B104F14403994202D03046FFF778
:1035400045FB00236363A38923F02403A3810023A5
:10355000636023692360A38943F00803A38123697F
:103560004BB9A38903F42073B3F5007F03D0214640
:103570003046FFF7E3FAA089B4F90C2010F00103FC
:103580000AD00023A36063695B42A361236943B946
:1035900010F08000BAD170BD810758BF6369A36085
:1035A000F4E70020F7E700BF1C100020543A0000A9
:1035B000743A0000343A000038B50023054D044643
:1035C00008462B60FEF70FFD431C02D12B6803B1A8
:1035D000236038BD3C11002038B50023064D044659
:1035E000084611462B60FEF701FD431C02D12B68F3
:1035F00003B1236038BD00BF3C11002038B5002363
:10360000054D044608462B60FEF7F5FC431C02D12D
:103610002B6803B1236038BD3C11002038B5044647
:10362000064D0846114600222A601A46FEF7E5FCC0
:10363000431C02D12B6803B1236038BD3C1100202C
:10364000C9B2024410B59042034601D1002303E001
:103650001C7801308C42F6D1184610BD0148FFF7A6
:1036600045BA00BF301100200148FFF740BA00BF43
:103670003011002038B50446064D08461146002298
:103680002A601A46FEF7BBFC431C02D12B6803B12B
:10369000236038BD3C110020F8B500BFF8BC08BC61
:1036A0009E467047F8B500BFF8BC08BC9E46704700
:1036B00025640A000B0000000B000000020000005F
:1036C0000000202000000000030000008C8C3C0063
:1036D0000000000000000000000000002E2E2F61FE
:1036E00075746F67656E2F736C5F696F7374726545
:1036F000616D5F696E69745F75736172745F696E25
:103700007374616E6365732E630000000500000032
:103710000000000000C201000005000000100000D1
:10372000000000000000000000000650290000001A
:103730000005000600080007010000000F1000004F
:10374000EC1000202000000000010000433A2F553B
:10375000736572732F62616E6E682F53696D706C42
:10376000696369747953747564696F2F53444B733B
:103770002F6765636B6F5F73646B2F706C6174662A
:103780006F726D2F656D6C69622F7372632F656D3B
:103790005F636D752E6300020101030302060105DC
:1037A00004433A2F55736572732F62616E6E682FF2
:1037B00053696D706C696369747953747564696F6A
:1037C0002F53444B732F6765636B6F5F73646B2F6D
:1037D000706C6174666F726D2F656D6C69622F73AA
:1037E00072632F656D5F656D752E6300633A5C755E
:1037F000736572735C62616E6E685C73696D706C28
:10380000696369747973747564696F5C73646B73ED
:103810005C6765636B6F5F73646B5C706C6174662F
:103820006F726D5C656D6C69625C696E635C656D21
:103830005F6770696F2E6800433A2F557365727326
:103840002F62616E6E682F53696D706C6963697465
:103850007953747564696F2F53444B732F67656395
:103860006B6F5F73646B2F706C6174666F726D2F1A
:10387000656D6C69622F7372632F656D5F67706928
:103880006F2E6300433A2F55736572732F62616E1A
:103890006E682F53696D706C6963697479537475C0
:1038A00064696F2F53444B732F6765636B6F5F734E
:1038B000646B2F706C6174666F726D2F656D6C69CF
:1038C000622F7372632F656D5F74696D65722E630D
:1038D00000433A2F55736572732F62616E6E682FC5
:1038E00053696D706C696369747953747564696F39
:1038F0002F53444B732F6765636B6F5F73646B2F3C
:10390000706C6174666F726D2F656D6C69622F7378
:1039100072632F656D5F75736172742E63000103AE
:1039200004010101090300000B0000000B0000006E
:103930000200000000002020000000000300000042
:103940008C8C3C0000000000000000000000000023
:10395000012600000400000000000000000100003B
:1039600000000000433A2F55736572732F62616E39
:103970006E682F53696D706C6963697479537475DF
:1039800064696F2F53444B732F6765636B6F5F736D
:10399000646B2F706C6174666F726D2F73657276D5
:1039A0006963652F696F73747265616D2F737263DC
:1039B0002F736C5F696F73747265616D5F7265748C
:1039C00061726765745F737464696F2E6300433A54
:1039D0002F55736572732F62616E6E682F53696D18
:1039E000706C696369747953747564696F2F53449B
:1039F0004B732F6765636B6F5F73646B2F706C61C4
:103A000074666F726D2F736572766963652F696F67
:103A100073747265616D2F7372632F736C5F696F5E
:103A200073747265616D5F756172742E630000005E
:103A30002010002000000000000000000000000036
:103A40000000000000000000000000000000000076
:103A50000000000000000000000000000000000066
:103A60000000000000000000000000000000000056
:103A70000000000000000000000000000000000046
:103A80000000000000000000000000000000000036
:103A900000000000232D302B2000686C4C00656670
:103AA000674546470030313233343536373839418F
:103AB00042434445460030313233343536373839A5
:083AC0006162636465660000A9
:083AC800B8C6FF7F01000000F9
:0C3AD000DC3A0000001000202200000082
:103ADC0001041F00C0EA2101C0EA210100F04902E3
:103AEC000080000040110020FFFF0000201000208B
:103AFC0000000000543A0000743A0000343A000010
:103B0C0000000000000000000000000000000000A9
:103B1C000000000000000000000000000000000099
:103B2C000000000000000000000000000000000089
:103B3C000000000000000000000000000000000079
:103B4C000000000000000000000000000000000069
:083B5C006501000041010000B9
:04000003000004FDF8
:00000001FF
