S0240000696E74726F76657274735F67617264656E5F73656E736F725F726561642E733337AC
S214000000C00A0020A10C00009F0C00009F0C0000FE
S2140000108D3A00009F0C00009F0C00009F0C000013
S2140000209F0C00009F0C00009F0C00009F0C00001F
S2140000309F0C00009F0C0000010900009F0C0000B0
S2140000409F0C00009F0C00009F0C00009F0C0000FF
S2140000509F0C00009F0C00009F0C00009F0C0000EF
S2140000609F0C00009F0C00009F0C00009F0C0000DF
S214000070714900009F0C00009F0C0000110B00004F
S2140000801D0B00009F0C00009F0C00009F0C000042
S2140000909F0C00009F0C00009F0C00009F0C0000AF
S2140000A09F0C000079120000551200009F0C000003
S2140000B09F0C000039E001009F0C000025EA0100BB
S2140000C0DDE90100D9E9010015E2010021EA01009D
S2140000D0E1E90100F9E90100E5E9010085EA01002E
S2140000E09DC2010065C4010065EA01009F0C000086
S2140000F0153100009F0C00009F0C00009F0C0000B4
S2140001009F0C00009F0C00009F0C00009F0C00003E
S2140001109F0C00009F0C00009F0C00009F0C00002E
S2140001209F0C00009F0C00009F0C00009F0C00001E
S2140001309F0C00009F0C00009F0C00009F0C00000E
S21400014010B5054C237833B9044B13B1044800E0CE
S21400015000BF0123237010BDE80E00200000000041
S214000160B44E020008B5034B1BB10349034800E038
S21400017000BF08BD00000000EC0E0020B44E0200D8
S214000180A3F5803A704700BF174B002B08BF134BF0
S2140001909D46FFF7F5FF00218B460F461348144A8D
S2140001A0121A1EF038FF0E4B002B00D098470D4B4E
S2140001B0002B00D098470020002104000D000D48B9
S2140001C0002802D00C4800E000BF1EF0B9FE200058
S2140001D0290000F089FB1EF09FFE00BF000008000B
S2140001E00000000000000000C00A0020E80E00200A
S2140001F028290020000000000000000000F026BCB7
S21400020038B5154B1A7832B300221A7000F020FB6E
S2140002100446D8B1012000F0CBFCE0B10F4D1049E8
S214000220286802F0BEFF00F0E3FC00F0E2FC234684
S2140002300C490D4A286802F0B4FF204600F000FD85
S21400024028680A49BDE8384002F0ABBF00F02AFB38
S21400025004460028DED138BD040F0020B00F002071
S214000260600102006801020065010200230202002C
S21400027070B50368AF4A23F47F4323F00703934225
S21400028088B000F047820AD8A2F5102293424AD0DE
S21400029002F5A022934200F0BD8108B070BDA64AC8
S2140002A0934200F0C98102F101729342F5D1B0F891
S2140002B00530172BF1D103890320DB0740F1578265
S2140002C000F076FC60B19D4C9D49206802F069FF05
S2140002D000F08EFC00F08DFC9A49206802F061FF69
S2140002E000F0E0FA04460028D7D0012000F060FCB9
S2140002F00028D2D0914D9449286802F052FF00F0B1
S21400030077FC00F076FC91492346914A286802F073
S21400031048FF204600F094FC8E49286808B0BDE8E7
S214000320704002F03EBF0DF10F0104A812F018FA5B
S214000330044630B3814D8849286802F032FF874969
S214000340286802F02EFF00F053FC00F052FC844BAD
S214000350844A009384496423286802F022FF2346D7
S2140003607B4A7A49286802F01CFF204600F068FCA9
S2140003707E49286802F015FF7749286802F011FFC9
S214000380FEE79DF8153001468DF818309DF81430BC
S21400039008228DF819309DF8133012208DF81A3087
S2140003A0FF238DF81B30FE238DF81C309DF812308D
S2140003B08DF81D309DF811308DF81E309DF81030E8
S2140003C08DF81F3006AB12F09FF9054630B35B4C34
S2140003D06149206802F0E5FE6049206802F0E1FE0F
S2140003E000F006FC00F005FC5D4B5E4A00935E499B
S2140003F07423206802F0D5FE2B46554A53492068E0
S21400040002F0CFFE284600F01BFC5849206802F098
S214000410C8FE5149206802F0C4FEFEE7544E30463E
S21400042012F0DEF8054630B3444C4B49206802F023
S214000430B8FE4A49206802F0B4FE00F0D9FB00F08E
S214000440D8FB474B474A009347497823206802F079
S214000450A8FE2B463E4A3D49206802F0A2FE2846EA
S21400046000F0EEFB4149206802F09BFE3A49206806
S21400047002F097FEFEE70221307812F0EBF8044611
S21400048030B32E4D3449286802F08BFE3349286875
S21400049002F087FE00F0ACFB00F0ABFB304B314ABD
S2140004A0009331497D23286802F07BFE2346284AC4
S2140004B02649286802F075FE204600F0C1FB2B494D
S2140004C0286802F06EFE2449286802F06AFEFEE7FD
S2140004D0A022034600901146307812F099F805469F
S2140004E0002847D0154C1C49206802F05AFE1B49CC
S2140004F0206802F056FE00F07BFB00F07AFB184BFB
S214000500184A009318498623206802F04AFE2B46B4
S2140005100F4A0E49206802F044FE284600F090FB81
S2140005201249206802F03DFE0B49206802F039FEB1
S214000530FEE700BFA0000A00A0000601B00F0020E2
S214000540A8010200F6010200600102006801020034
S2140005506501020023020200220202007D01020061
S21400056024020200820102008B01020097010200B1
S214000570C00A00200221307812F080F8054630B319
S214000580864C8749206802F00CFE8649206802F0F7
S21400059008FE00F02DFB00F02CFB834B834A0093F3
S2140005A083498B23206802F0FCFD2B46814A824952
S2140005B0206802F0F6FD284600F042FB7F492068DE
S2140005C002F0EFFD7649206802F0EBFDFEE700F052
S2140005D03FF90446002800F0DA80012000F0E8FA2F
S2140005E000283FF45AAE6D4D7549286802F0D9FDD3
S2140005F000F0FEFA00F0FDFA23466E4A6E492868BF
S21400060002F0CFFD204600F01BFB6E49286802F082
S214000610C8FD42E6032000F0CBFA00283FF43DAECA
S2140006205E4C6949206802F0BCFD00F0E1FA00F07B
S214000630E0FA6649206871E6032000F0B9FA60B176
S214000640564C6149206802F0ACFD00F0D1FA00F08B
S214000650D0FA5F49206802F0A4FD5E4C02212078A3
S21400066011F0F8FF054630B34C4C4D49206802F0B7
S21400067098FD4C49206802F094FD00F0B9FA00F0AD
S214000680B8FA494B494A00934949A623206802F024
S21400069088FD2B46474A4849206802F082FD2846D6
S2140006A000F0CEFA4549206802F07BFD3C49206800
S2140006B002F077FDFEE70221207811F0DFFF054605
S2140006C000283FF4EAAD354C3549206802F069FD54
S2140006D03449206802F065FD00F08AFA00F089FAD5
S2140006E0314B324A00933249AB23206802F059FD61
S2140006F02B46304A3049206802F053FD284600F069
S2140007009FFA2E49206802F04CFD2549206802F029
S21400071048FDFEE7B0F8050015287FF4BEAD04AB33
S21400072000930122002106AB11F0BCFF044600280E
S2140007307FF453AF9DF81030012B15D0012000F048
S21400074037FA00283FF4A9AD144C1D49206802F082
S21400075028FD00F04DFA00F04CFA9DF810201E49D6
S214000760206802F01EFD98E51C4A137095E500F01F
S2140007701FFA00283FF491AD084C1349206802F098
S21400078010FD00F035FA00F034FA154952E700F093
S21400079089F8044600283FF480AD1EE7B00F00201D
S2140007A0220202007D0102002402020082010200F1
S2140007B08B01020065010200680102009701020039
S2140007C06001020023020200A8010200AD0102003F
S2140007D0C1010200C00A0020D5010200040F00205B
S2140007E00C0202002122F8B5124B134C1A70134A61
S2140007F0134EC4E90023012321463046238100F02E
S21400080049FC104D104F2870104804F0E7F80223FA
S2140008102146304663802381676000F03BFC21461A
S2140008202870304600F036FC2870388840BA80B20F
S214000830F8BD00BF050F0020080F0020460001008D
S2140008400000015A060F00201C0F0020C0D4010033
S21400085037B5FFF7C7FF0222ADF8060000211720C4
S2140008600DF1060311F050FF044690B9032000F086
S2140008709FF970B1084D0949286802F092FC00F013
S214000880B7F900F0B6F9BDF806200549286802F069
S21400089088FC204603B030BDB00F0020A80102003F
S2140008A03302020030B585B00DF10B0501220021A0
S2140008B01720009503AB11F0F5FE044668B92A46EA
S2140008C00121172011F036FF044630B9044B9DF87D
S2140008D00B200449186802F064FC204605B030BDC1
S2140008E0B00F00205B02020008B504F05EF8FFF7C8
S2140008F085FC04F067F8FFF783FC03F049FAF8E795
S21400090006F0E8BF04F09AB80120704700B5C3B0FF
S21400091006F002FF06F02BFF48B1FFF7F5FF30B1F7
S21400092001A811F057FE10B901A8FFF7A1FC43B0CB
S2140009305DF804FB704708B50321802001F038FA03
S21400094003214FF4806001F033FA03214FF49060E6
S21400095001F02EFA08214FF4C06001F029FA0821B0
S2140009604FF4F06001F024FA08213E2001F020FA4E
S21400097008212D2001F01CFA002008BD08B5174BF1
S2140009801B68C3F30743012B0ED1154B04205A6E88
S2140009904FF480231349520358BF134A4B6601F5A0
S2140009A01041086258BF536602F0D4FA00F073F99B
S2140009B002F05CFA02F0ECFA02F07AFA02F0AEFA12
S2140009C002F0B2FAFFF7B7FF02F060FA00F05AF949
S2140009D000F064FCBDE8084003F0EAB80080E00FD1
S2140009E0008000500090005000A0005008B500F0B5
S2140009F0DBFB00F02BF800F0CFF8BDE8084000F075
S214000A00D1B808B500F03CF903F01EFD02F0C2FABA
S214000A1002F010FC05F0AEFD02F086FF04F078FD53
S214000A2005F0AEFFBDE8084000F064B808B502F077
S214000A30F5F902F003FABDE80840FFF763BF00F0DF
S214000A40D9B870477047FFF761BF704708B53A20BE
S214000A50012100F053FEBDE80840014800F0A2BAAC
S214000A60340B002070B5124E92B035460BAC0FCD4D
S214000A700FC495E80700032384E8070006F11C0569
S214000A8006AC8DF845300FCD0FC42B68236002AC42
S214000A9006F130030FCB84E80F00064B2146009387
S214000AA00BAA06AB044802F03FFE12B070BD00BFB2
S214000AB040050200200F00208C0F0020831E012B13
S214000AC00AD8012908D80422094B1B69C3F340132E
S214000AD00521002001F016BD0239012907D801289A
S214000AE005D8034B00221B69C3F34013F0E7704799
S214000AF000C0035008B50449044803F027F9BDE8D0
S214000B000840FFF7AFBF00BF480B0020640F00206F
S214000B10014B186802F0CCBE8C0F0020FFF7F8BF20
S214000B20014B1A6A186810478C0F00200120704786
S214000B300120704710B506F05BFE0446FFF7F6FF8F
S214000B40002814BF2046002010BD38B503F022FA56
S214000B50044606F05BFE042817D002284FF0000576
S214000B6008BF0124FFF7DCFF042810D0022808BFC6
S214000B700124FFF7DDFF04280BD0022808BF01245C
S214000B80002D18BF0024204638BD0125EAE70125C0
S214000B90EFE70024F7E70000014800F059B900BF6E
S214000BA080050200014800F085BA00BF98050200E3
S214000BB00B4B02461B788BB10A4B1B78834234BF23
S214000BC000200120084B1B783BB1084B1B7843FAEA
S214000BD002F212F0010F08BF002070470120F1E773
S214000BE05B0B00205C0B0020B40F00205D0B002088
S214000BF070477047012208B5074B1A700022074B52
S214000C001A700422064B1A701F22064B1A7002F046
S214000C108FFA054B186008BD5B0B0020B40F002050
S214000C205C0B00205D0B0020B00F0020024B034938
S214000C30186802F0B6BA00BFB00F0020B005020078
S214000C4070B50C4C0C490646206802F0AAFA02F071
S214000C506FFA0546206802F05FFA3046FFF7E6FFB7
S214000C60284602F059FA20680449BDE8704002F0B0
S214000C7098BA00BFB00F0020B2050200B40502000B
S214000C800F20704708B501213A2000F037FDBDE877
S214000C900840FFF74FBE01213A2000F02FBDFEE7C7
S214000CA008B500F02DF8124B12498B4212D30020E3
S214000CB0114B12498B4218D3FFF766FA186850F8A2
S214000CC02240586840F82240013298688242F5D3A4
S214000CD00C33EAE70022F8E71C6844F822000132E9
S214000CE05C68A242F8D30833E4E70022F8E700BFC6
S214000CF0BC4E0200C84E0200C84E0200C84E02009B
S214000D004FF400414FF0FF30124B134A10B59A6073
S214000D10D3F8882042F47002C3F888200F4A916600
S214000D2001F1884101F5005210664FF6DF705066FB
S214000D300220C3F8D000BFF34F8FBFF36F8F082495
S214000D404FF440330648C0F88041D36004600B611E
S214000D5010BD00BF00ED00E0000000000090005055
S214000D6000E100E0014B1868704700BF640B0020EC
S214000D70084B1B6F03F00703022B04D0032B05D090
S214000D80012B05D0FEE7044B18687047034BFBE7C2
S214000D900348704700800050640B0020680B00205A
S214000DA0002D310108B5FFF7E3FF054B1B6FC3F3BA
S214000DB003330133B0FBF3F0024B186008BD00BFED
S214000DC000800050600B00200048704700B4C40448
S214000DD0014B1868704700BF680B0020054B186071
S214000DE0054B1B6F03F00703032B01D1FFF7DABF98
S214000DF0704700BF680B002000800050002070473E
S214000E0000487047002D31014FF4004070474FF402
S214000E107A707047014B1868704700BF6C0B002053
S214000E2000230360704703680B6001607047000092
S214000E3005490A681318054883428CBF4FF0FF32F5
S214000E400B601046704700BF700B0020008000202B
S214000E50436803B1184722207047704710B40A68E9
S214000E601378022B14D014203023147913FB0403B8
S214000E7003F1A04303F570331B685079C340DB438E
S214000E8003F00103137008465DF8044BFFF7E5BF57
S214000E905DF8044B7047000037B50468012105462D
S214000EA03A2000F02BFC002301226179207901F022
S214000EB029FB14223023217913FB012303F1A043DD
S214000EC003F570331B686279D340DB4303F00103FC
S214000ED02370A379022B0ED100F066F92A46074943
S214000EE0607900F08BF90123024661792079CDE91B
S214000EF0003301F0AFFA002003B030BD5D0E0000F5
S214000F0003681878704702681378022B27D01421DC
S214000F103023107913FB001303F1A04303F570335D
S214000F2051791B68CB40917903F00103012912D156
S214000F30508843EA40034FF6E07063F03F039BB2ED
S214000F40834202D11170538070474FF6DF718B4297
S214000F50F9D10021F6E711B983F001031370704749
S214000F6003681A78022A03D100225A80FFF794BF3A
S214000F70704713B504682378022B10D0A379022B90
S214000F800BD10021607900F027F9002362792079DF
S214000F901146CDE9003301F05DFA0223237002B05A
S214000FA010BD00002DE9FF410368374A044693420E
S214000FB004D0364A934251D12F2000E02E20012142
S214000FC000F09CFB01230A226179207901F09AFA4D
S214000FD001230A22E179A07901F094FA0926012773
S214000FE02B4D4FF0300842F210032279617908FB4E
S214000FF0025207FA01F1D150642003F0EFFC41F2EF
S21400100010012379627908FB035307FA02F2642081
S2140010105A5003F0E3FC013EE3D120681A4B984295
S2140010201FD10323C5F890346279237943EA02433B
S214001030C5F89434E279A37943EA0243C5F89834B4
S21400104040F20113ADF80030E36869460293A368E6
S2140010500193237C8DF80C3001F0DEFA04B0BDE875
S214001060F0810A4B9842EBD10323C5F8A03462798D
S214001070237943EA0243C5F8A434E279A37943EA24
S2140010800243C5F8A834DBE70000015A008006508A
S21400109000C0035038B5054601F0FCFB044C01289F
S2140010A001D1013C00D138BD284601F0D7FAF6E759
S2140010B0E1930400D0E90003184710B50446012167
S2140010C03A2000F01BFBA3782078B3FA83F30422BF
S2140010D061785B0901F016FA002010BD10B50122F8
S2140010E043780178847830209A40054B00FB013322
S2140010F01CB942F210015A5010BD41F21001FAE735
S21400110000C0035010B5012243780178847830205F
S2140011109A40054B00FB01331CB941F210015A50AE
S21400112010BD42F21001FAE700C0035001224178D8
S21400113003788A4030214B4343F2100103F1A04369
S21400114003F570335A50704730231021024600785A
S21400115013FB001303F1A04303F5703350781B68AC
S214001160C34003F0010093780BB980F0010070478C
S21400117070B5044601250B4E04B970BD94FAA4F070
S214001180B0FA80F005FA00F306EB001224EA030436
S2140011905368002BF0D0117B11B191689847EBE7AC
S2140011A09847E9E7B80F002008B5192000F09EFF21
S2140011B028B14FF00072074BC3F880211A601A203E
S2140011C000F094FF28B14FF08062024BC3F88021F4
S2140011D01A6008BD00E100E038B505460C4600F090
S2140011E07CFF0022044B03EB05135C601A73BDE81A
S2140011F0384000F078BF00BFB80F0020F8B50546AD
S2140012000F46164600F069FF104B05F0FC02D3F8B7
S21400121024140023EC1804F00304144321FA04FCFD
S2140012201CF0010F07D00133042BF3D1FF2400F08C
S2140012305AFF2046F8BDFF2CF9D00122044B03EBE1
S2140012400413C3E901761A73F1E700BF00C0035028
S214001250B80F0020074BD3F82404D3F8202403F556
S2140012600053104000F0553020F05020C3F8200402
S214001270FFF77EBF00C00350074BD3F82404D3F813
S214001280202403F50053104000F0AA3020F0A020E0
S214001290C3F82004FFF76CBF00C00350024B196868
S2140012A0024B186815F0C6BE780B0020740B0020A1
S2140012B07047000037B5920004460D4601921EF0B6
S2140012C03FFF431C0BD060B929462046019A1DF00B
S2140012D06BFE0028044808BF002003B030BD03485A
S2140012E0FBE70348F9E700BF10E000F021E000F05C
S2140012F024E000F013B5044601A801F0A3FB9DF816
S2140013000630012223804FF4807300206380054B53
S2140013109B680A3303F01F0302FA03F3636002B00C
S21400132010BD00BF0080E00F01F008BB08B501F05B
S214001330F5FA002008BD10B5044644EA010313F090
S2140013400303084609D1934201D1002010BD54F88A
S214001350231040F823100133F5E7214692001DF0D4
S21400136033FEF2E710B504461EF0E2FE431C15D02D
S214001370B0B90C4B20469B680A3303F01F020123CA
S214001380934023F003032344984201D1002010BD6C
S21400139050F8042B0132F7D00348F8E70348F6E785
S2140013A00348F4E70080E00F0EE000F021E000F0D4
S2140013B024E000F008B500F089FE014B186008BD77
S2140013C048180020014B186800F084BE481800201A
S2140013D00A460139014402F003BB0000044BD3F86F
S2140013E08420D206FBD4D3F88400C0F38110704763
S2140013F00040005038B5104B0546D3F820310C4657
S21400140003F00303022B0BD0032B0DD0012B0FD1BF
S214001410FFF7A8FC052305B1286004B1236038BD9A
S214001420FFF7D6FC0323F6E7FFF7EAFC0223F2E712
S21400143000231846EFE700BF0080005073B50D4646
S21400144000210E4B0191D3F88041064604F00304B8
S214001450012C09D0022C0CD00C460EB1019B336037
S21400146005B12C6002B070BD01A8FFF7C3FF0F24C2
S214001470F3E7FFF7C5FC0190EFE700BF00800050E0
S21400148038B5174B0546D3F824310C4603F007034E
S214001490013B052B20D8DFE803F0030F171B0B13C7
S2140014A0FFF760FC052305B1286004B1236038BD52
S2140014B0FFF758FC0623F6E7FFF78AFC0323F2E75C
S2140014C0FFF786FC0423EEE7FFF79AFC0223EAE721
S2140014D0FFF794FC0723E6E700231846E3E700BF80
S2140014E00080005038B5104B0546D3F840310C4606
S2140014F003F00303022B0BD0032B0DD0012B0FD1CF
S214001500FFF782FC092305B1286004B1236038BDCB
S214001510FFF780FC0823F6E7FFF779FC0B23F2E7DA
S21400152000231846EFE700BF0080005038B5134B85
S2140015300546D3F800320C4603F00703013B032BA5
S21400154018D8DFE803F0020A0E12FFF75DFC092345
S21400155005B1286004B1236038BDFFF75BFC0823A3
S214001560F6E7FFF754FC0B23F2E7FFF71BFC0E230E
S214001570800AEDE700231846EAE700BF0080005027
S21400158038B5104B0546D3F840320C4603F003033B
S214001590022B0BD0032B0DD0012B0FD1FFF734FC01
S2140015A0092305B1286004B1236038BDFFF732FC7B
S2140015B00823F6E7FFF72BFC0B23F2E70023184679
S2140015C0EFE700BF0080005038B5104B0546D3F853
S2140015D060310C4603F00303022B0BD0032B0DD017
S2140015E0012B0FD1FFF710FC092305B1286004B1C9
S2140015F0236038BDFFF70EFC0823F6E7FFF707FC6D
S2140016000B23F2E700231846EFE700BF00800050E8
S21400161010B40D4C0B46D4F8204204F00304012C01
S2140016200AD0022C0CD008B1002101600BB10022B8
S2140016301A605DF8044B70475DF8044BFFF7DABE9E
S2140016405DF8044BFFF74EBF00800050B0F5207FDA
S2140016501FD009D8B0F5007F15D003D868B1B0F513
S214001660C07F0AD000200CE0B0F5607FFAD10B4BAB
S214001670D3F88000C0F3011003E0084B186FC0F3E6
S214001680033001307047054BD3F89000C0F3046078
S214001690F7E7024B186FC0F38020F2E70080005097
S2140016A04FF400320E4B014610B500209A66FFF745
S2140016B0CDFF41F6713248430A490B4B88428CBF36
S2140016C04FF480100020DC69DA639A6822F4401236
S2140016D002439A60E20344BF0022DA6310BD00BFF3
S2140016E000900050005A62020000035008B5FFF751
S2140016F06BFBBDE808400021FFF7D2BF420910B5DA
S21400170010D0012A10D00B4B0B4C022A18BF2346D0
S21400171000F01F0051B103F58053012202FA00F0D9
S214001720186010BD1346F3E7044BF1E703F50053CA
S214001730F3E700BF6880005060820050648000506D
S2140017401FB5002380280446019371D02AD80028AC
S21400175072D0A0F12004412C32D8412C30D8DFE8DA
S21400176004F06B6E6B6E7D7D7D7D6E6E873C9D623C
S2140017703C6E6E6E2F2F2F2F2F2F82546E6E6EA7FD
S214001780A26E2F2F2F2F2F2F2F2F2F2F2F2F2F6B76
S2140017902F6B6B6B7D2F2F2F2F2F2F2F2F2F2F2F52
S2140017A02F2F6B6BB0F5806F58D021D8B0F5007F27
S2140017B04FD008D8B0F5807F5FD0B0F5C07F3BD063
S2140017C0019804B010BDB0F5607F42D0F8D8B0F5EF
S2140017D0207F34D0B0F5407FF2D1FFF7E3FA02461F
S2140017E04FF42070FFF732FFB2FBF0F0400821E024
S2140017F0B0F5C06F52D00DD8B0F5A06F33D0B0F5AD
S214001800B06F35D0B0F5906FDAD1002101A8FFF7A0
S21400181037FED5E7B0F5E06F45D0B0F5F06F47D0AE
S214001820B0F5D06FCCD1002101A8FFF77FFEC7E747
S214001830FFF79EFA0190C3E7FFF7B4FAFAE7FFF75F
S214001840B1FA02464FF42070FFF700FFB2FBF0F04B
S214001850F0E7FFF78DFA02462046F5E7002101A8DB
S214001860FFF7C8FDACE7002101A8FFF7D1FEA7E708
S214001870002101A8FFF7E2FDA2E702934FF0E02364
S2140018801B695B0705D5FFF78DFA0290029B019353
S21400189096E703A902A8FFF725FEF7E7002101A8AF
S2140018A0FFF720FE8CE7002101A8FFF769FE87E717
S2140018B0002101A8FFF788FE82E7000008B5802017
S2140018C0FFF73EFF034B98429EBF4FF48032024B19
S2140018D01A6708BD005A620200A000501FB5002318
S2140018E0B0F5807F019377D028D8382800F0948010
S2140018F00BD82438092810D809280ED8DFE800F0BD
S214001900676767670D0D620D377D52285FD008D870
S2140019103D283BD03E2800F08480019805B05DF855
S21400192004FB8028F9D1414B1B6F03F00703013BF2
S214001930032BF2D8DFE803F044413F6CB0F5D06FDC
S2140019405BD019D8B0F5A06F66D00AD8B0F5806F16
S2140019503DD0B0F5906FE0D1002001A9FFF790FDD3
S214001960DBE7B0F5B06F2DD0B0F5C06FD5D1002055
S21400197001A9FFF7B7FDD0E7B0F5006FECD00AD8A5
S214001980B0F5E06F4DD0B0F5F06FC6D1002001A9DC
S214001990FFF71AFEC1E7B0F5086FBED1234BD3F8A8
S2140019A0003103F00303022B2CD0032B2ED0012B87
S2140019B030D1FFF70DFA032300E005230193ACE7CF
S2140019C00223FBE7002001A9FFF738FDA5E700206A
S2140019D001A9FFF70FFDA0E702934FF0E0231B6974
S2140019E05B0705D5FFF7DEF90C230393039BE5E7BA
S2140019F003A902A8FFF776FDF8E7002001A9FFF784
S214001A0095FD8AE7FFF706FA0823D7E7FFF7F6F90A
S214001A100723D3E70123D1E7002001A9FFF7F8FD4C
S214001A207BE7002001A9FFF7ABFD76E700800050BA
S214001A3008B5FFF753FF082811D00938012811D838
S214001A404FF40012094B4FF6FF705A6603F5D83371
S214001A505B6A13F0010F18BF4FF4FA7008BD044B11
S214001A601888FBE74FF6FF70F8E700BF00900050BD
S214001A70980B002070B504468020FFF72FFF032840
S214001A8000F082804FF40022444B02215A6645F64D
S214001A900E03434AC2F88030424B9962012103F597
S214001AA080539962936DD903FCD4D4E900131B05C7
S214001AB043EA0163E17B94F822500B43217B94F8C0
S214001AC0236043EA0143617B43EA0133A17B43EA97
S214001AD0811313619169D4E904031B0643EA80630A
S214001AE001F000410B43A17EE07E0B43217E43EADA
S214001AF00143617E43EA01239361E369126A002B86
S214001B000CBF0021082122F00D0242EA030242EA3D
S214001B108002234B42EA01021A6294F820204FEA20
S214001B20421232D1986A94F8211020F0330042EA2B
S214001B300112024342F001029A621B4A996D32EA90
S214001B400101FBD1022217498A621A659A6D52007A
S214001B50FCD41869A26820F4700040EA02504FF0E6
S214001B60004218610F4B9A611DB9022203F580539B
S214001B709A6216B901220D4B9A6294F824301BB172
S214001B80074B0B4AC3F8802070BD996A21F03301D9
S214001B9031430A4342EA4502EEE700BF0090005098
S214001BA000C0005000D000500300014000E000508C
S214001BB0F1A7FFFF014B93F900007047FC180020C7
S214001BC0F0B5D0E901434FF480061A4A417805780B
S214001BD056664FF4D156022702F5B8325662164EB4
S214001BE04F2977604FF0010728BF4F2106F5805632
S214001BF077601669F603FCD441EA052151611B01A2
S214001C00417B43EA04230B43017B43EA4103936091
S214001C10C37B817B1B0143EA4113417C0B43017C60
S214001C2043EA41035360837C13B16FF4D15353628C
S214001C30F0BD00BF0090005000100250014B18800D
S214001C40704700BF980B00204FF4001208B5184BE1
S214001C505A660223174A5360936813F48033FBD105
S214001C60012822D1FFF7B4F8134B984215D003F59C
S214001C70122303F5F863984213D0104B00EB800252
S214001C80400AB3FBF0F0520A0A4BDA6201221863EC
S214001C905A620022074B5A6008BD45F67A10084A79
S214001CA0F2E745F61A00074AEEE75362F1E700BF8F
S214001CB0009000500040025000F0490264666666DC
S214001CC0D8B80500BBCF05000029CCBF01210021F4
S214001CD0FFF7E6BCB0F5207F10B50C4642D008D81A
S214001CE0B0F5007F33D003D888B1B0F5C07F0ED0F2
S214001CF010BDB0F5607FFBD11F4B013CD3F88010C0
S214001D0021F0300141EA0414C3F88040F0E7FFF701
S214001D10EDFC00F035F84FF48031184A164B116789
S214001D20196F013C21F4704141EA04341C67FFF747
S214001D3039F80446FFF752FBC0F102012046FFF7D0
S214001D40C3FF00F023F8BDE81040FFF7B7BD0A4B0D
S214001D50013CD3F8901021F0F85141EA0464C3F82E
S214001D609040C5E7044B013C196F21F4806141EABD
S214001D7084241C67BCE700BF008000500090005021
S214001D8002214FF42070FFF7A5BF000008B54FF4FE
S214001D90C070FFF7D5FCBDE80840044988428CBFF8
S214001DA0022101214FF42070FFF794BF80F0FA0261
S214001DB0B0F5807F70B50C4600F0F88029D838283A
S214001DC000F04B8110D82438092816D8092814D8D2
S214001DD0DFE810F0DC00DC00DC00DC0013001300A1
S214001DE0CD00130047003301522800F0CF8005D8FD
S214001DF03D2851D03E2800F0418170BD8028FCD19E
S214001E008B1E052B00F2B080DFE803F0AB99AE69BD
S214001E10AEA8B0F5D06F00F0108132D8B0F5A06F44
S214001E2000F01B8116D8B0F5806F00F0AF80B0F5DB
S214001E30906FE2D1023C052C8CBF0021974B984A4C
S214001E4098BF195DD2F8243123F007030B43C2F87C
S214001E502431D2E7B0F5B06F00F08980B0F5C06FDE
S214001E60CBD1083C032C8CBF00218E4B8C4A98BFEC
S214001E70195DD2F8403123F003030B43C2F840311A
S214001E80BBE7B0F5006FD5D016D8B0F5E06F00F020
S214001E90F580B0F5F06FB0D1083C032C8CBF002164
S214001EA0814B7F4A98BF195DD2F8603123F0030357
S214001EB00B43C2F86031A0E7B0F5086F9DD1CC1E89
S214001EC0052C8CBF0021794B754A98BF195DD2F856
S214001ED0003123F003030B43C2F800318DE70025E1
S214001EE002260121022000F0C7F9FFF7FFFBFFF7EB
S214001EF047FF4FF480316E4B694A1967136F23F022
S214001F00070333431367FEF74DFF0646FFF766FAEF
S214001F10C0F102013046FFF7D7FE0121002000F095
S214001F20EBF9FFF733FFFFF7C9FC002D7FF465AF31
S214001F30032C7FF462AF01225E4B9A625DE74FF49A
S214001F4000225B4B0E465A66012203F540539D6AFB
S214001F5003F58053C5F340059A62C2E700250426C0
S214001F60BFE700250126BCE700252E46B9E7022C70
S214001F7003D0A4F10F0044424441494BD3F88011EA
S214001F8021F003010C43C3F8804136E7023C032CE2
S214001F908CBF0021484B424A98BF195DD2F82031C9
S214001FA023F003030B43C2F8203126E7A1F108040F
S214001FB0082C3FF622AF01A353F824F0E11F0000DF
S214001FC0E11F0000FB1D0000E11F00000F200000C5
S214001FD0FB1D0000FB1D0000FB1D0000E11F0000B4
S214001FE04FF480322E4B3549586E03F580535A66AF
S214001FF00B6A43F001030B62C1035CBF304B5A66A9
S2140020004FF0E022136923F004031361F5E64FF462
S2140020108032234B2949586E03F580535A660B6A63
S21400202023F001030B62C3035CBF254B5A664FF0D7
S214002030E022136943F00403E7E7083C062C8CBF54
S2140020400021204B164A98BF195DD2F8003223F0C3
S21400205007030B43C2F80032CFE60F2C0CD0102C2F
S21400206014BF002102210E4AD2F8203223F00303C7
S2140020700B43C2F82032C0E60121F4E7083C032CEB
S2140020808CBF0021104B064A98BF195DD2F840322B
S21400209023F003030B43C2F84032AEE6E405020029
S2140020A000800050E0050200E0050200F105020095
S2140020B00090005000E00050DC05020000C0075011
S2140020C000A00050EA050200E0050200EFF31080D1
S2140020D072B6704700B962B67047EFF311803023CE
S2140020E083F31188704780F311887047054B4209C7
S2140020F053F8223000F01F0023FA00F0C04300F02F
S2140021000100704700E100E0194B10B51B6873B37F
S214002110184A5268012A2AD0174A8020C2F800318D
S214002120FFF7DCFB05281FD14FF4C070FFF78EFACF
S2140021300128044604D102214FF4C070FFF7CAFDFF
S21400214007220E4B1A610122A3F580535A60094AF2
S2140021501369DB07FCD5012C09D12146BDE81040E8
S2140021604FF4C070FFF7B6BD0122054B5A6010BD94
S2140021700019002000C001500080005000E001500F
S21400218000D0015000224FF40031074B1A60074A76
S214002190516602F598325268012A02BF044AD2F804
S2140021A000211A60704700BF001900200090005000
S2140021B000800050044A4178536F23F4407343EA8A
S2140021C001235367704700BF0040005070477047B8
S2140021D010B5044608B1FFF7D5FF0E4A136943F061
S2140021E00403136101F0ACFFFFF7F0FFFFF76EFF8B
S2140021F01DF0AEFFFFF76EFFFFF7E9FF01F0B4FF3B
S2140022001CB1BDE81040FFF77FBFBDE81040FEF7E9
S214002210C9BD00BF00ED00E010B5044608B1FFF7E9
S214002220B1FF0C4A136943F00403136101F088FF01
S214002230FFF74CFF1DF08CFFFFF74CFF01F094FFFB
S2140022401CB1BDE81040FFF75FBFBDE81040FEF7C9
S214002250A9BD00BF00ED00E0FFF794BFFFF754BF35
S214002260034A0179D36E23F030030B43D3667047DD
S2140022700040005070470000F8B504461C4BD3F8E9
S2140022808420D106FBD4D3F88430C3F381139C4258
S2140022902CD0FEF76DFD012C064602D12146FFF735
S2140022A013FDFFF713FF4FF00072124B07465A66F6
S2140022B02046FFF7DFFF4FF480630D4D621E93400C
S2140022C02B676B6E9A0103D4D5F884309B060AD52B
S2140022D03846FFF7FFFE022C08D13046BDE8F8402E
S2140022E00021FFF7F1BCD5F88430EAE7F8BD00BF5F
S2140022F0004000500060005007B518B90191FEF785
S21400230037FD0199064B1B7843B1064B984205D81A
S214002310012003B05DF804EBFFF7AEBF0220F8E73C
S21400232004190020005A62020278034B01210020A3
S2140023301A70FFF7E1BF00BF041900204FF00042FB
S21400234010B501244AF6CD31154B5A66154A03F5E9
S2140023500B2354605A6C1964224088B9996811F0AE
S214002360010F114903D08C60D86AC007FCD5012341
S2140023704B6012B10D4B0E4A1A6415F085FF10BD66
S214002380D96A0907FCD42021074B59620121A3F51D
S2140023908053996005494B6A9B06FCD5E9E700BF68
S2140023A0009000500050095000600950004009504D
S2140023B03254FFFF4FF0004238B5194B194C5A669D
S2140023C0012203F50C235A604AF6CD33656C23646C
S2140023D04378154093401343134AD363A368827827
S2140023E023F0740343EA0213C278002A14BF0422BF
S2140023F000221343A3600279837943EA0223236110
S2140024004279C37943EA022363610078FFF796FFB7
S2140024100DB1064B236415F037FF012038BD00BF11
S2140024200090005000400950004000503254FFFF1A
S21400243070B5054614460E46FFF748FE296881EA41
S214002440040202EA06044C402C60BDE87040FFF728
S21400245041BE0000072AF7B501F0030614461F46E2
S2140024604FF003012CD89500A94000FA05F21C484D
S2140024700191FFF7DDFF01991A4806FA05F2FFF70A
S214002480D7FF194B19499DF82000002F08BF1946A1
S214002490012303FA04F40C60154B1649002808BF04
S2140024A00B461C60144B9DF82400C3F820441031E2
S2140024B0A3F6DC33002808BF0B461C6003B0F0BD53
S2140024C0A2F10805AD00A94000FA05F20B480191FB
S2140024D0FFF7AEFF01990A4806FA05F2CFE700BFFC
S2140024E000C4035008C4035010E4035010D4035033
S2140024F014D4035014E4035000E0035004C4035003
S2140025000CC40350F8B504460D461F4616464AB19D
S21400251001238B403021194A01FB0022FFB141F212
S2140025201001535004EB4403072D4FF00F014FEA00
S214002530031317D8A80006FA00F281401048184482
S214002540FFF776FF56B9012130230C4801FA05F54E
S21400255003FB040077B141F21003C550F8BD42F208
S2140025601001DEE7A5F10800800006FA00F28140BF
S2140025700448E4E742F21003EFE700BF00C0035050
S21400258004C003500CC00350F8B505460E4614466A
S2140025905AB3826803F0030722F440728260FFF7A2
S2140025A095FDAA6882EA072303F440735340AB60A4
S2140025B0FFF790FD36B9104B9D4217D12E20FFF73E
S2140025C0BFF80646AB680D4BD85D60430DD06FEA8A
S2140025D0C4040444A319B3FBF0F3AA68013B9207B2
S2140025E002D5002B08BF0123AB61F8BD044B9D420A
S2140025F0E8D12F20E3E700BF0000015AF7050200EC
S21400260000800650043021B100F58050012303609D
S214002610704700F50050F9E738B500230E4A03640A
S21400262000F50053DA634A7804460D4600F10803C5
S2140026307AB903F5805302221A602046D5E90112C2
S2140026402B7BFFF7A1FF20462978BDE83840FFF72F
S214002650D9BF03F50053EEE7FFFF1F00884B2DE9B7
S214002660F043984222D0874B984240F00581864B33
S214002670402505264FF000084FF0030C996800F53A
S2140026800054C26B12F4C06F16D0970510D5FD2209
S2140026905A7009221A700022026493F90110012967
S2140026A000D15A7093F90100BDE8F083774BDFE75D
S2140026B05605EED5FE22EBE71F78082F00F2D880ED
S2140026C0DFE817F009001F0041004C0069007400A5
S2140026D096009E00CD004C880A88E5060AD5120AA8
S2140026E002F0060242F0F002012119704263C16056
S2140026F00120D9E702F0FE02A10748BF42F001021E
S214002700F2E7170607D5802100F50052D1634FF691
S21400271008721A8062E05206EAD54A88E563D70650
S21400272004D502221A700B784363E1E7920765D559
S21400273007221A701B7901EBC3010B89012BD7D135
S2140027400823C360D4E71706DDD45206D0D54A88DE
S214002750E563970752D583F800C092E74C880A884D
S214002760E50643BF120A02F0060242F0F00202F04B
S214002770FE02640709D51C7942F0010201EBC40190
S2140027800989012904BF0821C160042119700123A9
S214002790C3604263ACE71706B5D45706A8D54A8887
S2140027A0E56352072AD507221A70A1E71A795F88CF
S2140027B001EBC20EBEF80890B94511D80132D2B26C
S2140027C01A714F88A3F8028017F0040FC3D1FF07D1
S2140027D002D4012A7FF655AF08221A700223B0E70A
S2140027E0DEF80420791C5980D25D42630622DBE7BE
S2140027F0170688D457067FF57BAFE5631E7040E763
S21400280094067FF575AF456A214C46691A793440BF
S214002810B4F5003F04BF466A4FF4005601EBC20110
S21400282000F500540A8908BFE6632026E6635C8844
S214002830A24281BF4968661C5E800D5559888A424F
S214002840CAD90424012AC46004D9013A914201D1AC
S2140028500822C2601A78092A3FF41DAF48E7D2055D
S2140028607FF546AF4FF4807100F50052D16310E754
S2140028704FF609321A800EE76FF0030014E700BF28
S2140028800000015A00800650141900200819002084
S214002890200002001C4B10B4984207D01B4B9842F5
S2140028A02ED06FF003005DF8044B7047184B02699A
S2140028B0D20744BF2022C2604A88940702D50C89FA
S2140028C0002CEED0520702D50A8A002AE9D04FF42F
S2140028D080721A60002299601A71C023C36043692F
S2140028E0DB050FD4202200F50053DA63094A5DF8B1
S2140028F0044BDA63036C43F4FC630364FFF7AEBE79
S214002900054BD4E7436AEAE70000015A0080065008
S21400291008190020FFFF1F00141900204FF4003292
S214002920054B9A6641F6713203F51C33DA630122D1
S21400293003F50053DA6070470090005041F671329C
S2140029400121064BDA6303F50052D1600022DA63F8
S2140029504FF40032A3F518339A6670470000035010
S2140029604FF0B0435A6812B19A6A002AFAD17047FB
S214002970CB784A7810B55B010C7843EA82030A7973
S214002980234343EA02130C22424302F1B04213638C
S214002990012C02BF8A78024B43F8202010BD00BFEE
S2140029A0E880035008B54FF0B0435A6802B960B1EA
S2140029B05B680BB1FFF7D4FF4FF0B04130B1012098
S2140029C0074B5860FFF7CCFFC86008BDFFF7C8FF8D
S2140029D00223CB60FFF7C4FF0122024B5A60F4E7E4
S2140029E000100058002000584FF0B0435B6870B5E8
S2140029F00BB1FFF7B5FF0121104B4578596083787E
S214002A000679002BC37814BF02240024002B14BFC1
S214002A10042200224379DB0043EA06132B432343B8
S214002A2013434FF0B0429360054B59600378002B78
S214002A3014BF0B460223D36070BD00BF00200058B1
S214002A40001000584FF48032064B5A6603F5E62312
S214002A505B69C3F38512827003F03F021B0B427062
S214002A60037070470090005070B5054616461C4629
S214002A7021B94FF42070FEF763FE0146402C1BD0B0
S214002A8003D8DCB1202C1BD070BD602CFCD10423F5
S214002A9003FB06F2560806EB4113B3FBF2F3094AB2
S214002AA0203B02EAC303AA6822F06002AA60AA6872
S214002AB01443AC60EB61E7E70623E9E71023E7E79A
S214002AC00823E5E7F8FF7F00012200F580535A60EF
S214002AD0CB43934003F00A034361416111B900F50B
S214002AE00050426070470000012200F5805310B588
S214002AF05A6040F6AA6341F20502436100230E497C
S214002B008360C365C26000F500520361C361C3649D
S214002B1091640A498365884202D0094CA04207D1D5
S214002B208842036502D0064B984201D100234365D4
S214002B300123536010BD00BFFFFF010000C0055019
S214002B400000065070B50D46FFF7CEFF012300F5D6
S214002B5080567360AB7C04461BB1836843F08043A9
S214002B608360EB7C5BB1354A2B7D944245D1A2F560
S214002B701032C2F88C31E36D43F08003E3652A8A95
S214002B806B7B20461343EA891343E3602B7BD5E92E
S214002B900112FFF769FF6B7D1BB1A36843F4803316
S214002BA0A360AB7D1BB1A36843F40043A360EB7D39
S214002BB02A7E1B07120502F4E00203F0E0431343EB
S214002BC0A365697E1D4A8B1E012B1D4B1FD89442A0
S214002BD01BD002F5804294420CBF01224FF0FF3218
S214002BE003EB4213022041F21C620329985020D1C5
S214002BF00423F3652B78636170BD124A944204BFC8
S214002C00A2F52032C2F89C31B5E70022E8E79442EC
S214002C100DD00C4A94420CBF01224FF0FF3203EB5A
S214002C204213022042F21C6201299850DFE700227C
S214002C30F5E7042204F50053DA65DBE700C005502B
S214002C4000C003500000065083691B06FCD5406A8E
S214002C50C0B2704783695B06FCD5C163704700004D
S214002C6038B50446054D15F036FB0FCC0FC594E875
S214002C70030085E80300002038BD00BF20190020AF
S214002C8047F6FF739A42F0B563D0022963D8334BF8
S214002C90CF0003EBC10013F831108478012913D15B
S214002CA00025C3781B1B9D4202D3E018C0B2F0BDBE
S214002CB0591B4668A3EB510136F911609642D4BF02
S214002CC00D4601F1FF33EEE740680028EFD0B0F97B
S214002CD00010914204DBB0F902109142B8BF1146D1
S214002CE082883B44FF2A19BFC8222826B0F906204E
S214002CF0B0F90860A2EB01020CBF0125002592FB8B
S214002D00F6F25F782A447B1E934228BF13464FF4A0
S214002D107A7E00EBC305AE68EA88AC4611FB026219
S214002D201E4622EAE272013302F5FA729F42B2FBB5
S214002D30FEF204D9BCF80CC008359445EBD200EB83
S214002D40C6008088904228BF1046A04238BF204662
S214002D50ACE7FF20ABE70020A9E700BF2019002062
S214002D600229F0B553D82B4800EBC10410F83110F7
S214002D70636801290FD1E078A478904294BFC4EB31
S214002D800001C4EB0201001BCAB28242C8BF002287
S214002D9033F91200F0BD002B39D0A178914202D34E
S214002DA0B3F90200F6E7E178B3F900009142F1D9F1
S214002DB099886478A1F1FF06013C714203F104058D
S214002DC0E4B2714103F10C071FFA82FCCEB2B442A2
S214002DD016D805EBC1014FF47A756A43B1F9024083
S214002DE04968521A04EBD47102EB610292FBF4F2CA
S214002DF09042CFDBB3F902009042CBDC10B2C9E7B9
S214002E0037F831E04E1CE645E3D33146DEE70248AC
S214002E10C0E700BF201900200080FFFF08B5044867
S214002E20FFF71EFFBDE80840012015F056BA00BFA8
S214002E30900C0200004870479A0B00207FB50222D3
S214002E40084B0949CDE901234FF00073CDE9031380
S214002E50052301A94FF0FF30059315F0A3FA07B03C
S214002E605DF804FB006A18000002040007B56B4614
S214002E70054A1068516803C36846FFF79BFA0020AE
S214002E8003B05DF804FB00BFFB05020013B5002489
S214002E90064A6846536F43F00103536700948DF863
S214002EA00440FFF7DDF9204602B010BD0040005098
S214002EB030B58BB06C46154D0FCD0FC40FCD0FC47B
S214002EC095E8030084E80300114BD3F84C21120365
S214002ED014D4D3F85041E4B28DF81940FEF76AFED8
S214002EE0204480F308008DF818000A48FDF776FFA6
S214002EF06846FEF7BFFD00200BB030BD064B1C88B1
S214002F004FF6FF739C4208BF8C24E5E704060200D8
S214002F100080E00F00F049020001E00F08B5012034
S214002F20FEF792FE002008BD30B5094D87B001AC13
S214002F300FCD0FC42B6801A8236019238DF8053028
S214002F40FEF73EFE6420FEF779FE002007B030BD97
S214002F502C0602006FF00402502110B50A480B4CF4
S214002F6012F0800FD3B21BBF03F00F03043BA3186D
S214002F701B1802F101020CBF83F800131976402AD1
S214002F80EED1002010BD00BF00ED00E000E100E043
S214002F9000F078B838B501F057FA0446E0B901F009
S214002FA053FB4FF4167343430C4803F5742303F2A4
S214002FB03F23B3FBF0F30A4A0A4913600A220D685E
S214002FC00948013A12F0FF0240F8043BF9D103EB3E
S214002FD0C3022B4413440B60204638BD40420F000A
S214002FE0741900204019002044190020012208B559
S214002FF0034B1A7001F01CFB024B186008BD00BFA3
S2140030003C19002070190020F8B5144C237823B31F
S21400301001F00EFB124B134D1B68134EC01A01280D
S21400302038BF0120114B124F18602B7856F823201A
S21400303046F82300111A3A680E48521A0A213A60D6
S2140030400932B2FBF1F20133DBB20260B3FBF1F2FC
S21400305001FB12332B7000232370F8BD3C190020AF
S214003060701900206C19002044190020381900201F
S2140030704019002074190020014B1868704700BFE3
S2140030807419002020234FF400220A4981F82C33BB
S214003090094B5A66094A03F5405303F50050426748
S2140030A002674FF48050C1F88401486003445A67B1
S2140030B0704700BF00E100E000900050010000A053
S2140030C0044B9A6DD20702D40028FAD1704701202B
S2140030D0704700BF00C000500C4B10B51C6FE207D5
S2140030E007D5012203F500531A67FFF78DFF00F09E
S2140030F061FF14F000521CBF054B1A67002CBEBFC0
S2140031004FF00042024B1A6710BD00BF00C00050CF
S21400311000E00050FFF7E0BF10B50446FEF7D6FF0C
S214003120024B1C60FEF7D6FF002010BD7819002069
S21400313010B5FEF7CBFF034B1C68FEF7CBFF20460F
S21400314010BD00BF7819002007B530B9CDE90012D0
S214003150FFF7EEFFDDE9001230B1436823B10068E7
S21400316003B05DF804EB1847232003B05DF804FBBA
S21400317030B51C4685B058B9CDE90012FFF7D8FF28
S214003180DDE9001204B903AC20B9232005B030BD38
S21400319003B903AC8568002DF7D023460068A8471E
S2140031A0F4E70EB477B507AB53F8046B0546019306
S2140031B0B0B9FFF7BDFF04460546304601991CF03E
S2140031C0FDF8AC42064602D02046FFF7A5FF002ECB
S2140031D0D4BF3720002003B0BDE8704003B070476E
S2140031E0FFF7A6FF85420446E7D02846FFF794FF80
S2140031F0E3E700207047FEE74FF4005300204B60E3
S2140032007047012070470020704707B5002001ABCB
S2140032100190FFF7ADFF0198002808BF4FF0FF3080
S21400322003B05DF804FB10B514460020FFF78CFFD2
S214003230204610BD034B02221868002380681946FA
S2140032401BF0F8BFA00C002090F82A3001223BB1FA
S21400325090F82E30022B03D180F82E2018467047A7
S2140032601346FBE780F82410704790F82400704758
S21400327090F82B0070470000002808DB0123420965
S21400328000F01F0003FA00F0014B43F822007047DD
S21400329000E100E0002809DB0122430900F01F00DE
S2140032A002FA00F0024A603342F82300704700BF7B
S2140032B000E100E0F8B504460D4690F82B3081B1E9
S2140032C073B990F82C60FEF701FF054601213046E1
S2140032D000F09EFC2846FEF7FDFE012384F82B3006
S2140032E0F8BD002BFCD090F82C70FEF7EFFE0646DB
S2140032F02946384600F08CFC3046FEF7EBFE84F894
S2140033002B50EDE770B504460568FFF711FF8442C1
S21400331002D10020FFF700FF95F92800FFF7BAFF5B
S21400332095F92830002B0DDB01215A0903F01F0305
S21400333001FA03F31449203241F82230BFF34F8FCD
S214003340BFF36F8F95F92900FFF7A4FF95F9293091
S214003350002B0DDB01215A0903F01F0301FA03F3CA
S2140033600949203241F82230BFF34F8FBFF36F8FE9
S21400337000232846C4E90033C4E90433A360EB689D
S214003380BDE87040184700BF00E100E02DE9F047B7
S214003390044616460D4690F82480FEF79EFE94F8E6
S2140033A02A2003469AB1FEF79EFE94F82D90FEF76B
S2140033B08DFE07460121484600F02AFC3846FEF7F7
S2140033C089FEFEF78AFE0022034684F82A20184665
S2140033D0FEF789FE2E44B8F1000F23D1AE4205D188
S2140033E0204663680121BDE8F047184794F8263068
S2140033F0002BF3D02046236815F8011B98470028B9
S214003400ECD0BDE8F08794F826305BB12B780A2B19
S21400341003D10D212046236898472046236815F8D7
S214003420011B9847AE42EED1DAE72DE9F7434FF09D
S2140034300009044690461E46C3F800904F1E3368A7
S214003440434505D2FEF749FEA269C2B9FEF74BFE18
S21400345094F827305BB91123012220460DF10701AD
S2140034608DF80730FFF792FF012384F82730336882
S214003470002B0CBF1B20002003B0BDE8F083E169E1
S21400348022698A5C07F8012F2569226A0135954270
S21400349008BF4D46A2692561013AA261FEF723FEE8
S2140034A0A36820469847336801333360C7E708B5FA
S2140034B0FFF76CFF002008BDF8B51F4653680646A8
S2140034C00C461546002B5BD09368002B5AD0302252
S2140034D0002120461BF09FFD6B682B4AE361AB681A
S2140034E0204623622B7B84F82430AB7B276084F84D
S2140034F0253040F20113E384069B00276360079B98
S214003500A360089BE3602B7884F828306B7884F8F7
S21400351029301E4B346073601D4BB3601D4B336106
S2140035201D4B73611D4BF3601D4B3362012384F802
S2140035302E30B2611B4AF2619DF8282084F82D20B7
S2140035409DF8242084F82A3084F82C20697B84F89F
S2140035502B70FFF7AFFE95F90100FFF79BFE95F97C
S2140035600100FFF789FE95F90000FFF793FE95F935
S2140035700000FFF781FE3046FFF7CEFD3846F8BD67
S2140035802220FCE72120FAE7B5320000AF34000025
S2140035902B340000653200006B320000053300005B
S2140035A0493200007132000010B50446FEF795FD62
S2140035B0A269236A9A4203D2FEF795FD012010BD48
S2140035C0FEF791FD0020FAE737B504460D4600E009
S2140035D000BFFEF782FD94F8253002466BB1132D2E
S2140035E007D1002384F8263003B0BDE83040FEF74C
S2140035F07ABD112D01D10123F4E76369E169104614
S214003600CD54A16963690131A161216A01338B42FE
S214003610636104BF00236361FEF765FD0423A269AE
S21400362084F82E30236A9A420BD1132301222046B7
S2140036300DF107018DF80730FFF7A8FE002384F888
S214003640273003B030BD90F82A3073B5044603F037
S214003650FF01A3B9436801919847012384F82A30F3
S21400366094F82D60FEF732FD05460199304600F0CD
S214003670CFFA2846FEF72EFD022384F82E3002B03D
S21400368070BD026BD36C43F00403D364704710B56F
S2140036900446026B93695906FCD5002394F839104A
S2140036A01A4694F83800FEF72DFF002394F83B10D6
S2140036B01A4694F83A00FEF725FF94F84030DA07E9
S2140036C007D5002394F83D101A4694F83C00FEF700
S2140036D019FF94F840309B0707D5002394F83F1055
S2140036E01A4694F83E00FEF70DFF206B0021FFF708
S2140036F0EBF9606B0021FEF701F8002010BD08B55D
S214003700006BFFF7A7FA002008BD036BDA6C19B14F
S21400371042F00102DA64704722F00102DA64012204
S21400372003F500539A6470472DE9F04101271C46C3
S214003730594B86B00293594B0C9D0193584B9046BB
S21400374000930A46CDE903772946564BFFF7B4FEA9
S214003750064600287AD1236839462B6363683A20E8
S2140037606B63637A85F83930237A85F83830E37AE4
S21400377085F83B30A37A85F83A30637B85F83D3090
S214003780237B85F83C30E37B85F83F30A37B85F8C8
S2140037903E30FDF7B3FF3B460422617A207AFEF7FF
S2140037A0B1FE3B460222E17AA07AFEF7ABFE39462E
S2140037B06068FDF7A3FF88F8006041462068FFF7C1
S2140037C0C1F91422237C5B0103F1A04303F5703397
S2140037D0C3F81C26617A227A42EA0142C3F83426EC
S2140037E0E17AA27A42EA0142C3F82C2685F84060C4
S2140037F098F81930032B4CD8DFE803F01A022C4651
S2140038000123002785F8403000230222617B207BBD
S214003810FEF778FE637B227B217C42EA0342224B42
S21400382049015A500422236803F58053DA65A7B984
S214003830237A052185F83830637A85F83930206890
S214003840C36C43F00403C364FFF73EF9304606B08A
S214003850BDE8F081022385F8403000230422E17B96
S214003860A07BFEF74FFE022741F21C61227C0F4B25
S21400387003EB42104750E07BA17BB13241EA0041A6
S21400388003EB42139960D3E70323012785F8403002
S214003890BAE72326DAE700BF8F360000833600003B
S2140038A00B370000FF36000024D6035000C003503C
S2140038B0036B10B59B690446190609D5FFF774FE1D
S2140038C0B0B1206BFFF7C0F901462046FFF77CFE3B
S2140038D0236B9A6CD20711D5012103F5005291642F
S2140038E09B699B060AD52046BDE81040FFF7ABBE95
S2140038F0226BD36C23F00403D364E9E710BD000009
S214003900BFF35F8F074B5A6A22F480325A62D3F8AD
S214003910942022F00102C3F89420BFF34F8FBFF328
S2140039206F8F704700ED00E070B52648264CFFF715
S214003930E7FF844208BF4FF08043244A18BF20F0B8
S2140039401F03D2F8C01018BF203B21F0FF0141F042
S214003950A001B3F1005FC2F8C0100CD31C4D1D4E81
S214003960296843F00103C2F898100131C2F89C6040
S214003970C2F8A0302960844210D01548164B026861
S214003980124923F01F0343F00303C1F89820C1F83F
S2140039909C30124B0132C1F8A0300260BFF35F8F3B
S2140039A005220A4BC3F894205A6A42F480325A62BF
S2140039B0BFF34F8FBFF36F8FBFF34F8FBFF36F8F82
S2140039C070BD00BF080D0020E00E002000ED00E0F6
S2140039D07C19002003000020FF0E0020E1FFFF3FBF
S2140039E010B51446FFF78CFF1F2C24D91C4A1D4C1B
S2140039F0D2F8C03023F47F4343F48073C2F8C0305B
S214003A00C2061CBF20F01F002030CB06144A2368D5
S214003A1018BF21F01F0120F01F0021F01F01C2F87F
S214003A20983040F0030041F003010133C2F89C00D7
S214003A30C2F8A0102360BFF35F8F0522084BC3F8BF
S214003A4094205A6A42F480325A62BFF34F8FBFF313
S214003A506F8FBFF34F8FBFF36F8F002010BD00BF77
S214003A6000ED00E07C190020BFF34F8F0549064BA0
S214003A70CA6802F4E0621343CB60BFF34F8F00BF07
S214003A80FDE700BF00ED00E00400FA0508B5FFF70B
S214003A90EBFF08BD034B1B78002B14BF0120022050
S214003AA0704700BFB01900200329F8B598BF124B25
S214003AB005460E468CBF00245C5C032805D8DFE86C
S214003AC000F002080B0E44F002040C4B1F684FB9BE
S214003AD0F8BD44F00804F8E744F02004F5E744F0A5
S214003AE08004F2E77B681A68144203D03146284601
S214003AF05B6898473F68EAE740060200AC1900207A
S214003B0038B5104D2B78ABB10F4C23781BB100F0B5
S214003B1057FB00232370002000F074FB0B4C50B1C1
S214003B2000F07AFB0023012120782B70FFF7BCFF02
S214003B300123237038BD0122054B1A702278054BED
S214003B401A70F7E7AA190020A51900209C19002072
S214003B50A9190020BC19002010B5FEF7B7FA064BCD
S214003B6004461B781BB1BDE81040FEF7B3BAFFF75A
S214003B70C7FF2046F7E700BFA4190020002814BF9F
S214003B800121FF21074A13780B44137008D0064B17
S214003B901B78012B04D9054B1B780BB9FFF7B0BF78
S214003BA0704700BFB01900209C190020A9190020FA
S214003BB070B5FEF78BFA114E054633788BB900F0D8
S214003BC043FC044620B12846FEF784FA204670BD22
S214003BD00B48FDF725F90B4B1C6000F035FD0A4B32
S214003BE0186000F02FFA00F04BFB084B002418601A
S214003BF0012328463370FEF76DFAE7E7A619002082
S214003C00AC190020C0190020B8190020A019002007
S214003C1000292DE9F34114BF0121FF21254A00F1B7
S214003C20FF30135C0B4413543AD0234E3278012AEB
S214003C3036D9FFF72FFF0128044634D81F4FFEF76A
S214003C4045FA3B781BB31E4D2B781BB901222A7010
S214003C501C4A1370DFF8708098F8003033B101907A
S214003C6000F0AEFA0023019888F80030FEF732FA2A
S214003C70012000F0C7FAFEF729FA2B782BB1019045
S214003C8000F0CAFA002301982B7000233B70FEF761
S214003C9021FA3078A04203D02146FFF705FF3470A2
S214003CA002B0BDE8F081032AF3D10228F1D100F07A
S214003CB001FBEEE7B01900209C190020AA1900208D
S214003CC0A4190020A9190020A519002010B5044643
S214003CD0FEF7FCF9002C14BF0121FF21064A1378D9
S214003CE00B44DBB21370B3FA83F3BDE81040034A0B
S214003CF05B091370FEF7EEB9B3190020B219002065
S214003D0068B5FEF7E3F9094B06461B78012B04D885
S214003D10FEF7E0F90025284668BD054B1D6800F053
S214003D20B3FA05443046FEF7D5F9F4E79C190020AF
S214003D30C019002007B5FEF7C9F90190FFF7E0FEAD
S214003D40019803B05DF804EBFEF7C4B938B54160DE
S214003D500446FEF7BBF9054621460448FDF763F81E
S214003D602846BDE83840FEF7B5B900BFAC190020BC
S214003D70054B1B685843054B00F5742000F23F20A6
S214003D80B0FBF3F0704700BFB819002040420F00A8
S214003D902DE9FF47FEF79AF9044600E000BFFCF75E
S214003DA0C9FE002800F09C806D4E6E4F337823B11C
S214003DB00020FFF7E3FE00233370FFF76BFE054697
S214003DC0002800F09580851EEDB2012D40F2988007
S214003DD0FFF760FE0128804604D9634B1B780BB9B9
S214003DE000F0ACF9614DDFF8A4912878DFF8A0A1C7
S214003DF040450AD0002389F800309AF8003013B9FD
S214003E004146FFF751FE85F8008099F800303BB137
S214003E102B78022B04D1002389F8003014F058FFC9
S214003E20B8F1010F0FD9DFF8408198F8003053B988
S214003E304F4B1B7823B900F0BDF901224D4B1A7089
S214003E40012388F80030287800F004FA9AF8003049
S214003E5013B1494B1B782B7000E000BF2046FEF7DD
S214003E6039F9FEF733F9454B04461A7852B1002269
S214003E701A70414B28781B78984203D1012129708B
S214003E80FFF712FE384600F019FBFCF75EFE804690
S214003E9000288BD1344F89F800003B789BB1DFF8BF
S214003EA0D4908AF8000099F800301BB100F088F929
S214003EB089F80080002000F0A5F9002846D000F020
S214003EC0ABF900233B70337823B10020FFF756FE92
S214003ED00023337000212878FFF7E6FD00232B70BF
S214003EE000E000BF204604B0BDE8F047FEF7F2B899
S214003EF03378002B3FF46CAFFFF740FE357067E772
S214003F00002003A900F05CFB054600287FF460AFA4
S214003F101B4B039A1B689A4205D80120FFF72EFE1A
S214003F200123337054E7174BD3F8008000F0ACF948
S214003F30039940448842F0D20223091ACDE900537F
S214003F4038462B46104A00F0E1FA41E7012000F01F
S214003F5081F92046FEF7BEF8FEF7B8F80446A9E752
S214003F60B419002080190020AA1900209C190020EE
S214003F70B3190020A5190020BC190020A81900209C
S214003F80A0190020C0190020593B0000B2190020DB
S214003F90A919002010B5FEF799F80022044B1C78EA
S214003FA01A70FEF797F800F01FFC2043C0B210BD51
S214003FB0A719002010B5094B1B786BB1084C237865
S214003FC053B100F029F90023064A23701370012329
S214003FD0054A1370054A137010BD00BF9C190020D7
S214003FE0A9190020AA190020A7190020A819002046
S214003FF07047000073B5114E04463378834212D0E2
S21400400000238DF8043080B102238DF8053001A816
S214004010FEF7D0F80A4D402054B1FFF7A9FE2B68F2
S214004020181A2860347002B070BD8DF80500EEE7EF
S214004030FFF79EFE2B681844F3E700BFA00B002096
S214004040CC19002073B5002401A88DF80440FEF7B3
S2140040506BF920464FF40024FFF7CCFF3149324B72
S2140040600A6F02F007021A60D1F82031D1F8240155
S21400407001F580514C664FF400344C6601F59831DA
S2140040808969032A00F0070001F0020141D003F01D
S21400409003039C1E63426341022808BF43F00103EA
S2140040A02248234D037061B31E4A3BB9D2F8003153
S2140040B003F00303591E4B424B410370D2F8003104
S2140040C003F00303022B26D0032B27D0012B18D195
S2140040D0FCF77EFEA8B1174B411EDC6800230246A3
S2140040E008461946C4F30B04134E013404EB84044B
S2140040F0E4FB06011AF078FDFFF73AFE2B68184439
S21400410028606420FFF734FE2B681844286002B04D
S21400411070BD0123C0E7FCF77DFEDBE7FCF76EFE13
S214004120D8E700BF00800050C4190020CA1900203C
S214004130CC19002000C0015040420F00FEF78CB89A
S214004140074B1A7852B100221A70064A136F23F0F2
S214004150070343F001031367FCF724BE704700BF54
S214004160C8190020008000500E4B10B51B7883B194
S214004170022000F0EDFB60B100F054FA48B10A4BA3
S2140041809A6DD20306D5DB6D9B0703D50122074B3C
S2140041909A6210BD0124064B1C70FEF727FF034BE6
S2140041A09C62F6E7CA19002000C0005000D00050FC
S2140041B0C91900200122014B1A707047C819002047
S2140041C038B50C4B1B786BB10B4C23787BB90B4B7B
S2140041D00B4D9A6D12F4803F05D0DB6D9B0702D520
S2140041E00123AB6238BDFEF701FF0123AB6200235B
S2140041F02370F7E7CA190020C919002000C0005034
S21400420000D00050034B1B780BB1FEF759BF0120BE
S214004210704700BFCA19002008B5FEF71FF8094A04
S2140042200949136F096823F007030B431367074B0D
S2140042301B7813B10122064B9A62BDE80840FCF7D2
S214004240B1BD00BF00800050C4190020CA1900206C
S21400425000E0005002280AD003280BD001280CD119
S214004260064A136923F00403136130BF7047002029
S214004270FDF7AEBF0020FDF7CFBF704700ED00E0B2
S2140042804FF4C870FFF774BD08B5054B187818B121
S214004290FEF7F2FE00EBD000024B1B68184408BD88
S2140042A0CA190020CC1900200122014B1A70704751
S2140042B0CA1900207047000010B500F0E3FA0A4C57
S2140042C00A4B19682368C31A01B10BB9206010BDE8
S2140042D04A699A423ABF9B1A0022D21A4A6128BFFC
S2140042E000238968F0E700BFD4190020E8190020F1
S2140042F0C38870B504460D463BB9FFF701FD8542FD
S214004300064602D2FFF716FD35460F4965610B6873
S214004310ABB90C60A36011E0AD1A9A6818466561E7
S2140043202AB113465A69AA42F6D950B11A4613461C
S2140043308460A36013B15969491B596170BD0020A0
S214004340F0E70C60F5E700BFE819002038B5134D1C
S2140043502B685B6993B1124A022014681C4400F073
S214004360CBFA204600F096FA00230E492A680B7016
S214004370D088800709D501230B7038BD022000F0D5
S214004380BBFA022000F0DCFAEEE79268002AF4D0CE
S21400439050690344012BEBD9EFE700BFE819002072
S2140043A0D4190020DC19002070B516469DF814209C
S2140043B0C0E903360271049ABDF818300260002284
S2140043C0C380826004460D4600F05CFA3044A0616B
S2140043D03DB9E368656113B120462168984796B1F8
S2140043E03546FDF773FE0646FFF766FF294620466C
S2140043F0FFF77EFF054B1B68A34201D1FFF7A6FF20
S2140044003046FDF767FE002070BD00BFE8190020AB
S21400441000220C490B687BB183420AD183687AB1CB
S214004420936083681BB15A6941690A445A61002047
S21400443070471A469B68EEE70028EFD002207047C8
S2140044400B60EEE7E819002070B5FDF746FE144E47
S21400445005463478FCB9134B1C60134B1C60134B99
S2140044601C8000F0CDF9012000F046FA00F09AFA20
S2140044700F4B0246186020B92846FDF734FE23206D
S21400448070BD234640F2E7310A481AF0ADFB0A4BEE
S2140044901860012333702846FDF725FE0020EFE75D
S2140044A0D0190020E8190020D4190020DE190020B9
S2140044B0E419002018FCFFFFD81900202DE9F04170
S2140044C00546F8B1FDF702FE0F4F0646FFF7F4FE6D
S2140044D02846D7F80080FFF79BFF044628B13046F1
S2140044E0FDF7F8FD2046BDE8F081A8453B6803D1FE
S2140044F023B1FFF72BFFF2E7002BF0D1022000F0EC
S21400450007FAECE72224EDE7E819002070B586B03C
S21400451015461E460446059180B1FFF7CFFFBDF84D
S2140045202C30002202939DF828302046CDE9006307
S21400453005992B46FFF738FF06B070BD2220FBE733
S21400454038B50C46054698B191B100230B70FDF7BF
S214004550C4FD0121074B1B680BB122781AB1FDF789
S214004560C2FD002038BDAB4214BF9B682170F3E744
S2140045702220F7E7E8190020F0B51F46002387B091
S2140045800D46164604468DF81730A0B10DF11701FA
S214004590FFF7D6FF9DF817207AB9BDF834302946C4
S2140045A002939DF830302046CDE900733346FFF77E
S2140045B0FBFE07B0F0BD2220FBE70320F9E7000072
S2140045C02DE9F04107468846FDF787FD002605469B
S2140045D0124B1C6824B92846FDF785FD1B2016E003
S2140045E063691E44E388BB4215D100F04BF90C4CBE
S2140045F02368C01AB0420CD200F044F92268324454
S214004600121A2846C8F80020FDF76DFD0020BDE808
S214004610F0810022F5E7A468DCE700BFE819002077
S214004620D4190020014B1878704700BFDC19002011
S21400463038B5FDF752FD054600F024F90446284635
S214004640FDF751FD204638BD014B1868704700BF86
S214004650E41900200C4B70B51B680D46834211D33D
S21400466040F2E73100248C462146084B4FF47A721C
S2140046701E680023E0FB06C160461AF0B5FA286003
S214004680204670BD2120FCE7D8190020E419002040
S2140046900F4B10B51A689AB14FF47A71531E134235
S2140046A0A0FB01010ED1B2FA82F2C2F11F04531C24
S2140046B0D243E04001FA03F3184321FA02F2024320
S2140046C0104610BD00231AF08FFA0246F8E700BF26
S2140046D0E4190020C2072DE9F34704460BD53F4AEC
S2140046E0138801339BB21380FFF7E6FD3C4B1B6833
S2140046F00BB1FFF72BFEA3076DD5FDF7EEFC0026EA
S21400470005463746FFF7D8FDB146DFF8D480D8F81F
S21400471000400CB163698BB10022324B012F1A7036
S21400472002D1022E08BF1F70002C44D0FFF70EFEE9
S214004730284602B0BDE8F047FDF7D5BC23461A79F7
S2140047402179914288BF1C469B6813B15A69002A9A
S214004750F5D02846FDF7C7FC256985B300F092F82A
S214004760A269861AF317B54279EB030328DA2369A0
S2140047701344A3610123226982B17BB9A91B01916D
S214004780FDF7ABFC824601992046FFF7B1FDA36911
S214004790226950461344A361FDF7A5FCE368E6884A
S2140047A0013713B1204621689847FDF796FC054669
S2140047B0FFF782FDABE7022000F0AAF8B8E72E4626
S2140047C0FDF78BFC82462046FFF722FE5046FDF79B
S2140047D08AFC0023CFE702B0BDE8F087DE19002090
S2140047E0E8190020E019002010B5FDF776FC034B11
S2140047F01C78FDF778FC204610BD00BFE0190020AD
S2140048001FB500241C4B012118689A880290D3F823
S21400481006009B7A00903E20ADF80C208DF8043000
S214004820FCF76CFF02A88DF808408DF80C40FEF7E8
S214004830DBF8694601208DF80040FEF799F84FF046
S214004840B04240F2FF31936923F47F7323F00303F1
S21400485093610A4B5961936A13F00803FBD1136204
S2140048600120FEF79FF84FF48052054BC3F88021D5
S2140048701A6004B010BD00BF4406020000200058B5
S21400488000E100E04FF0B0439A6A1207FCD4186AC1
S2140048907047000010B50446FDF718FC4FF0B04214
S2140048A0936A1907FCD4136A116C5269520604D431
S2140048B0CA1A032A01D899420ED1E21A022A98BFD0
S2140048C0DC1CB4F1FF3F38BF013C4FF0B0431C6422
S2140048D09A6942F040029A61FDF7FCFB054A13789C
S2140048E03BB14FF0B041CB6B43F00203CB630023E8
S2140048F0137010BDA10B002082074FF0B04200F0ED
S2140049000103916948BF43F040030B43936170472E
S214004910820700F001030AD50121084A43F040034C
S21400492011704FF0B041CA6B22F00302CA634FF019
S214004930B0418A6922EA03038B617047A10B00200D
S214004940830742BF4022014B5A617047001000584F
S2140049504FF0B04301285B6904D0022805D1C3F3A9
S2140049608010704703F00100704700207047000079
S21400497010B5FDF7B2FB4FF0B04304465B695A062C
S214004980074A03F0010003F0510348BF40F002005D
S2140049905361FFF79FFE2046BDE81040FDF7A3BB1E
S2140049A0002000583E20FCF7CBBE08B5FBF7E6FF1C
S2140049B0FCF71CF8FCF725F8FCF738F8BDE80840CB
S2140049C0FCF73DB808B5FCF73CF8FCF73BF8FCF7FD
S2140049D03AF8BDE80840FCF738B8000010B50446C1
S2140049E0FCF7E0F90C4BA0F57A729A4212D84FF415
S2140049F07A73B0FBF3F05C43084BB3FBF0F0B4FB08
S214004A00F0F0022806D9BDE810400323B0FBF3F00F
S214004A1000F006B810BD00BFFFC99A3B40420F0029
S214004A20013800D0FCE7704708B503F06DF806F0D3
S214004A30DCF807F0D4F8002008BD0000024A03495D
S214004A40034802F035BD00BF500602009006020083
S214004A506806020038B50446FDF738FB05462046D2
S214004A601AF092FA04462846FDF734FB204638BD75
S214004A7037B504460191FDF729FB01990546204606
S214004A801AF042FA04462846FDF724FB204603B0F7
S214004A9030BD38B50546FDF719FB044628461AF022
S214004AA07BFA2046BDE83840FDF714BB0A4619B12C
S214004AB0024B00211B681847704700BFA40B00205C
S214004AC000F4E040B0F5805F04D0A0F500535842F3
S214004AD058417047012070470E4B0340B3F1607F8A
S214004AE006D1B1F5885F14BF6FF0860000207047CE
S214004AF0B3F1707F0BD101F4E043B3F5005F06D14C
S214004B0011F4E06F0CBF6FF08600002070476FF066
S214004B10860070470000C07F8A42F8B507460D46FB
S214004B2000F021819B4822F0FF01814210D09A4C70
S214004B3022F4FF7323F00103A34209D0974B994256
S214004B4006D0974922F47F7323F003038B4223D1C8
S214004B5025F0FF01814210D08F4825F4FF7323F023
S214004B600103834209D08D4B994206D08C4925F427
S214004B707F7323F003038B420ED115F0FF030BD097
S214004B80884943F000738B4206D16A4032F0FF0337
S214004B900CBF01200020F8BD05F0FE43B3F1A06F66
S214004BA017D102F0FE43B3F1A06F40F0DE8082EA38
S214004BB0050333F47E1340F0D88015F40040EAD0A5
S214004BC0C5F30540C2F3054290428CBF0020012089
S214004BD0E1E7B3F1407F40F0B38002F0FE43B3F16B
S214004BE0407F40F0C28082EA050333F47E1640F030
S214004BF0BC8039462846FFF76FFF002840F0B58096
S214004C00694C12F47C1C04EA020438D0B4F1607FCC
S214004C10C2F3054C7AD16549D3B243F000738B4298
S214004C2078D003F17E410439012975D960498B4259
S214004C3076D001318B4275D001318B4274D0013170
S214004C408B426BD001318B426AD001318B4269D0E6
S214004C5003318B4264D001318B4263D001318B42E9
S214004C6062D001318B4208BF402615F47C1FC5F385
S214004C7005435BD1664514BF002001208BE7B4F1E5
S214004C80607F2BD14949D3B243F000738B426ED07C
S214004C9003F17E41043901296CD945498B426FD016
S214004CA001318B426FD001318B426FD001318B4284
S214004CB063D001318B4263D001318B4263D0033124
S214004CC08B425DD001318B425DD001318B425DD08D
S214004CD001318B4208BF4FF0400C9CE7B4F1707F67
S214004CE0C3D107F4E043B3F5005F05D14FF0010CE4
S214004CF0C7F302230CFA03FC07F4E043B3F5005FA6
S214004D00B3D10126C7F302239E40AEE7B4F1707F0D
S214004D10ABD1F1E71026A8E71426A6E74026A4E7BD
S214004D201C26A2E72026A0E730269EE712F47C1F6A
S214004D3001D1B34217D02A047FF52DAF634544E76F
S214004D40B3F1106F11D125F01F6323F4702363B9FC
S214004D5002F0FE43B3F1106F07D11648104040F042
S214004D601060A84287E7012015E7002013E74FF000
S214004D70100C50E74FF0140C4DE74FF0400C4AE78C
S214004D804FF01C0C47E74FF0200C44E74FF0300C78
S214004D9041E700BF001300060002000600090006F7
S214004DA000040006FF0000020000C07F03000002AF
S214004DB0080000020000FFF62DE9F8438846174673
S214004DC01C4600F013FD0546002859D1D8F80060AF
S214004DD0B6F8009009F4E043B3F5804FF36808BFD7
S214004DE027F0010737EA030342D1002C48D02F4AA8
S214004DF024F0FF03934211D02D4924F4FF7222F0D1
S214004E0001028A420AD02B4A934207D024F47F72CA
S214004E1022F0030201F500718A4234D114F0FF0239
S214004E2031D022498B4211D0214824F4FF7121F061
S214004E30010181420AD01F498B4207D024F47F73B8
S214004E4023F00303A1F5A0618B4204D142F0007366
S214004E50194A93421ED0224648463169FFF75CFE47
S214004E60074668B9224648467169FFF755FED0B92D
S214004E706FF0840500233046C8F8003000F004FDCB
S214004E802846BDE8F88304F0FE43B3F1407F04D122
S214004E902304E0D56FF08605ECE7B3F1A06FF7D0FA
S214004EA0054B9C42D6E73D46EAE700BF00130006E6
S214004EB00002000600090006FF00000238B503796C
S214004EC004460D4633B9A36820462B6000F0DCFC90
S214004ED038B938BDD0E9081200F09AFD0028F2D0A3
S214004EE0F7E700232B60F4E700F0FE43B3F1407FC2
S214004EF070B505460E4640F09980FFF7EDFD002898
S214004F0040F0968015F47C1F05D0C5F30543032BAF
S214004F1013700DD86BE04C4B2B40B3F1607F69D11A
S214004F204A49EBB243F000738B4231D11023137021
S214004F30454C2C40B4F1607F6AD14449EAB242F055
S214004F4000728A4275D002F17E410439012972D975
S214004F503F498A4271D001318A4270D001318A427B
S214004F606FD001318A4211D001318A4265D00131B9
S214004F708A4264D003318A425FD001318A425ED0D1
S214004F8001318A425DD001318A424FD140214BE047
S214004F9003F17E410439012901D81423C7E72C49BF
S214004FA08B4201D11C23C2E72A498B4201D1202320
S214004FB0BDE729498B4201D13023B8E727498B4208
S214004FC001D14023B3E726498B42EBD001318B4217
S214004FD0EDD003318B42E5D001318B42E7D0013171
S214004FE08B42E9D001318B42EBD0002313706FF077
S214004FF085001DE0B3F1707FF7D101F4E043B3F50F
S214005000005FF2D10123C1F302218B40DBB27EE7C1
S214005010B4F1707F0AD106F4E042B2F5005F05D124
S2140050200121C6F3022291408B4201D96FF086001F
S21400503070BD1021F8E71421F6E71C21F4E72021C3
S214005040F2E73021F0E700BF0000C07F0300000257
S21400505008000002090000020A0000020B0000021D
S2140050600C00000200232DE9F341D0E90168044654
S2140050700F4630461146136000F010FC054688B90E
S214005080304600F00DFC054660B9F6B276B9B8F1C8
S214005090000F05D1E36823F47F4323F0030363B1D5
S2140050A06FF08605284602B0BDE8F0810146A0688C
S2140050B000F0F1FA0028EDD1F2E74FF6F8736288B7
S2140050C09A421CD8238B23F00103002BE8D13946E3
S2140050D001A800F049FB05460028E3D10FCC3F6845
S2140050E03E460FC694E807003B7986E807000BB9F2
S2140050F0019BBB603B8B23F001033B83D2E76FF041
S2140051008505CFE7B0F5105F0DD009D8B0F5885FFC
S21400511010D0B0F5905F0DD041F20103984209D04F
S2140051206FF08500704721F04003802B02D0B1F568
S214005130807F06D111F0070F14BF6FF086000020A5
S21400514070476FF08600704770B5046A05460E46D5
S2140051503CB90120FFF78CFC286228B120466E621D
S21400516070BD6FF08A00FBE76FF08C00F8E773B550
S2140051700E46114605460192FFF7E6FF044620B9A3
S2140051803146019A286A19F01FFF204602B070BD0A
S2140051902DE9F041089D88461F46048802B3204644
S2140051A0FFF78EFCE0B12B680BB9D3002B602046CE
S2140051B02968FFF7A7FF044678B9CE1DB2EBD60FD5
S2140051C011D1069B9A4211D84146384619F0FCFE8A
S2140051D02B68079A0733DB0813602046BDE8F0818A
S2140051E06FF08504F9E76FF08604F6E76FF0890440
S2140051F0F3E710B50446006A10B1616AFFF756FC83
S214005200206AFFF746FC0020C4E9080010BD38B548
S2140052100446FFF7EEFFE3692822012B0CBF054684
S2140052206FF096050021204619F0F5FE284638BD99
S21400523013B5044660B101A900F0D8FA044638B99F
S2140052400198C369012B06D900F01EFB6FF083049A
S214005250204602B010BD0379FF2B0BD01BB180682F
S21400526000F030FB04460198FFF7D1FF002818BF76
S2140052700446EDE76FF08404F5E72DE9F0411F469C
S214005280002388B0054688461646CDE904330792C3
S2140052903B60002A5FD0B2F1005F5FD205AA04A986
S2140052A0FFF7E0FE0446A0B9049B1B6ABBB1049B53
S2140052B041465A882846069206AA029203F124021C
S2140052C001925A6A00921B6A324600F077F9044649
S2140052D0D0B10498002832D0FFF799FF2FE06B6812
S2140052E01B0A07D107990498FFF72EFF04460028EB
S2140052F0DDD0EEE732464146284607AB00F059F9C6
S21400530004460028EED0E4E70498069B4288D2B90B
S21400531043804FF6F87293421AD82B8813B102884E
S2140053209A4212D12B6A83B96B8813B142889A428B
S2140053300BD13946FFF7C2FD04460028C9D12046E6
S21400534008B0BDE8F0819A42E3D06FF08604C0E76B
S2140053506FF08504BDE76FF08604F0E76FF0850414
S214005360EDE7036810B5044653B100F08BF900234F
S2140053702360A38823F4FF7323F00103A38010BDEA
S2140053801846FCE72DE9F04105460C4600218CB096
S214005390174603A824229846029119F03CFE2B6873
S2140053A0002B3DD1B8F1000F20463B4614BF4FF40A
S2140053B080624FF4006202A9FFF7FEFC044600BBC1
S2140053C0029E03AC0FCE0FC496E8070084E80700E1
S2140053D03846BDF80C102A1DFFF786FD044680B936
S2140053E06B79284668F300036B71029B03A9D3E927
S2140053F008230097B8F1000F0FD000F006F9044616
S21400540010B12846FFF7ADFF029800F03DFA002CD9
S21400541018BF20460CB0BDE8F08100F009F9EEE7B1
S2140054206FF08804EDE70123FFF7ACBF38B50368DB
S214005430054614464BB132B100F00DF9044610B1E2
S2140054402846FFF78EFF204638BD6FF08804FAE73F
S2140054502DE9F0411646026805460F469846F2B119
S2140054604279D2071BD50279CAB1B2421AD800F0E7
S214005470FBF8044618B10023C8F800602B712879A1
S214005480B04204D2321A2121384419F0C4FD28460D
S214005490FFF767FF002C18BF2046BDE8F0816FF0CD
S2140054A08804E8E76FF08904E5E7000037B50C4D9F
S2140054B00C462B78DB070FD500230A4601930146DE
S2140054C001AB281D01F068FF20B9019BA34218BF5D
S2140054D06FF0930003B030BD6FF08800FAE700BFAE
S2140054E0EC19002008B500F029F9084B0C211A78B1
S2140054F0064812F0060F1CBF0022C3E90122FFF780
S214005500D5FABDE8084000F053B800BFEC190020FB
S21400551038B50F4D2B7813F0010213D1C5E90122DF
S214005520022262F342032B7000F0FCF8044658B9DE
S21400553000F03CF8044638B92B7843F001032B7092
S214005540204638BD0024FBE7FFF7CCFFF8E700BF96
S214005550EC19002010B50446C069FFF79AFA2046F9
S214005560BDE810402422002119F055BD2DE9F04178
S21400557005460F4690461C469BB119460120FFF78C
S21400558077FA064678B12246414619F01DFDE869CD
S21400559008B1FFF77EFA0020C5E907642F80BDE852
S2140055A0F0811E46F3E76FF08C00F8E701F0F2BEDC
S2140055B0704700226FF086001A6070472DE9F04FA2
S2140055C0456885B02D0A0446DDE90E7A89461646FA
S2140055D09846DDF840B013D1CDE901AB009701F055
S2140055E001FD10F1860F0DD143463246494620464E
S2140055F0CDE90FAB0E9705B0BDE8F04FFFF7C8BD7D
S2140056006FF0860005B0BDE8F08F13B50446486815
S214005610000A0AD10498009004F1080001F0CEFDBB
S21400562008B90623236002B010BD6FF08600FAE7C3
S21400563013B504464868000A0AD10498009004F19D
S214005640080001F0EDFD08B90623236002B010BD86
S2140056506FF08600FAE70368062B02D1083001F0E7
S214005660E1BD6FF08600704710B40468062C04D1C4
S2140056705DF8044B083001F025BE6FF086005DF83B
S214005680044B70470368062B02D1083001F06EBE4B
S2140056906FF0860070476FF04043421E9A4208D370
S2140056A029B100F1404098428CBF002101210846F4
S2140056B070470121FBE7000000F100420732062A8E
S2140056C038B504460D4609D82821154B01FB023390
S2140056D09A6882420FD06FF08B0038BD0121FFF729
S2140056E0DAFFB0B10E48002203468168A1420AD113
S2140056F0282101FB0233DA69511C0DD00132DA6130
S21400570000202B60E9E70132072A00F12800ECD1DF
S214005710E1E76FF08700E0E76FF09600DDE700BF97
S214005720F8190020044A002092F8183143F00103CB
S21400573082F81831704700BFF8190020F8B5094CF8
S2140057400725264601272046E761FFF760FD013D55
S21400575004F12804F7D196F8183165F3000386F8AB
S2140057601831F8BDF8190020F8B51E4C064694F816
S21400577018310F46D8072ED5002523462946188807
S2140057801A46A8B12DB91A791AB1DA69002A08BFE3
S2140057901D460131072903F12803F0D115B96FF032
S2140057A08C001AE001232846EB61FFF730FD2A46FD
S2140057B0D369591C02D16FF096000EE00020013329
S2140057C0D361141B084BE4105C4304F10044073C0F
S2140057D034603A60F8BD6FF0880000233B603360A9
S2140057E0F8E700BFF8190020CDCCCCCC0023F0B5EC
S2140057F00B60244B074693F818310D46DC0785B03E
S2140058003CD5FFF759FF10F18C0F044625D12946E9
S21400581001A8FFF7A9FF0446F8B901232E68CDE9D1
S2140058200200B7603046736003AA02A900F049F987
S214005830044628B9DDE902123046FFF798FC044614
S214005840DDE9020100F033F954B12868FFF7DFFC08
S21400585014F18C0F08BF6FF08704204605B0F0BD2A
S2140058602B68DA68D00444BF42F48062DA60DA68F3
S2140058709104F2D542F40062DA60EEE76FF0880435
S214005880EBE700BFF819002038B1C3691BB1013B34
S214005890C361002070476FF0960070470020704785
S2140058A0C0B2FF280CBF6FF086000020704707B517
S2140058B000216A4601F008FB8C3018BF012003B0B7
