:10000000C00A0020651100006311000063110000A8
:10001000513F0000631100006311000063110000F4
:100020006311000063110000631100006311000000
:100030006311000063110000C50D00006311000092
:1000400063110000631100006311000063110000E0
:1000500063110000631100006311000063110000D0
:1000600063110000631100006311000063110000C0
:10007000354E00006311000063110000D50F000031
:10008000E10F000063110000631100006311000024
:100090006311000063110000631100006311000090
:1000A000631100003D1700001917000063110000E4
:1000B0006311000009E5010063110000F5EE010085
:1000C000ADEE0100A9EE0100E5E60100F1EE010050
:1000D000B1EE0100C9EE0100B5EE010055EF0100DF
:1000E0006DC7010035C9010035EF01006311000043
:1000F000D935000063110000631100006311000096
:10010000631100006311000063110000631100001F
:10011000631100006311000063110000631100000F
:1001200063110000631100006311000063110000FF
:1001300063110000631100006311000063110000EF
:1001400010B5054C237833B9044B13B1044800E0D3
:1001500000BF0123237010BDE80E00200000000046
:100160005056020008B5034B1BB10349034800E099
:1001700000BF08BD00000000EC0E00205056020039
:10018000A3F5803A704700BF174B002B08BF134BF5
:100190009D46FFF7F5FF00218B460F461348144A92
:1001A000121A1FF0A0F90E4B002B00D098470D4BF0
:1001B000002B00D098470020002104000D000D48BE
:1001C000002802D00C4800E000BF1FF021F92000F9
:1001D000290000F03DFD1FF007F900BF00000800F6
:1001E0000000000000000000C00A0020E80E00200F
:1001F00040290020000000000000000000F088BE40
:1002000038B5154B1A7832B300221A7000F054FC3E
:100210000446D8B1012000F02DFFE0B10F4D104988
:10022000286803F020FA00F045FF00F044FF234661
:100230000C490D4A286803F016FA204600F062FFC8
:1002400028680A49BDE8384003F00DBA00F09AFC6E
:1002500004460028DED138BD040F0020C40F002062
:1002600030060200380602003506020013070200BD
:1002700070B50368AF4A23F47F4323F0070393422A
:1002800088B000F047820AD8A2F5102293424AD0E3
:1002900002F5A022934200F0BD8108B070BDA64ACD
:1002A000934200F0C98102F101729342F5D1B0F896
:1002B0000530172BF1D103890320DB0740F157826A
:1002C00000F0D8FE60B19D4C9D49206803F0CBF949
:1002D00000F0F0FE00F0EFFE9A49206803F0C3F949
:1002E00000F050FC04460028D7D0012000F0C2FEE8
:1002F0000028D2D0914D9449286803F0B4F900F059
:10030000D9FE00F0D8FE91492346914A286803F0AF
:10031000AAF9204600F0F6FE8E49286808B0BDE82C
:10032000704003F0A0B90DF10F0104A812F080FC99
:10033000044630B3814D8849286803F094F9874911
:10034000286803F090F900F0B5FE00F0B4FE844B8D
:10035000844A009384496423286803F084F923467F
:100360007B4A7A49286803F07EF9204600F0CAFEED
:100370007E49286803F077F97749286803F073F914
:10038000FEE79DF8153001468DF818309DF81430C1
:1003900008228DF819309DF8133012208DF81A308C
:1003A000FF238DF81B30FE238DF81C309DF8123092
:1003B0008DF81D309DF811308DF81E309DF81030ED
:1003C0008DF81F3006AB12F007FC054630B35B4CCE
:1003D0006149206803F047F96049206803F043F958
:1003E00000F068FE00F067FE5D4B5E4A00935E49D8
:1003F0007423206803F037F92B46554A5349206887
:1004000003F031F9284600F07DFE5849206803F0DA
:100410002AF95149206803F026F9FEE7544E304688
:1004200012F046FB054630B3444C4B49206803F0BC
:100430001AF94A49206803F016F900F03BFE00F073
:100440003AFE474B474A009347497823206803F018
:100450000AF92B463E4A3D49206803F004F9284634
:1004600000F050FE4149206803F0FDF83A49206849
:1004700003F0F9F8FEE70221307812F053FB04464E
:1004800030B32E4D3449286803F0EDF8334928681D
:1004900003F0E9F800F00EFE00F00DFE304B314A9B
:1004A000009331497D23286803F0DDF82346284A6C
:1004B0002649286803F0D7F8204600F023FE2B4990
:1004C000286803F0D0F82449286803F0CCF8FEE748
:1004D000A022034600901146307812F001FB054639
:1004E000002847D0154C1C49206803F0BCF81B4974
:1004F000206803F0B8F800F0DDFD00F0DCFD184BDB
:10050000184A009318498623206803F0ACF82B465C
:100510000F4A0E49206803F0A6F8284600F0F2FDC5
:100520001249206803F09FF80B49206803F09BF8FC
:10053000FEE700BFA0000A00A0000601C40F0020D3
:1005400078060200C60602003006020038060200E5
:100550003506020013070200120702004D060200D2
:10056000F4060200520602005B0602006706020063
:10057000C00A00200221307812F0E8FA054630B3B4
:10058000864C8749206803F06EF88649206803F09E
:100590006AF800F08FFD00F08EFD834B834A0093D4
:1005A00083498B23206803F05EF82B46814A8249F9
:1005B000206803F058F8284600F0A4FD7F49206821
:1005C00003F051F87649206803F04DF8FEE700F09B
:1005D00073FA0446002800F0DA80012000F04AFD9A
:1005E00000283FF45AAE6D4D7549286803F03BF87A
:1005F00000F060FD00F05FFD23466E4A6E492868FA
:1006000003F031F8204600F07DFD6E49286803F0C4
:100610002AF842E6032000F02DFD00283FF43DAE0D
:100620005E4C6949206803F01EF800F043FD00F0BD
:1006300042FD6649206871E6032000F01BFD60B1B1
:10064000564C6149206803F00EF800F033FD00F0CD
:1006500032FD5F49206803F006F85E4C02212078E5
:1006600012F060FA054630B34C4C4D49206802F058
:10067000FAFF4C49206802F0F6FF00F01BFD00F085
:100680001AFD494B494A00934949A623206802F0C4
:10069000EAFF2B46474A4849206802F0E4FF284613
:1006A00000F030FD4549206802F0DDFF3C4920683C
:1006B00002F0D9FFFEE70221207812F047FA054642
:1006C00000283FF4EAAD354C3549206802F0CBFFF5
:1006D0003449206802F0C7FF00F0ECFC00F0EBFCAE
:1006E000314B324A00933249AB23206802F0BBFF02
:1006F0002B46304A3049206802F0B5FF284600F00A
:1007000001FD2E49206802F0AEFF2549206802F065
:10071000AAFFFEE7B0F8050015287FF4BEAD04ABD4
:1007200000930122002106AB12F024FA04460028AF
:100730007FF453AF9DF81030012B15D0012000F04D
:1007400099FC00283FF4A9AD144C1D49206802F023
:100750008AFF00F0AFFC00F0AEFC9DF810201E49AF
:10076000206802F080FF98E51C4A137095E500F0C0
:1007700081FC00283FF491AD084C1349206802F039
:1007800072FF00F097FC00F096FC154952E700F06C
:10079000F9F9044600283FF480AD1EE7C40F00209D
:1007A000120702004D060200F40602005206020083
:1007B0005B060200350602003806020067060200EA
:1007C0003006020013070200780602007D060200D0
:1007D00091060200C00A0020A5060200040F0020B6
:1007E000DC0602002022F8B5154B164C1A70164A8A
:1007F000164FC4E90023012321463846238100F027
:10080000ABFE134E134D3070134804F049FB022326
:100810002146384663802381656000F09DFE30707C
:1008200000F048FC00F047FC0C486B782A780C4933
:10083000006802F018FF288840BA80B2F8BD00BFF7
:10084000050F0020080F0020460001000000015A9B
:100850001E0F00201C0F0020C0D40100C40F002078
:100860000307020037B5FFF7BDFF0222ADF806000F
:10087000002117200DF1060312F0AEF9044690B9DD
:10088000032000F0F7FB70B1084D0949286802F019
:10089000EAFE00F00FFC00F00EFCBDF80620054952
:1008A000286802F0E0FE204603B030BDC40F0020EF
:1008B000780602001407020037B500F0D5F90122CE
:1008C0008DF8070000211A200DF1070312F084F9BA
:1008D000044690B9032000F0CDFB70B1084D0949E2
:1008E000286802F0C0FE00F0E5FB00F0E4FB9DF894
:1008F00007200549286802F0B6FE204603B030BD47
:10090000C40F0020780602003D07020037B500F052
:10091000D1F90222ADF80600002120200DF10603D6
:1009200012F05AF9044690B9032000F0A3FB70B10D
:10093000084D0949286802F096FE00F0BBFB00F064
:10094000BAFBBDF806200549286802F08CFE204657
:1009500003B030BDC40F0020780602006607020015
:1009600037B500F0EBF90222ADF8060000211D209A
:100970000DF1060312F030F9044690B9032000F09F
:1009800079FB70B1084D0949286802F06CFE00F04F
:1009900091FB00F090FBBDF806200549286802F0A5
:1009A00062FE204603B030BDC40F0020780602006E
:1009B000930702001FB50023042200930021172093
:1009C00003AB12F0D7F8044668B9002204211720BF
:1009D00012F018F9044630B900231A88034B044971
:1009E000186802F040FE204604B010BDC40F00207D
:1009F000BB0702001FB50023042200930021202022
:100A000003AB12F0B7F8044668B900220421202095
:100A100012F0F8F8044630B900231A88034B044951
:100A2000186802F020FE204604B010BDC40F00205C
:100A3000DC0702001FB500230422009300211D20C3
:100A400003AB12F097F8044668B9002204211D2078
:100A500012F0D8F8044630B900231A88034B044931
:100A6000186802F000FE204604B010BDC40F00203C
:100A70000108020030B585B00DF10B0501220021FF
:100A80001A20009503AB12F075F8044668B92A469F
:100A900001211A2012F0B6F8044630B9044B9DF833
:100AA0000B200449186802F0DEFD204605B030BD79
:100AB000C40F00202008020038B5FFF7D3FE04461B
:100AC00000284DD0294D00F0F5FA00F0F4FA28493D
:100AD000286802F0C8FD2146286802F0C4FD002401
:100AE000244804F0DDF9FFF711FF054668B11F4CFB
:100AF00000F0E0FA00F0DFFA1F49206802F0B3FDD1
:100B00002068294602F0AFFD00241A4804F0C8F915
:100B1000FFF7D2FE054668B1144C00F0CBFA00F0A6
:100B2000CAFA1649206802F09EFD2068294602F0A4
:100B30009AFD00240F4804F0B3F9FFF711FF0546B2
:100B400080B10A4C00F0B6FA00F0B5FA0C49206802
:100B500002F089FD2946206802F085FD012038BD9C
:100B60000124BDE784F00100F9E700BFC40F0020B5
:100B7000410802008096980072080200A70802004F
:100B8000D808020038B5FFF715FF044600284DD0FD
:100B9000294D00F08FFA00F08EFA2849286802F0FB
:100BA00062FD2146286802F05EFD0024244804F01E
:100BB00077F9FFF71FFF054668B11F4C00F07AFA7E
:100BC00000F079FA1F49206802F04DFD206829469F
:100BD00002F049FD00241A4804F062F9FFF74AFFC9
:100BE000054668B1144C00F065FA00F064FA164945
:100BF000206802F038FD2068294602F034FD002408
:100C00000F4804F04DF9FFF715FF054680B10A4C77
:100C100000F050FA00F04FFA0C49206802F023FD72
:100C20002946206802F01FFD012038BD0124BDE7E0
:100C300084F00100F9E700BFC40F0020070902009B
:100C4000809698003E09020079090200B00902006E
:100C500008B504F00CF9FFF7D1FA04F015F9FFF725
:100C6000CFFA03F0F7FAF8E770B50D4B0D4C0E4DC7
:100C70006360012323810D4B21462846236000F049
:100C80006BFC02230A4E214628466380238166605E
:100C900000F062FC2146284600F05EFC307870BD12
:100CA000C10A0020200F00200000015A900001001E
:100CB0001C0F0020E52270B5174B184C1848236014
:100CC000184B21461A7063600123238100F044FC15
:100CD000154E307058B100F0EDF900F0ECF9134901
:100CE000134B186802F0BFFC4FF6FF7070BD022373
:100CF000104D21460A4863806560238100F02CFC7A
:100D0000307028B100F0D6F900F0D5F90A49E7E7CC
:100D1000288840BA80B2E9E780000100200F002057
:100D20000000015A050F00201E0F0020E5090200F7
:100D3000C40F00201C0F0020FD090200E32270B543
:100D4000174B184C18482360184B21461A706360E3
:100D50000123238100F000FC154E307058B100F0E3
:100D6000A9F900F0A8F91349134B186802F07BFCAD
:100D70004FF6FF7070BD0223104D21460A48638074
:100D80006560238100F0E8FB307028B100F092F933
:100D900000F091F90A49E7E7288840BA80B2E9E70C
:100DA00080000100200F00200000015A050F0020E4
:100DB0001E0F0020E5090200C40F00201C0F0020B8
:100DC000FD09020006F0EEBF04F0A0B80120704754
:100DD00000B5C3B006F008FF06F031FF48B1FFF7D9
:100DE000F5FF30B101A811F05DFE10B901A8FFF7C1
:100DF0003FFA43B05DF804FB704708B5032180203B
:100E000001F038FA03214FF4806001F033FA032136
:100E10004FF4906001F02EFA08214FF4C06001F009
:100E200029FA08214FF4F06001F024FA08213E204D
:100E300001F020FA08212D2001F01CFA002008BD45
:100E400008B5174B1B68C3F30743012B0ED1154B95
:100E500004205A6E4FF480231349520358BF134A9B
:100E60004B6601F51041086258BF536602F0D4FA90
:100E700000F073F902F05CFA02F0ECFA02F07AFA90
:100E800002F0AEFA02F0B2FAFFF7B7FF02F060FA32
:100E900000F05AF900F064FCBDE8084003F0EAB83D
:100EA0000080E00F008000500090005000A0005033
:100EB00008B500F0DBFB00F02BF800F0CFF8BDE840
:100EC000084000F0D1B808B500F03CF903F01EFD71
:100ED00002F0C2FA02F010FC05F0B4FD02F086FF49
:100EE00004F07EFD05F0B4FFBDE8084000F064B8F2
:100EF00008B502F0F5F902F003FABDE80840FFF783
:100F000063BF00F0D9B870477047FFF761BF704703
:100F100008B53A20012100F053FEBDE80840014821
:100F200000F0A2BA340B002070B5124E92B03546D4
:100F30000BAC0FCD0FC495E80700032384E807002E
:100F400006F11C0506AC8DF845300FCD0FC42B689B
:100F5000236002AC06F130030FCB84E80F00064B90
:100F6000214600930BAA06AB044802F03FFE12B0E4
:100F700070BD00BFDC0C0200340F0020A00F002069
:100F8000831E012B0AD8012908D80422094B1B69AA
:100F9000C3F340130521002001F016BD02390129D9
:100FA00007D8012805D8034B00221B69C3F340135F
:100FB000F0E7704700C0035008B50449044803F047
:100FC00027F9BDE80840FFF7AFBF00BF480B00207E
:100FD000780F0020014B186802F0CCBEA00F002053
:100FE000FFF7F8BF014B1A6A18681047A00F0020DE
:100FF000012070470120704710B506F061FE0446DD
:10100000FFF7F6FF002814BF2046002010BD38B5BA
:1010100003F022FA044606F061FE042817D00228E5
:101020004FF0000508BF0124FFF7DCFF042810D0B3
:10103000022808BF0124FFF7DDFF04280BD0022897
:1010400008BF0124002D18BF0024204638BD01250B
:10105000EAE70125EFE70024F7E70000014800F088
:1010600059B900BF1C0D0200014800F085BA00BF4D
:10107000340D02000B4B02461B788BB10A4B1B78D8
:10108000834234BF00200120084B1B783BB1084B42
:101090001B7843FA02F212F0010F08BF00207047DC
:1010A0000120F1E75B0B00205C0B0020C80F002043
:1010B0005D0B002070477047012208B5074B1A707E
:1010C0000022074B1A700422064B1A701F22064B8F
:1010D0001A7002F08FFA054B186008BD5B0B0020F8
:1010E000C80F00205C0B00205D0B0020C40F002007
:1010F000024B0349186802F0B6BA00BFC40F0020C3
:101100004C0D020070B50C4C0C490646206802F0EC
:10111000AAFA02F06FFA0546206802F05FFA30463C
:10112000FFF7E6FF284602F059FA20680449BDE8B7
:10113000704002F098BA00BFC40F00204E0D0200AC
:10114000500D02000F20704708B501213A2000F031
:1011500037FDBDE80840FFF74FBE01213A2000F0FF
:101160002FBDFEE708B500F02DF8124B12498B4257
:1011700012D30020114B12498B4218D3FFF704F809
:10118000186850F82240586840F8224001329868A8
:101190008242F5D30C33EAE70022F8E71C6844F8F2
:1011A000220001325C68A242F8D30833E4E700224F
:1011B000F8E700BF58560200645602006456020069
:1011C000645602004FF400414FF0FF30124B134AB7
:1011D00010B59A60D3F8882042F47002C3F88820D2
:1011E0000F4A916601F1884101F5005210664FF6F1
:1011F000DF7050660220C3F8D000BFF34F8FBFF3FB
:101200006F8F08244FF440330648C0F88041D36004
:1012100004600B6110BD00BF00ED00E000000000A5
:101220000090005000E100E0014B1868704700BFDB
:10123000640B0020084B1B6F03F00703022B04D044
:10124000032B05D0012B05D0FEE7044B186870472F
:10125000034BFBE70348704700800050640B0020FD
:10126000680B0020002D310108B5FFF7E3FF054BA7
:101270001B6FC3F303330133B0FBF3F0024B186071
:1012800008BD00BF00800050600B00200048704780
:1012900000B4C404014B1868704700BF680B0020FD
:1012A000054B1860054B1B6F03F00703032B01D19F
:1012B000FFF7DABF704700BF680B002000800050C6
:1012C0000020704700487047002D31014FF4004066
:1012D00070474FF47A707047014B1868704700BF31
:1012E0006C0B002000230360704703680B600160F3
:1012F0007047000005490A681318054883428CBFEF
:101300004FF0FF320B601046704700BF700B00209B
:1013100000800020436803B11847222070477047BF
:1013200010B40A681378022B14D0142030231479D7
:1013300013FB040303F1A04303F570331B685079DA
:10134000C340DB4303F00103137008465DF8044B10
:10135000FFF7E5BF5DF8044B7047000037B5046840
:10136000012105463A2000F02BFC0023012261797F
:10137000207901F029FB14223023217913FB01236A
:1013800003F1A04303F570331B686279D340DB435C
:1013900003F001032370A379022B0ED100F066F94C
:1013A0002A460749607900F08BF9012302466179EA
:1013B0002079CDE9003301F0AFFA002003B030BD51
:1013C0002113000003681878704702681378022B15
:1013D00027D014213023107913FB001303F1A0430D
:1013E00003F5703351791B68CB40917903F0010309
:1013F000012912D1508843EA40034FF6E07063F0B0
:101400003F039BB2834202D11170538070474FF665
:10141000DF718B42F9D10021F6E711B983F00103A6
:101420001370704703681A78022A03D100225A8089
:10143000FFF794BF704713B504682378022B10D0D0
:10144000A379022B0BD10021607900F027F900234A
:10145000627920791146CDE9003301F05DFA02236B
:10146000237002B010BD00002DE9FF410368374A28
:101470000446934204D0364A934251D12F2000E0D3
:101480002E20012100F09CFB01230A2261792079A2
:1014900001F09AFA01230A22E179A07901F094FA85
:1014A000092601272B4D4FF0300842F21003227914
:1014B000617908FB025207FA01F1D150642003F070
:1014C000EFFC41F210012379627908FB035307FA1C
:1014D00002F264205A5003F0E3FC013EE3D120689D
:1014E0001A4B98421FD10323C5F8903462792379AF
:1014F00043EA0243C5F89434E279A37943EA02430C
:10150000C5F8983440F20113ADF80030E36869463D
:101510000293A3680193237C8DF80C3001F0DEFA6E
:1015200004B0BDE8F0810A4B9842EBD10323C5F823
:10153000A0346279237943EA0243C5F8A434E279FE
:10154000A37943EA0243C5F8A834DBE70000015A57
:101550000080065000C0035038B5054601F0FCFB82
:10156000044C012801D1013C00D138BD284601F0CE
:10157000D7FAF6E7E1930400D0E90003184710B565
:10158000044601213A2000F01BFBA3782078B3FA2F
:1015900083F3042261785B0901F016FA002010BD84
:1015A00010B5012243780178847830209A40054BA9
:1015B00000FB01331CB942F210015A5010BD41F238
:1015C0001001FAE700C0035010B5012243780178FA
:1015D000847830209A40054B00FB01331CB941F25E
:1015E00010015A5010BD42F21001FAE700C003503A
:1015F0000122417803788A4030214B4343F21001A5
:1016000003F1A04303F570335A5070473023102183
:101610000246007813FB001303F1A04303F5703377
:1016200050781B68C34003F0010093780BB980F039
:101630000100704770B5044601250B4E04B970BD1A
:1016400094FAA4F0B0FA80F005FA00F306EB001269
:1016500024EA03045368002BF0D0117B11B1916888
:101660009847EBE79847E9E7CC0F002008B5192029
:1016700000F09EFF28B14FF00072074BC3F88021A5
:101680001A601A2000F094FF28B14FF08062024BDC
:10169000C3F880211A6008BD00E100E038B50546B6
:1016A0000C4600F07CFF0022044B03EB05135C604A
:1016B0001A73BDE8384000F078BF00BFCC0F00209F
:1016C000F8B505460F46164600F069FF104B05F0C9
:1016D000FC02D3F824140023EC1804F00304144390
:1016E00021FA04FC1CF0010F07D00133042BF3D1C5
:1016F000FF2400F05AFF2046F8BDFF2CF9D001224C
:10170000044B03EB0413C3E901761A73F1E700BF3E
:1017100000C00350CC0F0020074BD3F82404D3F8AB
:10172000202403F50053104000F0553020F05020E5
:10173000C3F82004FFF77EBF00C00350074BD3F867
:101740002404D3F8202403F50053104000F0AA30FD
:1017500020F0A020C3F82004FFF76CBF00C00350A6
:10176000024B1968024B186815F0CCBE780B0020AC
:10177000740B00207047000037B5920004460D46F8
:1017800001921EF045FF431C0BD060B9294620464C
:10179000019A1DF071FE0028044808BF002003B024
:1017A00030BD0348FBE70348F9E700BF10E000F055
:1017B00021E000F024E000F013B5044601A801F098
:1017C000A3FB9DF80630012223804FF48073002094
:1017D0006380054B9B680A3303F01F0302FA03F38F
:1017E000636002B010BD00BF0080E00F01F008BBD5
:1017F00008B501F0F5FA002008BD10B5044644EA2A
:10180000010313F00303084609D1934201D10020DC
:1018100010BD54F8231040F823100133F5E721469A
:1018200092001DF039FEF2E710B504461EF0F8FEF6
:10183000431C15D0B0B90C4B20469B680A3303F00B
:101840001F020123934023F003032344984201D154
:10185000002010BD50F8042B0132F7D00348F8E700
:101860000348F6E70348F4E70080E00F0EE000F0DD
:1018700021E000F024E000F008B500F089FE014B03
:10188000186008BD60180020014B186800F084BE85
:10189000601800200A460139014402F003BB000031
:1018A000044BD3F88420D206FBD4D3F88400C0F3D1
:1018B000811070470040005038B5104B0546D3F8F2
:1018C00020310C4603F00303022B0BD0032B0DD069
:1018D000012B0FD1FFF7A8FC052305B1286004B147
:1018E000236038BDFFF7D6FC0323F6E7FFF7EAFCD9
:1018F0000223F2E700231846EFE700BF0080005004
:1019000073B50D4600210E4B0191D3F88041064678
:1019100004F00304012C09D0022C0CD00C460EB1AB
:10192000019B336005B12C6002B070BD01A8FFF7C8
:10193000C3FF0F24F3E7FFF7C5FC0190EFE700BFFB
:101940000080005038B5174B0546D3F824310C46BB
:1019500003F00703013B052B20D8DFE803F0030F5A
:10196000171B0B13FFF760FC052305B1286004B1BA
:10197000236038BDFFF758FC0623F6E7FFF78AFC23
:101980000323F2E7FFF786FC0423EEE7FFF79AFC58
:101990000223EAE7FFF794FC0723E6E70023184653
:1019A000E3E700BF0080005038B5104B0546D3F880
:1019B00040310C4603F00303022B0BD0032B0DD058
:1019C000012B0FD1FFF782FC092305B1286004B178
:1019D000236038BDFFF780FC0823F6E7FFF779FCAA
:1019E0000B23F2E700231846EFE700BF008000500A
:1019F00038B5134B0546D3F800320C4603F0070305
:101A0000013B032B18D8DFE803F0020A0E12FFF7A0
:101A10005DFC092305B1286004B1236038BDFFF7E0
:101A20005BFC0823F6E7FFF754FC0B23F2E7FFF714
:101A30001BFC0E23800AEDE700231846EAE700BFEF
:101A40000080005038B5104B0546D3F840320C46A4
:101A500003F00303022B0BD0032B0DD0012B0FD16E
:101A6000FFF734FC092305B1286004B1236038BDB9
:101A7000FFF732FC0823F6E7FFF72BFC0B23F2E716
:101A800000231846EFE700BF0080005038B5104B28
:101A90000546D3F860310C4603F00303022B0BD04C
:101AA000032B0DD0012B0FD1FFF710FC092305B13B
:101AB000286004B1236038BDFFF70EFC0823F6E769
:101AC000FFF707FC0B23F2E700231846EFE700BF00
:101AD0000080005010B40D4C0B46D4F8204204F0A6
:101AE0000304012C0AD0022C0CD008B100210160A3
:101AF0000BB100221A605DF8044B70475DF8044B8F
:101B0000FFF7DABE5DF8044BFFF74EBF00800050D0
:101B1000B0F5207F1FD009D8B0F5007F15D003D8CD
:101B200068B1B0F5C07F0AD000200CE0B0F5607F4E
:101B3000FAD10B4BD3F88000C0F3011003E0084B3F
:101B4000186FC0F3033001307047054BD3F8900095
:101B5000C0F30460F7E7024B186FC0F38020F2E790
:101B6000008000504FF400320E4B014610B50020AB
:101B70009A66FFF7CDFF41F6713248430A490B4B95
:101B800088428CBF4FF480100020DC69DA639A68C9
:101B900022F4401202439A60E20344BF0022DA6357
:101BA00010BD00BF00900050005A620200000350B8
:101BB00008B5FFF76BFBBDE808400021FFF7D2BF77
:101BC000420910B510D0012A10D00B4B0B4C022A41
:101BD00018BF234600F01F0051B103F580530122C6
:101BE00002FA00F0186010BD1346F3E7044BF1E76A
:101BF00003F50053F3E700BF688000506082005097
:101C0000648000501FB5002380280446019371D0E2
:101C10002AD8002872D0A0F12004412C32D8412CBF
:101C200030D8DFE804F06B6E6B6E7D7D7D7D6E6E6F
:101C3000873C9D623C6E6E6E2F2F2F2F2F2F82546C
:101C40006E6E6EA7A26E2F2F2F2F2F2F2F2F2F2FBD
:101C50002F2F2F6B2F6B6B6B7D2F2F2F2F2F2F2F56
:101C60002F2F2F2F2F2F6B6BB0F5806F58D021D8CF
:101C7000B0F5007F4FD008D8B0F5807F5FD0B0F5C9
:101C8000C07F3BD0019804B010BDB0F5607F42D05A
:101C9000F8D8B0F5207F34D0B0F5407FF2D1FFF70F
:101CA000E3FA02464FF42070FFF732FFB2FBF0F088
:101CB000400821E0B0F5C06F52D00DD8B0F5A06F4C
:101CC00033D0B0F5B06F35D0B0F5906FDAD10021D8
:101CD00001A8FFF737FED5E7B0F5E06F45D0B0F5C6
:101CE000F06F47D0B0F5D06FCCD1002101A8FFF73D
:101CF0007FFEC7E7FFF79EFA0190C3E7FFF7B4FA4C
:101D0000FAE7FFF7B1FA02464FF42070FFF700FF41
:101D1000B2FBF0F0F0E7FFF78DFA02462046F5E758
:101D2000002101A8FFF7C8FDACE7002101A8FFF7DB
:101D3000D1FEA7E7002101A8FFF7E2FDA2E7029389
:101D40004FF0E0231B695B0705D5FFF78DFA029082
:101D5000029B019396E703A902A8FFF725FEF7E788
:101D6000002101A8FFF720FE8CE7002101A8FFF762
:101D700069FE87E7002101A8FFF788FE82E70000DF
:101D800008B58020FFF73EFF034B98429EBF4FF4FB
:101D90008032024B1A6708BD005A620200A0005050
:101DA0001FB50023B0F5807F019377D028D838285D
:101DB00000F094800BD82438092810D809280ED8B0
:101DC000DFE800F0676767670D0D620D377D522809
:101DD0005FD008D83D283BD03E2800F08480019891
:101DE00005B05DF804FB8028F9D1414B1B6F03F06F
:101DF0000703013B032BF2D8DFE803F044413F6CBB
:101E0000B0F5D06F5BD019D8B0F5A06F66D00AD806
:101E1000B0F5806F3DD0B0F5906FE0D1002001A902
:101E2000FFF790FDDBE7B0F5B06F2DD0B0F5C06FD8
:101E3000D5D1002001A9FFF7B7FDD0E7B0F5006FBD
:101E4000ECD00AD8B0F5E06F4DD0B0F5F06FC6D148
:101E5000002001A9FFF71AFEC1E7B0F5086FBED157
:101E6000234BD3F8003103F00303022B2CD0032BB8
:101E70002ED0012B30D1FFF70DFA032300E005230C
:101E80000193ACE70223FBE7002001A9FFF738FD2F
:101E9000A5E7002001A9FFF70FFDA0E702934FF08F
:101EA000E0231B695B0705D5FFF7DEF90C230393DD
:101EB000039BE5E703A902A8FFF776FDF8E70020FA
:101EC00001A9FFF795FD8AE7FFF706FA0823D7E790
:101ED000FFF7F6F90723D3E70123D1E7002001A993
:101EE000FFF7F8FD7BE7002001A9FFF7ABFD76E7E0
:101EF0000080005008B5FFF753FF082811D00938BB
:101F0000012811D84FF40012094B4FF6FF705A66A2
:101F100003F5D8335B6A13F0010F18BF4FF4FA7062
:101F200008BD044B1888FBE74FF6FF70F8E700BFC9
:101F300000900050980B002070B504468020FFF7F9
:101F40002FFF032800F082804FF40022444B02212F
:101F50005A6645F60E03434AC2F88030424B9962F6
:101F6000012103F580539962936DD903FCD4D4E920
:101F700000131B0543EA0163E17B94F822500B43F5
:101F8000217B94F8236043EA0143617B43EA0133F8
:101F9000A17B43EA811313619169D4E904031B0611
:101FA00043EA806301F000410B43A17EE07E0B43D6
:101FB000217E43EA0143617E43EA01239361E369A1
:101FC000126A002B0CBF0021082122F00D0242EA08
:101FD000030242EA8002234B42EA01021A6294F8A9
:101FE00020204FEA421232D1986A94F8211020F052
:101FF000330042EA0112024342F001029A621B4A94
:10200000996D32EA0101FBD1022217498A621A65F1
:102010009A6D5200FCD41869A26820F4700040EA5E
:1020200002504FF0004218610F4B9A611DB9022215
:1020300003F580539A6216B901220D4B9A6294F807
:1020400024301BB1074B0B4AC3F8802070BD996A3E
:1020500021F0330131430A4342EA4502EEE700BF73
:102060000090005000C0005000D00050030001401C
:1020700000E00050F1A7FFFF014B93F9000070470B
:1020800014190020F0B5D0E901434FF480061A4A34
:102090004178057856664FF4D156022702F5B832DA
:1020A0005662164E4F2977604FF0010728BF4F2127
:1020B00006F5805677601669F603FCD441EA0521DF
:1020C00051611B01417B43EA04230B43017B43EA3B
:1020D00041039360C37B817B1B0143EA4113417C35
:1020E0000B43017C43EA41035360837C13B16FF4DB
:1020F000D1535362F0BD00BF009000500010025059
:10210000014B1880704700BF980B00204FF400125D
:1021100008B5184B5A660223174A5360936813F4A4
:102120008033FBD1012822D1FFF7B4F8134B98423A
:1021300015D003F5122303F5F863984213D0104B22
:1021400000EB8002400AB3FBF0F0520A0A4BDA625D
:10215000012218635A620022074B5A6008BD45F6F7
:102160007A10084AF2E745F61A00074AEEE753628A
:10217000F1E700BF009000500040025000F049021B
:1021800064666666D8B80500BBCF05000029CCBFE1
:1021900001210021FFF7E6BCB0F5207F10B50C4609
:1021A00042D008D8B0F5007F33D003D888B1B0F55D
:1021B000C07F0ED010BDB0F5607FFBD11F4B013C3E
:1021C000D3F8801021F0300141EA0414C3F88040B4
:1021D000F0E7FFF7EDFC00F035F84FF48031184AD6
:1021E000164B1167196F013C21F4704141EA043428
:1021F0001C67FFF739F80446FFF752FBC0F10201F4
:102200002046FFF7C3FF00F023F8BDE81040FFF7BA
:10221000B7BD0A4B013CD3F8901021F0F85141EAC8
:102220000464C3F89040C5E7044B013C196F21F4E6
:10223000806141EA84241C67BCE700BF0080005035
:102240000090005002214FF42070FFF7A5BF00005E
:1022500008B54FF4C070FFF7D5FCBDE8084004494D
:1022600088428CBF022101214FF42070FFF794BFF8
:1022700080F0FA02B0F5807F70B50C4600F0F8806F
:1022800029D8382800F04B8110D82438092816D8CE
:10229000092814D8DFE810F0DC00DC00DC00DC00EA
:1022A00013001300CD00130047003301522800F043
:1022B000CF8005D83D2851D03E2800F0418170BD27
:1022C0008028FCD18B1E052B00F2B080DFE803F0E4
:1022D000AB99AE69AEA8B0F5D06F00F0108132D8DE
:1022E000B0F5A06F00F01B8116D8B0F5806F00F03C
:1022F000AF80B0F5906FE2D1023C052C8CBF00217D
:10230000974B984A98BF195DD2F8243123F0070300
:102310000B43C2F82431D2E7B0F5B06F00F08980EA
:10232000B0F5C06FCBD1083C032C8CBF00218E4B85
:102330008C4A98BF195DD2F8403123F003030B4358
:10234000C2F84031BBE7B0F5006FD5D016D8B0F574
:10235000E06F00F0F580B0F5F06FB0D1083C032CD1
:102360008CBF0021814B7F4A98BF195DD2F8603144
:1023700023F003030B43C2F86031A0E7B0F5086F08
:102380009DD1CC1E052C8CBF0021794B754A98BF7E
:10239000195DD2F8003123F003030B43C2F800317A
:1023A0008DE7002502260121022000F0C7F9FFF782
:1023B000FFFBFFF747FF4FF480316E4B694A196707
:1023C000136F23F0070333431367FEF74DFF0646F1
:1023D000FFF766FAC0F102013046FFF7D7FE012190
:1023E000002000F0EBF9FFF733FFFFF7C9FC002DE9
:1023F0007FF465AF032C7FF462AF01225E4B9A62DB
:102400005DE74FF400225B4B0E465A66012203F54E
:1024100040539D6A03F58053C5F340059A62C2E7B5
:1024200000250426BFE700250126BCE700252E462F
:10243000B9E7022C03D0A4F10F0044424441494BB8
:10244000D3F8801121F003010C43C3F8804136E733
:10245000023C032C8CBF0021484B424A98BF195DB7
:10246000D2F8203123F003030B43C2F8203126E7D2
:10247000A1F10804082C3FF622AF01A353F824F081
:10248000A5240000A5240000BF220000A524000010
:10249000D3240000BF220000BF220000BF220000A2
:1024A000A52400004FF480322E4B3549586E03F5B9
:1024B00080535A660B6A43F001030B62C1035CBF91
:1024C000304B5A664FF0E022136923F00403136186
:1024D000F5E64FF48032234B2949586E03F58053BB
:1024E0005A660B6A23F001030B62C3035CBF254BE2
:1024F0005A664FF0E022136943F00403E7E7083C13
:10250000062C8CBF0021204B164A98BF195DD2F8CB
:10251000003223F007030B43C2F80032CFE60F2C42
:102520000CD0102C14BF002102210E4AD2F8203208
:1025300023F003030B43C2F82032C0E60121F4E785
:10254000083C032C8CBF0021104B064A98BF195D34
:10255000D2F8403223F003030B43C2F84032AEE618
:10256000800D0200008000507C0D02007C0D0200F6
:102570008D0D02000090005000E00050780D020028
:1025800000C0075000A00050860D02007C0D020024
:10259000EFF3108072B6704700B962B67047EFF380
:1025A0001180302383F31188704780F311887047BE
:1025B000054B420953F8223000F01F0023FA00F0C7
:1025C000C04300F00100704700E100E0194B10B576
:1025D0001B6873B3184A5268012A2AD0174A802010
:1025E000C2F80031FFF7DCFB05281FD14FF4C070A3
:1025F000FFF78EFA0128044604D102214FF4C0707F
:10260000FFF7CAFD07220E4B1A610122A3F5805382
:102610005A60094A1369DB07FCD5012C09D1214610
:10262000BDE810404FF4C070FFF7B6BD0122054B66
:102630005A6010BD1819002000C0015000800050E1
:1026400000E0015000D0015000224FF40031074B50
:102650001A60074A516602F598325268012A02BF91
:10266000044AD2F800211A60704700BF18190020F0
:102670000090005000800050044A4178536F23F4CA
:10268000407343EA01235367704700BF0040005086
:102690007047704710B5044608B1FFF7D5FF0E4AE2
:1026A000136943F00403136101F0ACFFFFF7F0FF7F
:1026B000FFF76EFF1DF0A4FFFFF76EFFFFF7E9FFC6
:1026C00001F0B4FF1CB1BDE81040FFF77FBFBDE8CB
:1026D0001040FEF7C9BD00BF00ED00E010B5044694
:1026E00008B1FFF7B1FF0C4A136943F0040313610B
:1026F00001F088FFFFF74CFF1DF082FFFFF74CFF52
:1027000001F094FF1CB1BDE81040FFF75FBFBDE8CA
:102710001040FEF7A9BD00BF00ED00E0FFF794BF39
:10272000FFF754BF034A0179D36E23F030030B4304
:10273000D36670470040005070470000F8B504466B
:102740001C4BD3F88420D106FBD4D3F88430C3F3D8
:1027500081139C422CD0FEF76DFD012C064602D160
:102760002146FFF713FDFFF713FF4FF00072124BE6
:1027700007465A662046FFF7DFFF4FF480630D4D92
:10278000621E93402B676B6E9A0103D4D5F8843098
:102790009B060AD53846FFF7FFFE022C08D13046CB
:1027A000BDE8F8400021FFF7F1BCD5F88430EAE736
:1027B000F8BD00BF004000500060005007B518B9D8
:1027C0000191FEF737FD0199064B1B7843B1064B8B
:1027D000984205D8012003B05DF804EBFFF7AEBFC7
:1027E0000220F8E71C190020005A62020278034B0D
:1027F000012100201A70FFF7E1BF00BF1C19002063
:102800004FF0004210B501244AF6CD31154B5A66FF
:10281000154A03F50B2354605A6C1964224088B999
:10282000996811F0010F114903D08C60D86AC00774
:10283000FCD501234B6012B10D4B0E4A1A6415F002
:102840008BFF10BDD96A0907FCD42021074B5962C0
:102850000121A3F58053996005494B6A9B06FCD57D
:10286000E9E700BF00900050005009500060095097
:10287000004009503254FFFF4FF0004238B5194B69
:10288000194C5A66012203F50C235A604AF6CD33DF
:10289000656C23644378154093401343134AD36314
:1028A000A368827823F0740343EA0213C278002AF3
:1028B00014BF042200221343A3600279837943EA00
:1028C000022323614279C37943EA022363610078DA
:1028D000FFF796FF0DB1064B236415F03DFF012075
:1028E00038BD00BF0090005000400950004000502B
:1028F0003254FFFF70B5054614460E46FFF748FEFA
:10290000296881EA040202EA06044C402C60BDE812
:102910007040FFF741BE0000072AF7B501F003063B
:1029200014461F464FF003012CD89500A94000FA29
:1029300005F21C480191FFF7DDFF01991A4806FADC
:1029400005F2FFF7D7FF194B19499DF82000002F1A
:1029500008BF1946012303FA04F40C60154B16490D
:10296000002808BF0B461C60144B9DF82400C3F8D8
:1029700020441031A3F6DC33002808BF0B461C604E
:1029800003B0F0BDA2F10805AD00A94000FA05F2C0
:102990000B480191FFF7AEFF01990A4806FA05F2CC
:1029A000CFE700BF00C4035008C4035010E4035035
:1029B00010D4035014D4035014E4035000E0035027
:1029C00004C403500CC40350F8B504460D461F461A
:1029D00016464AB101238B403021194A01FB0022DF
:1029E000FFB141F21001535004EB4403072D4FF0A7
:1029F0000F014FEA031317D8A80006FA00F281402E
:102A000010481844FFF776FF56B9012130230C48CF
:102A100001FA05F503FB040077B141F21003C5503C
:102A2000F8BD42F21001DEE7A5F10800800006FAC9
:102A300000F281400448E4E742F21003EFE700BFF0
:102A400000C0035004C003500CC00350F8B5054645
:102A50000E4614465AB3826803F0030722F440720C
:102A60008260FFF795FDAA6882EA072303F44073AA
:102A70005340AB60FFF790FD36B9104B9D4217D124
:102A80002E20FFF7BFF80646AB680D4BD85D6043BC
:102A90000DD06FEAC4040444A319B3FBF0F3AA6891
:102AA000013B920702D5002B08BF0123AB61F8BDA3
:102AB000044B9D42E8D12F20E3E700BF0000015AFC
:102AC000930D020000800650043021B100F58050C3
:102AD00001230360704700F50050F9E738B5002383
:102AE0000E4A036400F50053DA634A7804460D4643
:102AF00000F108037AB903F5805302221A602046D8
:102B0000D5E901122B7BFFF7A1FF20462978BDE80C
:102B10003840FFF7D9BF03F50053EEE7FFFF1F0072
:102B2000884B2DE9F043984222D0874B984240F0E1
:102B30000581864B402505264FF000084FF0030C19
:102B4000996800F50054C26B12F4C06F16D0970557
:102B500010D5FD225A7009221A700022026493F9DE
:102B60000110012900D15A7093F90100BDE8F083EA
:102B7000774BDFE75605EED5FE22EBE71F78082FEF
:102B800000F2D880DFE817F009001F0041004C0078
:102B90006900740096009E00CD004C880A88E50606
:102BA0000AD5120A02F0060242F0F0020121197061
:102BB0004263C1600120D9E702F0FE02A10748BFCD
:102BC00042F00102F2E7170607D5802100F5005216
:102BD000D1634FF608721A8062E05206EAD54A883D
:102BE000E563D70604D502221A700B784363E1E748
:102BF000920765D507221A701B7901EBC3010B8977
:102C0000012BD7D10823C360D4E71706DDD45206C1
:102C1000D0D54A88E563970752D583F800C092E77C
:102C20004C880A88E50643BF120A02F0060242F009
:102C3000F00202F0FE02640709D51C7942F001029D
:102C400001EBC4010989012904BF0821C1600421E5
:102C500019700123C3604263ACE71706B5D4570669
:102C6000A8D54A88E56352072AD507221A70A1E73A
:102C70001A795F8801EBC20EBEF80890B94511D8E9
:102C80000132D2B21A714F88A3F8028017F0040FF4
:102C9000C3D1FF0702D4012A7FF655AF08221A706C
:102CA0000223B0E7DEF80420791C5980D25D42632C
:102CB0000622DBE7170688D457067FF57BAFE5636E
:102CC0001E7040E794067FF575AF456A214C466952
:102CD0001A793440B4F5003F04BF466A4FF40056F9
:102CE00001EBC20100F500540A8908BFE663202603
:102CF000E6635C88A24281BF4968661C5E800D5510
:102D000059888A42CAD90424012AC46004D9013AE4
:102D1000914201D10822C2601A78092A3FF41DAFFE
:102D200048E7D2057FF546AF4FF4807100F50052B9
:102D3000D16310E74FF609321A800EE76FF00300F7
:102D400014E700BF0000015A008006502C19002033
:102D500020190020200002001C4B10B4984207D01C
:102D60001B4B98422ED06FF003005DF8044B704768
:102D7000184B0269D20744BF2022C2604A889407D8
:102D800002D50C89002CEED0520702D50A8A002AFF
:102D9000E9D04FF480721A60002299601A71C02342
:102DA000C3604369DB050FD4202200F50053DA63CA
:102DB000094A5DF8044BDA63036C43F4FC63036473
:102DC000FFF7AEBE054BD4E7436AEAE70000015ABD
:102DD0000080065020190020FFFF1F002C19002042
:102DE0004FF40032054B9A6641F6713203F51C33FD
:102DF000DA63012203F50053DA6070470090005057
:102E000041F671320121064BDA6303F50052D160BD
:102E10000022DA634FF40032A3F518339A66704744
:102E2000000003504FF0B0435A6812B19A6A002A6A
:102E3000FAD17047CB784A7810B55B010C7843EA39
:102E400082030A79234343EA02130C22424302F12C
:102E5000B0421363012C02BF8A78024B43F8202052
:102E600010BD00BFE880035008B54FF0B0435A686A
:102E700002B960B15B680BB1FFF7D4FF4FF0B0410E
:102E800030B10120074B5860FFF7CCFFC86008BD88
:102E9000FFF7C8FF0223CB60FFF7C4FF0122024BFC
:102EA0005A60F4E700100058002000584FF0B0437B
:102EB0005B6870B50BB1FFF7B5FF0121104B45788A
:102EC000596083780679002BC37814BF022400244C
:102ED000002B14BF042200224379DB0043EA0613CF
:102EE0002B43234313434FF0B0429360054B59608B
:102EF0000378002B14BF0B460223D36070BD00BFC4
:102F000000200058001000584FF48032064B5A66DB
:102F100003F5E6235B69C3F38512827003F03F0279
:102F20001B0B4270037070470090005070B505464F
:102F300016461C4621B94FF42070FEF763FE014689
:102F4000402C1BD003D8DCB1202C1BD070BD602CD2
:102F5000FCD1042303FB06F2560806EB4113B3FB36
:102F6000F2F3094A203B02EAC303AA6822F0600296
:102F7000AA60AA681443AC60EB61E7E70623E9E7BF
:102F80001023E7E70823E5E7F8FF7F00012200F5BB
:102F900080535A60CB43934003F00A03436141617D
:102FA00011B900F50050426070470000012200F5A1
:102FB000805310B55A6040F6AA6341F2050243619E
:102FC00000230E498360C365C26000F500520361AF
:102FD000C361C36491640A498365884202D0094C85
:102FE000A04207D18842036502D0064B984201D126
:102FF000002343650123536010BD00BFFFFF0100A4
:1030000000C005500000065070B50D46FFF7CEFF1A
:10301000012300F580567360AB7C04461BB18368C6
:1030200043F080438360EB7C5BB1354A2B7D944257
:1030300045D1A2F51032C2F88C31E36D43F0800324
:10304000E3652A8A6B7B20461343EA891343E360D6
:103050002B7BD5E90112FFF769FF6B7D1BB1A368DC
:1030600043F48033A360AB7D1BB1A36843F40043FA
:10307000A360EB7D2A7E1B07120502F4E00203F039
:10308000E0431343A365697E1D4A8B1E012B1D4B34
:103090001FD894421BD002F5804294420CBF0122FB
:1030A0004FF0FF3203EB4213022041F21C6203296E
:1030B000985020D10423F3652B78636170BD124AC8
:1030C000944204BFA2F52032C2F89C31B5E7002239
:1030D000E8E794420DD00C4A94420CBF01224FF015
:1030E000FF3203EB4213022042F21C620129985086
:1030F000DFE70022F5E7042204F50053DA65DBE799
:1031000000C0055000C003500000065083691B0634
:10311000FCD5406AC0B2704783695B06FCD5C163C9
:103120007047000038B50446054D15F03CFB0FCC48
:103130000FC594E8030085E80300002038BD00BFF8
:103140003819002047F6FF739A42F0B563D0022980
:1031500063D8334BCF0003EBC10013F831108478F0
:10316000012913D10025C3781B1B9D4202D3E0180F
:10317000C0B2F0BD591B4668A3EB510136F911608E
:103180009642D4BF0D4601F1FF33EEE740680028B8
:10319000EFD0B0F90010914204DBB0F90210914277
:1031A000B8BF114682883B44FF2A19BFC82228268F
:1031B000B0F90620B0F90860A2EB01020CBF0125AE
:1031C000002592FBF6F25F782A447B1E934228BFCB
:1031D00013464FF47A7E00EBC305AE68EA88AC462E
:1031E00011FB02621E4622EAE272013302F5FA7214
:1031F0009F42B2FBFEF204D9BCF80CC008359445DE
:10320000EBD200EBC6008088904228BF1046A04257
:1032100038BF2046ACE7FF20ABE70020A9E700BF9E
:10322000381900200229F0B553D82B4800EBC1040F
:1032300010F83110636801290FD1E078A47890422A
:1032400094BFC4EB0001C4EB0201001BCAB282426E
:10325000C8BF002233F91200F0BD002B39D0A1788D
:10326000914202D3B3F90200F6E7E178B3F9000026
:103270009142F1D999886478A1F1FF06013C71422D
:1032800003F10405E4B2714103F10C071FFA82FC5B
:10329000CEB2B44216D805EBC1014FF47A756A4339
:1032A000B1F902404968521A04EBD47102EB610291
:1032B00092FBF4F29042CFDBB3F902009042CBDCF8
:1032C00010B2C9E737F831E04E1CE645E3D331468A
:1032D000DEE70248C0E700BF381900200080FFFF8A
:1032E00008B50448FFF71EFFBDE80840012015F0AF
:1032F0005CBA00BF2C140200004870479A0B0020F3
:103300007FB50222084B0949CDE901234FF0007334
:10331000CDE90313052301A94FF0FF30059315F004
:10332000A9FA07B05DF804FB006A18000002040067
:1033300007B56B46054A1068516803C36846FFF736
:103340009BFA002003B05DF804FB00BF970D02005C
:1033500013B50024064A6846536F43F001035367D0
:1033600000948DF80440FFF7DDF9204602B010BD4F
:103370000040005030B58BB06C46154D0FCD0FC4DA
:103380000FCD0FC495E8030084E80300114BD3F878
:103390004C21120314D4D3F85041E4B28DF81940F3
:1033A000FEF76AFE204480F308008DF818000A48F2
:1033B000FDF776FF6846FEF7BFFD00200BB030BD7D
:1033C000064B1C884FF6FF739C4208BF8C24E5E730
:1033D000A00D02000080E00F00F049020001E00FA4
:1033E00008B50120FEF792FE002008BD30B5094D5A
:1033F00087B001AC0FCD0FC42B6801A8236019233F
:103400008DF80530FEF73EFE6420FEF779FE0020C1
:1034100007B030BDC80D02006FF00402502110B596
:103420000A480B4C12F0800FD3B21BBF03F00F03FE
:10343000043BA3181B1802F101020CBF83F8001310
:103440001976402AEED1002010BD00BF00ED00E04B
:1034500000E100E000F078B838B501F057FA044612
:10346000E0B901F053FB4FF4167343430C4803F5E6
:10347000742303F23F23B3FBF0F30A4A0A491360B3
:103480000A220D680948013A12F0FF0240F8043B95
:10349000F9D103EBC3022B4413440B60204638BD23
:1034A00040420F008C190020581900205C190020A0
:1034B000012208B5034B1A7001F01CFB024B186087
:1034C00008BD00BF5419002088190020F8B5144C1D
:1034D000237823B301F00EFB124B134D1B68134EE0
:1034E000C01A012838BF0120114B124F18602B78E9
:1034F00056F8232046F82300111A3A680E48521A4B
:103500000A213A600932B2FBF1F20133DBB2026008
:10351000B3FBF1F201FB12332B7000232370F8BDD3
:103520005419002088190020841900205C190020FB
:1035300050190020581900208C190020014B1868E0
:10354000704700BF8C19002020234FF400220A4945
:1035500081F82C33094B5A66094A03F5405303F5A9
:103560000050426702674FF48050C1F88401486000
:1035700003445A67704700BF00E100E0009000502C
:10358000010000A0044B9A6DD20702D40028FAD1A2
:1035900070470120704700BF00C000500C4B10B5B1
:1035A0001C6FE20707D5012203F500531A67FFF7E6
:1035B0008DFF00F061FF14F000521CBF054B1A672D
:1035C000002CBEBF4FF00042024B1A6710BD00BF77
:1035D00000C0005000E00050FFF7E0BF10B5044607
:1035E000FEF7D6FF024B1C60FEF7D6FF002010BD91
:1035F0009019002010B5FEF7CBFF034B1C68FEF7B7
:10360000CBFF204610BD00BF9019002007B530B990
:10361000CDE90012FFF7EEFFDDE9001230B143689B
:1036200023B1006803B05DF804EB1847232003B012
:103630005DF804FB30B51C4685B058B9CDE90012E1
:10364000FFF7D8FFDDE9001204B903AC20B923204D
:1036500005B030BD03B903AC8568002DF7D0234613
:103660000068A847F4E70EB477B507AB53F8046BCE
:1036700005460193B0B9FFF7BDFF04460546304645
:1036800001991CF003F9AC42064602D02046FFF730
:10369000A5FF002ED4BF3720002003B0BDE8704046
:1036A00003B07047FFF7A6FF85420446E7D02846DF
:1036B000FFF794FFE3E700207047FEE74FF4005365
:1036C00000204B607047012070470020704707B50D
:1036D000002001AB0190FFF7ADFF0198002808BF63
:1036E0004FF0FF3003B05DF804FB10B51446002026
:1036F000FFF78CFF204610BD034B02221868002301
:10370000806819461BF0FEBFA00C002090F82A30FC
:1037100001223BB190F82E30022B03D180F82E20ED
:10372000184670471346FBE780F82410704790F85E
:103730002400704790F82B0070470000002808DB39
:103740000123420900F01F0003FA00F0014B43F887
:103750002200704700E100E0002809DB0122430954
:1037600000F01F0002FA00F0024A603342F8230022
:10377000704700BF00E100E0F8B504460D4690F840
:103780002B3081B173B990F82C60FEF701FF05462C
:103790000121304600F09EFC2846FEF7FDFE012385
:1037A00084F82B30F8BD002BFCD090F82C70FEF77D
:1037B000EFFE06462946384600F08CFC3046FEF700
:1037C000EBFE84F82B50EDE770B504460568FFF773
:1037D00011FF844202D10020FFF700FF95F9280075
:1037E000FFF7BAFF95F92830002B0DDB01215A09AC
:1037F00003F01F0301FA03F31449203241F8223089
:10380000BFF34F8FBFF36F8F95F92900FFF7A4FF28
:1038100095F92930002B0DDB01215A0903F01F0314
:1038200001FA03F30949203241F82230BFF34F8FE8
:10383000BFF36F8F00232846C4E90033C4E9043383
:10384000A360EB68BDE87040184700BF00E100E0EE
:103850002DE9F047044616460D4690F82480FEF701
:103860009EFE94F82A2003469AB1FEF79EFE94F835
:103870002D90FEF78DFE07460121484600F02AFCF8
:103880003846FEF789FEFEF78AFE0022034684F8DA
:103890002A201846FEF789FE2E44B8F1000F23D1E6
:1038A000AE4205D1204663680121BDE8F0471847C4
:1038B00094F82630002BF3D02046236815F8011B1E
:1038C00098470028ECD0BDE8F08794F826305BB12B
:1038D0002B780A2B03D10D212046236898472046D8
:1038E000236815F8011B9847AE42EED1DAE72DE9BF
:1038F000F7434FF00009044690461E46C3F8009077
:103900004F1E3368434505D2FEF749FEA269C2B98E
:10391000FEF74BFE94F827305BB9112301222046B5
:103920000DF107018DF80730FFF792FF012384F8AE
:1039300027303368002B0CBF1B20002003B0BDE8EC
:10394000F083E16922698A5C07F8012F2569226A00
:103950000135954208BF4D46A2692561013AA26131
:10396000FEF723FEA368204698473368013333608F
:10397000C7E708B5FFF76CFF002008BDF8B51F4684
:10398000536806460C461546002B5BD09368002B07
:103990005AD03022002120461BF0A5FD6B682B4A2F
:1039A000E361AB68204623622B7B84F82430AB7B39
:1039B000276084F8253040F20113E384069B00273A
:1039C0006360079BA360089BE3602B7884F8283032
:1039D0006B7884F829301E4B346073601D4BB360E4
:1039E0001D4B33611D4B73611D4BF3601D4B3362E7
:1039F000012384F82E30B2611B4AF2619DF8282021
:103A000084F82D209DF8242084F82A3084F82C2076
:103A1000697B84F82B70FFF7AFFE95F90100FFF783
:103A20009BFE95F90100FFF789FE95F90000FFF76D
:103A300093FE95F90000FFF781FE3046FFF7CEFDBB
:103A40003846F8BD2220FCE72120FAE7793700004C
:103A500073390000EF380000293700002F370000CD
:103A6000C93700000D3700003537000010B5044697
:103A7000FEF795FDA269236A9A4203D2FEF795FDEF
:103A8000012010BDFEF791FD0020FAE737B504468E
:103A90000D4600E000BFFEF782FD94F82530024697
:103AA0006BB1132D07D1002384F8263003B0BDE895
:103AB0003040FEF77ABD112D01D10123F4E763698F
:103AC000E1691046CD54A16963690131A161216AA0
:103AD00001338B42636104BF00236361FEF765FD20
:103AE0000423A26984F82E30236A9A420BD113234F
:103AF000012220460DF107018DF80730FFF7A8FEDF
:103B0000002384F8273003B030BD90F82A3073B515
:103B1000044603F0FF01A3B94368019198470123CC
:103B200084F82A3094F82D60FEF732FD054601999D
:103B3000304600F0CFFA2846FEF72EFD022384F827
:103B40002E3002B070BD026BD36C43F00403D3641B
:103B5000704710B50446026B93695906FCD50023E3
:103B600094F839101A4694F83800FEF72DFF002318
:103B700094F83B101A4694F83A00FEF725FF94F8A3
:103B80004030DA0707D5002394F83D101A4694F820
:103B90003C00FEF719FF94F840309B0707D500233F
:103BA00094F83F101A4694F83E00FEF70DFF206B84
:103BB0000021FFF7EBF9606B0021FEF701F8002010
:103BC00010BD08B5006BFFF7A7FA002008BD036B16
:103BD000DA6C19B142F00102DA64704722F0010296
:103BE000DA64012203F500539A6470472DE9F0412D
:103BF00001271C46594B86B00293594B0C9D0193EB
:103C0000584B904600930A46CDE903772946564B18
:103C1000FFF7B4FE064600287AD1236839462B63A5
:103C200063683A206B63637A85F83930237A85F8C4
:103C30003830E37A85F83B30A37A85F83A30637BF5
:103C400085F83D30237B85F83C30E37B85F83F30B9
:103C5000A37B85F83E30FDF7B3FF3B460422617A33
:103C6000207AFEF7B1FE3B460222E17AA07AFEF707
:103C7000ABFE39466068FDF7A3FF88F80060414657
:103C80002068FFF7C1F91422237C5B0103F1A043F4
:103C900003F57033C3F81C26617A227A42EA0142A6
:103CA000C3F83426E17AA27A42EA0142C3F82C260C
:103CB00085F8406098F81930032B4CD8DFE803F002
:103CC0001A022C460123002785F8403000230222E7
:103CD000617B207BFEF778FE637B227B217C42EABE
:103CE0000342224B49015A500422236803F58053B2
:103CF000DA65A7B9237A052185F83830637A85F823
:103D000039302068C36C43F00403C364FFF73EF905
:103D1000304606B0BDE8F081022385F8403000232C
:103D20000422E17BA07BFEF74FFE022741F21C61DB
:103D3000227C0F4B03EB42104750E07BA17BB1325A
:103D400041EA004103EB42139960D3E703230127C3
:103D500085F84030BAE72326DAE700BF533B00007E
:103D6000473B0000CF3B0000C33B000024D603507C
:103D700000C00350036B10B59B690446190609D5B2
:103D8000FFF774FEB0B1206BFFF7C0F90146204683
:103D9000FFF77CFE236B9A6CD20711D5012103F546
:103DA000005291649B699B060AD52046BDE81040ED
:103DB000FFF7ABBE226BD36C23F00403D364E9E7B7
:103DC00010BD0000BFF35F8F074B5A6A22F48032A8
:103DD0005A62D3F8942022F00102C3F89420BFF372
:103DE0004F8FBFF36F8F704700ED00E070B526482E
:103DF000264CFFF7E7FF844208BF4FF08043244A78
:103E000018BF20F01F03D2F8C01018BF203B21F0CC
:103E1000FF0141F0A001B3F1005FC2F8C0100CD364
:103E20001C4D1D4E296843F00103C2F89810013162
:103E3000C2F89C60C2F8A0302960844210D01548B6
:103E4000164B0268124923F01F0343F00303C1F825
:103E50009820C1F89C30124B0132C1F8A0300260AA
:103E6000BFF35F8F05220A4BC3F894205A6A42F4CD
:103E700080325A62BFF34F8FBFF36F8FBFF34F8F04
:103E8000BFF36F8F70BD00BF080D0020E00E002053
:103E900000ED00E09419002003000020FF0E002038
:103EA000E1FFFF3F10B51446FFF78CFF1F2C24D90C
:103EB0001C4A1D4CD2F8C03023F47F4343F4807376
:103EC000C2F8C030C2061CBF20F01F002030CB0655
:103ED000144A236818BF21F01F0120F01F0021F0B1
:103EE0001F01C2F8983040F0030041F00301013394
:103EF000C2F89C00C2F8A0102360BFF35F8F0522B8
:103F0000084BC3F894205A6A42F480325A62BFF3D5
:103F10004F8FBFF36F8FBFF34F8FBFF36F8F0020B3
:103F200010BD00BF00ED00E094190020BFF34F8FDB
:103F30000549064BCA6802F4E0621343CB60BFF345
:103F40004F8F00BFFDE700BF00ED00E00400FA0561
:103F500008B5FFF7EBFF08BD034B1B78002B14BF20
:103F600001200220704700BFC81900200329F8B5BE
:103F700098BF124B05460E468CBF00245C5C03289C
:103F800005D8DFE800F002080B0E44F002040C4BE9
:103F90001F684FB9F8BD44F00804F8E744F0200466
:103FA000F5E744F08004F2E77B681A68144203D016
:103FB000314628465B6898473F68EAE7DC0D020017
:103FC000C419002038B5104D2B78ABB10F4C2378B5
:103FD0001BB100F057FB00232370002000F074FB9E
:103FE0000B4C50B100F07AFB0023012120782B709C
:103FF000FFF7BCFF0123237038BD0122054B1A7067
:104000002278054B1A70F7E7C2190020BD1900206D
:10401000B4190020C1190020D419002010B5FEF7F2
:10402000B7FA064B04461B781BB1BDE81040FEF7FB
:10403000B3BAFFF7C7FF2046F7E700BFBC1900205F
:10404000002814BF0121FF21074A13780B44137085
:1040500008D0064B1B78012B04D9054B1B780BB9F4
:10406000FFF7B0BF704700BFC8190020B419002087
:10407000C119002070B5FEF78BFA114E0546337852
:104080008BB900F043FC044620B12846FEF784FAC1
:10409000204670BD0B48FDF725F90B4B1C6000F066
:1040A00035FD0A4B186000F02FFA00F04BFB084B6F
:1040B00000241860012328463370FEF76DFAE7E705
:1040C000BE190020C4190020D8190020D0190020E2
:1040D000B819002000292DE9F34114BF0121FF2167
:1040E000254A00F1FF30135C0B4413543AD0234EA1
:1040F0003278012A36D9FFF72FFF0128044634D839
:104100001F4FFEF745FA3B781BB31E4D2B781BB9AA
:1041100001222A701C4A1370DFF8708098F8003072
:1041200033B1019000F0AEFA0023019888F8003016
:10413000FEF732FA012000F0C7FAFEF729FA2B78D1
:104140002BB1019000F0CAFA002301982B700023D4
:104150003B70FEF721FA3078A04203D02146FFF7EA
:1041600005FF347002B0BDE8F081032AF3D10228C4
:10417000F1D100F001FBEEE7C8190020B4190020CE
:10418000C2190020BC190020C1190020BD1900204F
:1041900010B50446FEF7FCF9002C14BF0121FF21E5
:1041A000064A13780B44DBB21370B3FA83F3BDE80D
:1041B0001040034A5B091370FEF7EEB9CB190020DB
:1041C000CA19002068B5FEF7E3F9094B06461B78CB
:1041D000012B04D8FEF7E0F90025284668BD054B01
:1041E0001D6800F0B3FA05443046FEF7D5F9F4E750
:1041F000B4190020D819002007B5FEF7C9F90190BD
:10420000FFF7E0FE019803B05DF804EBFEF7C4B9D8
:1042100038B541600446FEF7BBF90546214604481F
:10422000FDF763F82846BDE83840FEF7B5B900BF92
:10423000C4190020054B1B685843054B00F574203A
:1042400000F23F20B0FBF3F0704700BFD019002010
:1042500040420F002DE9FF47FEF79AF9044600E0BF
:1042600000BFFCF7C9FE002800F09C806D4E6E4F29
:10427000337823B10020FFF7E3FE00233370FFF70C
:104280006BFE0546002800F09580851EEDB2012DDD
:1042900040F29880FFF760FE0128804604D9634B06
:1042A0001B780BB900F0ACF9614DDFF8A4912878C8
:1042B000DFF8A0A140450AD0002389F800309AF821
:1042C000003013B94146FFF751FE85F8008099F898
:1042D00000303BB12B78022B04D1002389F8003049
:1042E00014F05EFFB8F1010F0FD9DFF8408198F8A4
:1042F000003053B94F4B1B7823B900F0BDF90122B0
:104300004D4B1A70012388F80030287800F004FA29
:104310009AF8003013B1494B1B782B7000E000BFB6
:104320002046FEF739F9FEF733F9454B04461A7873
:1043300052B100221A70414B28781B78984203D161
:1043400001212970FFF712FE384600F019FBFCF737
:104350005EFE804600288BD1344F89F800003B7800
:104360009BB1DFF8D4908AF8000099F800301BB1B7
:1043700000F088F989F80080002000F0A5F90028F5
:1043800046D000F0ABF900233B70337823B1002016
:10439000FFF756FE0023337000212878FFF7E6FD73
:1043A00000232B7000E000BF204604B0BDE8F047BA
:1043B000FEF7F2B83378002B3FF46CAFFFF740FE06
:1043C000357067E7002003A900F05CFB0546002874
:1043D0007FF460AF1B4B039A1B689A4205D80120FB
:1043E000FFF72EFE0123337054E7174BD3F80080FC
:1043F00000F0ACF9039940448842F0D20223091A34
:10440000CDE9005338462B46104A00F0E1FA41E767
:10441000012000F081F92046FEF7BEF8FEF7B8F85B
:104420000446A9E7CC19002098190020C2190020E1
:10443000B4190020CB190020BD190020D419002088
:10444000C0190020B8190020D81900201D40000014
:10445000CA190020C119002010B5FEF799F80022F2
:10446000044B1C781A70FEF797F800F01FFC2043ED
:10447000C0B210BDBF19002010B5094B1B786BB13D
:10448000084C237853B100F029F90023064A237021
:1044900013700123054A1370054A137010BD00BF45
:1044A000B4190020C1190020C2190020BF19002032
:1044B000C01900207047000073B5114E04463378D0
:1044C000834212D000238DF8043080B102238DF88E
:1044D000053001A8FEF7D0F80A4D402054B1FFF78F
:1044E000A9FE2B68181A2860347002B070BD8DF8D0
:1044F0000500EEE7FFF79EFE2B681844F3E700BFC8
:10450000A00B0020E419002073B5002401A88DF849
:104510000440FEF76BF920464FF40024FFF7CCFF70
:104520003149324B0A6F02F007021A60D1F820318C
:10453000D1F8240101F580514C664FF400344C66EB
:1045400001F598318969032A00F0070001F00201A2
:1045500041D003F003039C1E63426341022808BF5D
:1045600043F001032248234D037061B31E4A3BB957
:10457000D2F8003103F00303591E4B424B41037044
:10458000D2F8003103F00303022B26D0032B27D0EF
:10459000012B18D1FCF77EFEA8B1174B411EDC6839
:1045A0000023024608461946C4F30B04134E013497
:1045B00004EB8404E4FB06011AF07EFDFFF73AFEEB
:1045C0002B68184428606420FFF734FE2B681844D9
:1045D000286002B070BD0123C0E7FCF77DFEDBE779
:1045E000FCF76EFED8E700BF00800050DC19002009
:1045F000E2190020E419002000C0015040420F00E1
:10460000FEF78CB8074B1A7852B100221A70064A8E
:10461000136F23F0070343F001031367FCF724BE75
:10462000704700BFE0190020008000500E4B10B50D
:104630001B7883B1022000F0EDFB60B100F054FA6A
:1046400048B10A4B9A6DD20306D5DB6D9B0703D5A3
:104650000122074B9A6210BD0124064B1C70FEF725
:1046600027FF034B9C62F6E7E219002000C00050D0
:1046700000D00050E11900200122014B1A70704750
:10468000E019002038B50C4B1B786BB10B4C23782C
:104690007BB90B4B0B4D9A6D12F4803F05D0DB6D4F
:1046A0009B0702D50123AB6238BDFEF701FF012352
:1046B000AB6200232370F7E7E2190020E119002024
:1046C00000C0005000D00050034B1B780BB1FEF728
:1046D00059BF0120704700BFE219002008B5FEF75E
:1046E0001FF8094A0949136F096823F007030B43B0
:1046F0001367074B1B7813B10122064B9A62BDE882
:104700000840FCF7B1BD00BF00800050DC1900205C
:10471000E219002000E0005002280AD003280BD044
:1047200001280CD1064A136923F00403136130BF3A
:1047300070470020FDF7AEBF0020FDF7CFBF7047E8
:1047400000ED00E04FF4C870FFF774BD08B5054BED
:10475000187818B1FEF7F2FE00EBD000024B1B6890
:10476000184408BDE2190020E41900200122014B81
:104770001A707047E21900207047000010B500F071
:10478000E3FA0A4C0A4B19682368C31A01B10BB942
:10479000206010BD4A699A423ABF9B1A0022D21A81
:1047A0004A6128BF00238968F0E700BFEC190020A8
:1047B000001A0020C38870B504460D463BB9FFF7C8
:1047C00001FD8542064602D2FFF716FD35460F4928
:1047D00065610B68ABB90C60A36011E0AD1A9A6813
:1047E000184665612AB113465A69AA42F6D950B1F2
:1047F0001A4613468460A36013B15969491B596175
:1048000070BD0020F0E70C60F5E700BF001A002043
:1048100038B5134D2B685B6993B1124A02201468B6
:104820001C4400F0CBFA204600F096FA00230E4913
:104830002A680B70D088800709D501230B7038BD1A
:10484000022000F0BBFA022000F0DCFAEEE79268EA
:10485000002AF4D050690344012BEBD9EFE700BFE5
:10486000001A0020EC190020F419002070B516463B
:104870009DF81420C0E903360271049ABDF818307F
:1048800002600022C380826004460D4600F05CFA9C
:104890003044A0613DB9E368656113B120462168E9
:1048A000984796B13546FDF773FE0646FFF766FF5B
:1048B00029462046FFF77EFF054B1B68A34201D126
:1048C000FFF7A6FF3046FDF767FE002070BD00BF72
:1048D000001A002000220C490B687BB183420AD1E8
:1048E00083687AB1936083681BB15A6941690A444D
:1048F0005A61002070471A469B68EEE70028EFD007
:10490000022070470B60EEE7001A002070B5FDF73B
:1049100046FE144E05463478FCB9134B1C60134B0D
:104920001C60134B1C8000F0CDF9012000F046FA0A
:1049300000F09AFA0F4B0246186020B92846FDF79E
:1049400034FE232070BD234640F2E7310A481AF0B6
:10495000B3FB0A4B1860012333702846FDF725FE90
:104960000020EFE7E8190020001A0020EC190020D1
:10497000F6190020FC19002018FCFFFFF019002098
:104980002DE9F0410546F8B1FDF702FE0F4F06464E
:10499000FFF7F4FE2846D7F80080FFF79BFF044698
:1049A00028B13046FDF7F8FD2046BDE8F081A84566
:1049B0003B6803D123B1FFF72BFFF2E7002BF0D1C7
:1049C000022000F007FAECE72224EDE7001A0020AD
:1049D00070B586B015461E460446059180B1FFF7B6
:1049E000CFFFBDF82C30002202939DF828302046DE
:1049F000CDE9006305992B46FFF738FF06B070BD7F
:104A00002220FBE738B50C46054698B191B100234A
:104A10000B70FDF7C4FD0121074B1B680BB1227819
:104A20001AB1FDF7C2FD002038BDAB4214BF9B6830
:104A30002170F3E72220F7E7001A0020F0B51F46A7
:104A4000002387B00D46164604468DF81730A0B1F6
:104A50000DF11701FFF7D6FF9DF817207AB9BDF8C1
:104A60003430294602939DF830302046CDE900735A
:104A70003346FFF7FBFE07B0F0BD2220FBE7032023
:104A8000F9E700002DE9F04107468846FDF787FD6C
:104A900000260546124B1C6824B92846FDF785FD03
:104AA0001B2016E063691E44E388BB4215D100F069
:104AB0004BF90C4C2368C01AB0420CD200F044F9F8
:104AC00022683244121A2846C8F80020FDF76DFD0E
:104AD0000020BDE8F0810022F5E7A468DCE700BF14
:104AE000001A0020EC190020014B1878704700BF15
:104AF000F419002038B5FDF752FD054600F024F901
:104B000004462846FDF751FD204638BD014B186884
:104B1000704700BFFC1900200C4B70B51B680D4698
:104B2000834211D340F2E73100248C462146084BE2
:104B30004FF47A721E680023E0FB06C160461AF04B
:104B4000BBFA2860204670BD2120FCE7F019002048
:104B5000FC1900200F4B10B51A689AB14FF47A7106
:104B6000531E1342A0FB01010ED1B2FA82F2C2F130
:104B70001F04531CD243E04001FA03F3184321FA07
:104B800002F20243104610BD00231AF095FA0246C5
:104B9000F8E700BFFC190020C2072DE9F3470446DF
:104BA0000BD53F4A138801339BB21380FFF7E6FD14
:104BB0003C4B1B680BB1FFF72BFEA3076DD5FDF730
:104BC000EEFC002605463746FFF7D8FDB146DFF874
:104BD000D480D8F800400CB163698BB10022324B0D
:104BE000012F1A7002D1022E08BF1F70002C44D072
:104BF000FFF70EFE284602B0BDE8F047FDF7D5BC32
:104C000023461A792179914288BF1C469B6813B1CB
:104C10005A69002AF5D02846FDF7C7FC256985B3F7
:104C200000F092F8A269861AF317B54279EB0303F4
:104C300028DA23691344A3610123226982B17BB975
:104C4000A91B0191FDF7ABFC824601992046FFF7B5
:104C5000B1FDA369226950461344A361FDF7A5FC89
:104C6000E368E688013713B1204621689847FDF7CD
:104C700096FC0546FFF782FDABE7022000F0AAF89C
:104C8000B8E72E46FDF78BFC82462046FFF722FE52
:104C90005046FDF78AFC0023CFE702B0BDE8F0875D
:104CA000F6190020001A0020F819002010B5FDF7B1
:104CB00076FC034B1C78FDF778FC204610BD00BF46
:104CC000F81900201FB500241C4B012118689A8890
:104CD0000290D3F806009B7A00903E20ADF80C209D
:104CE0008DF80430FCF76CFF02A88DF808408DF8B1
:104CF0000C40FEF7DBF8694601208DF80040FEF716
:104D000099F84FF0B04240F2FF31936923F47F737A
:104D100023F0030393610A4B5961936A13F008036C
:104D2000FBD113620120FEF79FF84FF48052054B30
:104D3000C3F880211A6004B010BD00BFE00D02006E
:104D40000020005800E100E04FF0B0439A6A1207DB
:104D5000FCD4186A7047000010B50446FDF718FC33
:104D60004FF0B042936A1907FCD4136A116C526970
:104D7000520604D4CA1A032A01D899420ED1E21A63
:104D8000022A98BFDC1CB4F1FF3F38BF013C4FF052
:104D9000B0431C649A6942F040029A61FDF7FCFB43
:104DA000054A13783BB14FF0B041CB6B43F002039F
:104DB000CB630023137010BDA10B002082074FF0BE
:104DC000B04200F00103916948BF43F040030B4338
:104DD00093617047820700F001030AD50121084A58
:104DE00043F0400311704FF0B041CA6B22F0030250
:104DF000CA634FF0B0418A6922EA03038B617047AE
:104E0000A10B0020830742BF4022014B5A6170472B
:104E1000001000584FF0B04301285B6904D002280D
:104E200005D1C3F38010704703F0010070470020E4
:104E30007047000010B5FDF7B2FB4FF0B0430446D9
:104E40005B695A06074A03F0010003F0510348BFAB
:104E500040F002005361FFF79FFE2046BDE810407E
:104E6000FDF7A3BB002000583E20FCF7CBBE08B5E1
:104E7000FBF7E6FFFCF71CF8FCF725F8FCF738F821
:104E8000BDE80840FCF73DB808B5FCF73CF8FCF776
:104E90003BF8FCF73AF8BDE80840FCF738B80000EA
:104EA00010B50446FCF7E0F90C4BA0F57A729A4273
:104EB00012D84FF47A73B0FBF3F05C43084BB3FBAA
:104EC000F0F0B4FBF0F0022806D9BDE8104003234F
:104ED000B0FBF3F000F00CB810BD00BFFFC99A3B67
:104EE00040420F0000000000000000000000000031
:104EF000013800D0FCE7704708B503F06DF806F004
:104F0000DCF807F0D4F8002008BD0000024A03498D
:104F1000034802F035BD00BFEC0D02002C0E02006C
:104F2000040E020038B50446FDF732FB0546204664
:104F30001AF092FA04462846FDF72EFB204638BDAB
:104F400037B504460191FDF723FB0199054620463C
:104F50001AF042FA04462846FDF71EFB204603B02D
:104F600030BD38B50546FDF713FB044628461AF058
:104F70007BFA2046BDE83840FDF70EBB0A4619B162
:104F8000024B00211B681847704700BFA40B00208C
:104F900000F4E040B0F5805F04D0A0F50053584223
:104FA00058417047012070470E4B0340B3F1607FBA
:104FB00006D1B1F5885F14BF6FF0860000207047FE
:104FC000B3F1707F0BD101F4E043B3F5005F06D17C
:104FD00011F4E06F0CBF6FF08600002070476FF097
:104FE000860070470000C07F8A42F8B507460D462C
:104FF00000F021819B4822F0FF01814210D09A4CA1
:1050000022F4FF7323F00103A34209D0974B994286
:1050100006D0974922F47F7323F003038B4223D1F8
:1050200025F0FF01814210D08F4825F4FF7323F053
:105030000103834209D08D4B994206D08C4925F457
:105040007F7323F003038B420ED115F0FF030BD0C7
:10505000884943F000738B4206D16A4032F0FF0367
:105060000CBF01200020F8BD05F0FE43B3F1A06F96
:1050700017D102F0FE43B3F1A06F40F0DE8082EA68
:10508000050333F47E1340F0D88015F40040EAD0D5
:10509000C5F30540C2F3054290428CBF00200120B9
:1050A000E1E7B3F1407F40F0B38002F0FE43B3F19B
:1050B000407F40F0C28082EA050333F47E1640F060
:1050C000BC8039462846FFF76FFF002840F0B580C6
:1050D000694C12F47C1C04EA020438D0B4F1607FFD
:1050E000C2F3054C7AD16549D3B243F000738B42C9
:1050F00078D003F17E410439012975D960498B428A
:1051000076D001318B4275D001318B4274D00131A0
:105110008B426BD001318B426AD001318B4269D016
:1051200003318B4264D001318B4263D001318B4219
:1051300062D001318B4208BF402615F47C1FC5F3B5
:1051400005435BD1664514BF002001208BE7B4F115
:10515000607F2BD14949D3B243F000738B426ED0AC
:1051600003F17E41043901296CD945498B426FD046
:1051700001318B426FD001318B426FD001318B42B4
:1051800063D001318B4263D001318B4263D0033154
:105190008B425DD001318B425DD001318B425DD0BD
:1051A00001318B4208BF4FF0400C9CE7B4F1707F97
:1051B000C3D107F4E043B3F5005F05D14FF0010C14
:1051C000C7F302230CFA03FC07F4E043B3F5005FD6
:1051D000B3D10126C7F302239E40AEE7B4F1707F3E
:1051E000ABD1F1E71026A8E71426A6E74026A4E7EE
:1051F0001C26A2E72026A0E730269EE712F47C1F9B
:1052000001D1B34217D02A047FF52DAF634544E79F
:10521000B3F1106F11D125F01F6323F4702363B92C
:1052200002F0FE43B3F1106F07D11648104040F072
:105230001060A84287E7012015E7002013E74FF030
:10524000100C50E74FF0140C4DE74FF0400C4AE7BC
:105250004FF01C0C47E74FF0200C44E74FF0300CA8
:1052600041E700BF00130006000200060009000627
:1052700000040006FF0000020000C07F03000002DF
:10528000080000020000FFF62DE9F84388461746A3
:105290001C4600F013FD0546002859D1D8F80060DF
:1052A000B6F8009009F4E043B3F5804FF36808BF07
:1052B00027F0010737EA030342D1002C48D02F4AD8
:1052C00024F0FF03934211D02D4924F4FF7222F001
:1052D00001028A420AD02B4A934207D024F47F72FB
:1052E00022F0030201F500718A4234D114F0FF026A
:1052F00031D022498B4211D0214824F4FF7121F092
:10530000010181420AD01F498B4207D024F47F73E8
:1053100023F00303A1F5A0618B4204D142F0007396
:10532000194A93421ED0224648463169FFF75CFE77
:10533000074668B9224648467169FFF755FED0B95D
:105340006FF0840500233046C8F8003000F004FDFB
:105350002846BDE8F88304F0FE43B3F1407F04D152
:105360002304E0D56FF08605ECE7B3F1A06FF7D02A
:10537000054B9C42D6E73D46EAE700BF0013000616
:105380000002000600090006FF00000238B503799C
:1053900004460D4633B9A36820462B6000F0DCFCC0
:1053A00038B938BDD0E9081200F09AFD0028F2D0D3
:1053B000F7E700232B60F4E700F0FE43B3F1407FF2
:1053C00070B505460E4640F09980FFF7EDFD0028C8
:1053D00040F0968015F47C1F05D0C5F30543032BE0
:1053E00013700DD86BE04C4B2B40B3F1607F69D14B
:1053F0004A49EBB243F000738B4231D11023137052
:10540000454C2C40B4F1607F6AD14449EAB242F085
:1054100000728A4275D002F17E410439012972D9A5
:105420003F498A4271D001318A4270D001318A42AB
:105430006FD001318A4211D001318A4265D00131E9
:105440008A4264D003318A425FD001318A425ED001
:1054500001318A425DD001318A424FD140214BE077
:1054600003F17E410439012901D81423C7E72C49EF
:105470008B4201D11C23C2E72A498B4201D1202350
:10548000BDE729498B4201D13023B8E727498B4238
:1054900001D14023B3E726498B42EBD001318B4247
:1054A000EDD003318B42E5D001318B42E7D00131A1
:1054B0008B42E9D001318B42EBD0002313706FF0A7
:1054C00085001DE0B3F1707FF7D101F4E043B3F53F
:1054D000005FF2D10123C1F302218B40DBB27EE7F2
:1054E000B4F1707F0AD106F4E042B2F5005F05D155
:1054F0000121C6F3022291408B4201D96FF0860050
:1055000070BD1021F8E71421F6E71C21F4E72021F3
:10551000F2E73021F0E700BF0000C07F0300000287
:1055200008000002090000020A0000020B0000024D
:105530000C00000200232DE9F341D0E90168044684
:105540000F4630461146136000F010FC054688B93E
:10555000304600F00DFC054660B9F6B276B9B8F1F8
:10556000000F05D1E36823F47F4323F0030363B105
:105570006FF08605284602B0BDE8F0810146A068BC
:1055800000F0F1FA0028EDD1F2E74FF6F8736288E7
:105590009A421CD8238B23F00103002BE8D1394613
:1055A00001A800F049FB05460028E3D10FCC3F6875
:1055B0003E460FC694E807003B7986E807000BB922
:1055C000019BBB603B8B23F001033B83D2E76FF071
:1055D0008505CFE7B0F5105F0DD009D8B0F5885F2D
:1055E00010D0B0F5905F0DD041F20103984209D080
:1055F0006FF08500704721F04003802B02D0B1F599
:10560000807F06D111F0070F14BF6FF086000020D5
:1056100070476FF08600704770B5046A05460E4605
:105620003CB90120FFF78CFC286228B120466E624D
:1056300070BD6FF08A00FBE76FF08C00F8E773B580
:105640000E46114605460192FFF7E6FF044620B9D3
:105650003146019A286A19F01FFF204602B070BD3A
:105660002DE9F041089D88461F46048802B3204674
:10567000FFF78EFCE0B12B680BB9D3002B602046FE
:105680002968FFF7A7FF044678B9CE1DB2EBD60F05
:1056900011D1069B9A4211D84146384619F0FCFEBA
:1056A0002B68079A0733DB0813602046BDE8F081BA
:1056B0006FF08504F9E76FF08604F6E76FF0890470
:1056C000F3E710B50446006A10B1616AFFF756FCB3
:1056D000206AFFF746FC0020C4E9080010BD38B579
:1056E0000446FFF7EEFFE3692822012B0CBF0546B5
:1056F0006FF096050021204619F0F5FE284638BDCA
:1057000013B5044660B101A900F0D8FA044638B9CF
:105710000198C369012B06D900F01EFB6FF08304CA
:10572000204602B010BD0379FF2B0BD01BB180685F
:1057300000F030FB04460198FFF7D1FF002818BFA6
:105740000446EDE76FF08404F5E72DE9F0411F46CC
:10575000002388B0054688461646CDE904330792F3
:105760003B60002A5FD0B2F1005F5FD205AA04A9B6
:10577000FFF7E0FE0446A0B9049B1B6ABBB1049B83
:1057800041465A882846069206AA029203F124024C
:1057900001925A6A00921B6A324600F077F9044679
:1057A000D0B10498002832D0FFF799FF2FE06B6842
:1057B0001B0A07D107990498FFF72EFF044600281B
:1057C000DDD0EEE732464146284607AB00F059F9F6
:1057D00004460028EED0E4E70498069B4288D2B93C
:1057E00043804FF6F87293421AD82B8813B102887F
:1057F0009A4212D12B6A83B96B8813B142889A42BC
:105800000BD13946FFF7C2FD04460028C9D1204616
:1058100008B0BDE8F0819A42E3D06FF08604C0E79B
:105820006FF08504BDE76FF08604F0E76FF0850444
:10583000EDE7036810B5044653B100F08BF900237F
:105840002360A38823F4FF7323F00103A38010BD1A
:105850001846FCE72DE9F04105460C4600218CB0C6
:10586000174603A824229846029119F03CFE2B68A3
:10587000002B3DD1B8F1000F20463B4614BF4FF43A
:1058800080624FF4006202A9FFF7FEFC044600BBF1
:10589000029E03AC0FCE0FC496E8070084E8070011
:1058A0003846BDF80C102A1DFFF786FD044680B966
:1058B0006B79284668F300036B71029B03A9D3E957
:1058C00008230097B8F1000F0FD000F006F9044646
:1058D00010B12846FFF7ADFF029800F03DFA002C0A
:1058E00018BF20460CB0BDE8F08100F009F9EEE7E2
:1058F0006FF08804EDE70123FFF7ACBF38B503680C
:10590000054614464BB132B100F00DF9044610B112
:105910002846FFF78EFF204638BD6FF08804FAE76F
:105920002DE9F0411646026805460F469846F2B149
:105930004279D2071BD50279CAB1B2421AD800F017
:10594000FBF8044618B10023C8F800602B712879D1
:10595000B04204D2321A2121384419F0C4FD28463D
:10596000FFF767FF002C18BF2046BDE8F0816FF0FD
:105970008804E8E76FF08904E5E7000037B50C4DCF
:105980000C462B78DB070FD500230A46019301460E
:1059900001AB281D01F068FF20B9019BA34218BF8D
:1059A0006FF0930003B030BD6FF08800FAE700BFDE
:1059B000041A002008B500F029F9084B0C211A78C8
:1059C000064812F0060F1CBF0022C3E90122FFF7B0
:1059D000D5FABDE8084000F053B800BF041A002013
:1059E00038B50F4D2B7813F0010213D1C5E9012210
:1059F000022262F342032B7000F0FCF8044658B90F
:105A000000F03CF8044638B92B7843F001032B70C2
:105A1000204638BD0024FBE7FFF7CCFFF8E700BFC6
:105A2000041A002010B50446C069FFF79AFA204610
:105A3000BDE810402422002119F055BD2DE9F041A8
:105A400005460F4690461C469BB119460120FFF7BC
:105A500077FA064678B12246414619F01DFDE869FD
:105A600008B1FFF77EFA0020C5E907642F80BDE882
:105A7000F0811E46F3E76FF08C00F8E701F0F2BE0C
:105A8000704700226FF086001A6070472DE9F04FD2
:105A9000456885B02D0A0446DDE90E7A894616462A
:105AA0009846DDF840B013D1CDE901AB009701F085
:105AB00001FD10F1860F0DD143463246494620467E
:105AC000CDE90FAB0E9705B0BDE8F04FFFF7C8BDAD
:105AD0006FF0860005B0BDE8F08F13B50446486846
