:10000000C00A0020C1120000BF120000BF12000091
:100010000D3F0000BF120000BF120000BF12000021
:10002000BF120000BF120000BF120000BF1200008C
:10003000BF120000BF120000350F0000BF12000009
:10004000BF120000BF120000BF120000BF1200006C
:10005000BF120000BF120000BF120000BF1200005C
:10006000790D0000BF120000BF120000BF12000097
:10007000454E0000BF120000BF1200003D110000FD
:1000800049110000BF120000BF120000BF120000A3
:10009000BF120000BF120000BF120000BF1200001C
:1000A000BF120000BF120000BF120000BF1200000C
:1000B000BF12000019E50100BF12000005EF0100AA
:1000C000BDEE0100B9EE0100F5E6010001EF01000F
:1000D000C1EE0100D9EE0100C5EE010065EF01009F
:1000E0007DC7010045C9010045EF0100BF120000B6
:1000F00095350000BF120000BF120000BF120000C3
:10010000BF120000BF120000BF120000BF120000AB
:10011000BF120000BF120000BF120000BF1200009B
:10012000BF120000BF120000BF120000BF1200008B
:10013000BF120000BF120000BF120000BF1200007B
:1001400010B5054C237833B9044B13B1044800E0D3
:1001500000BF0123237010BDE40E0020000000004A
:100160003056020008B5034B1BB10349034800E0B9
:1001700000BF08BD00000000E80E0020305602005D
:10018000A3F5803A704700BF174B002B08BF134BF5
:100190009D46FFF7F5FF00218B460F461348144A92
:1001A000121A1FF0A8F90E4B002B00D098470D4BE8
:1001B000002B00D098470020002104000D000D48BE
:1001C000002802D00C4800E000BF1FF029F92000F1
:1001D000290000F01BFE1FF00FF900BF000008000F
:1001E0000000000000000000C00A0020E40E002013
:1001F00030270020000000000000000008B500F0DB
:100200003BFFBDE8084000F069BD704770B503686A
:10021000A04923F47F4323F007038B4288B000F00A
:100220002B8209D89C4A93422DD002F5A0229342FA
:1002300000F09E8108B070BD984A934200F0AE81F4
:1002400002F101729342F5D100F05EFC04460028F1
:10025000F0D0012000F0BCFF0028EBD0904D914978
:10026000286803F0DEF900F0D3FF00F0D2FF8E49DA
:1002700023468E4A286803F0D4F9204600F0F0FFA8
:100280008B49286885E10DF10F0104A812F0D8FC14
:10029000044630B3824D8749286803F0C2F9864985
:1002A000286803F0BEF900F0B3FF00F0B2FF834B03
:1002B000834A009383495823286803F0B2F9234600
:1002C0007A4A7949286803F0ACF9204600F0C8FF63
:1002D0007D49286803F0A5F97649286803F0A1F95B
:1002E000FEE79DF8153001468DF818309DF8143062
:1002F00008228DF819309DF8133012208DF81A302D
:10030000FF238DF81B30FE238DF81C309DF8123032
:100310008DF81D309DF811308DF81E309DF810308D
:100320008DF81F3006AB12F05FFC054630B35C4C15
:100330006049206803F075F95F49206803F071F99E
:1003400000F066FF00F065FF5C4B5D4A00935D497D
:100350006723206803F065F92B46544A5249206808
:1003600003F05FF9284600F07BFF5749206803F04F
:1003700058F95049206803F054F9FEE7534E3046CF
:1003800012F09EFB054630B3454C4A49206803F005
:1003900048F94949206803F044F900F039FF00F0BA
:1003A00038FF464B464A009346496B23206803F0CA
:1003B00038F92B463D4A3C49206803F032F928467B
:1003C00000F04EFF4049206803F02BF939492068BE
:1003D00003F027F9FEE70221307812F0ABFB044668
:1003E00030B32F4D3349286803F01BF93249286890
:1003F00003F017F900F00CFF00F00BFF2F4B304A11
:10040000009330497023286803F00BF92346274AEC
:100410002549286803F005F9204600F021FF2A4904
:10042000286803F0FEF82349286803F0FAF8FEE78D
:10043000A022034600901146307812F059FB054681
:10044000002845D0164C1B49206803F0EAF81A49E9
:10045000206803F0E6F800F0DBFE00F0DAFE174B50
:10046000174A009317497723206803F0DAF82B46E0
:100470000E4A0D49206803F0D4F8284600F0F0FE3B
:100480001149206803F0CDF80A49206803F0C9F843
:10049000FEE700BFA0000A00A0000100A0000601C6
:1004A000B80F0020830602005D0602005A06020013
:1004B000E7060200E606020040060200C806020047
:1004C000450602004E06020072060200C00A002025
:1004D0000221307812F042FB054630B3874C884940
:1004E000206803F09EF88749206803F09AF800F02E
:1004F0008FFE00F08EFE844B844A009384497C2357
:10050000206803F08EF82B46824A8349206803F066
:1005100088F8284600F0A4FE8049206803F081F89E
:100520007749206803F07DF8FEE700F087FA04467B
:1005300000283FF47FAE012000F04AFE00283FF47F
:1005400079AE6E4D7649286803F06BF800F060FED6
:1005500000F05FFE704923466E4A286803F061F898
:10056000204600F07DFE6F49286803F05AF861E6E6
:10057000032000F02DFE00283FF45CAE5F4C6A497A
:10058000206803F04EF800F043FE00F042FE674999
:10059000206808B0BDE8704003F043B8032000F0C5
:1005A00017FE60B1554C6049206803F03AF800F03E
:1005B0002FFE00F02EFE5E49206803F032F85D4CFD
:1005C0000221207812F0B6FA054630B34B4C4C4964
:1005D000206803F026F84B49206803F022F800F069
:1005E00017FE00F016FE484B484A009348499223F4
:1005F000206803F016F82B46464A4749206803F066
:1006000010F8284600F02CFE4449206803F009F851
:100610003B49206803F005F8FEE70221207812F03C
:100620009DFA054600283FF405AE344C3449206855
:1006300002F0F7FF3349206802F0F3FF00F0E8FD15
:1006400000F0E7FD304B314A009331499723206891
:1006500002F0E7FF2B462F4A2F49206802F0E1FF06
:10066000284600F0FDFD2D49206802F0DAFF2449FC
:10067000206802F0D6FFFEE7B0F8050021287FF4DD
:10068000D9AD04AB00930122002106AB12F07AFA37
:10069000044600287FF44FAF9DF81030ABB9264BCD
:1006A000186800F073FF032000F092FD00283FF46B
:1006B000C1AD124C1C49206802F0B3FF00F0A8FD48
:1006C00000F0A7FD1D4920684FE7012B7FF4B2AD74
:1006D000194B186800F057FF032000F079FD00283F
:1006E0003FF4A8AD054C1049206802F09AFF00F0D5
:1006F0008FFD00F08EFD1249E5E700BFB80F002026
:10070000E606020040060200C80602004506020096
:100710004E0602005A0602005D0602007206020042
:1007200083060200E7060200880602008D0602002A
:10073000A1060200C00A0020540B0020B5060200EA
:10074000BF0602002122F8B5154B164C1A70164A46
:10075000164FC4E90023012321463846238100F0C7
:10076000FFFE134E134D3070134804F0A1FB02231B
:100770002146384663802381656000F0F1FE3070C9
:1007800000F046FD00F045FD0C486B782A780C49D6
:10079000006802F046FF288840BA80B2F8BD00BF6A
:1007A000100F0020140F0020460001000000015A25
:1007B000130F0020110F0020C0D40100B80F00203B
:1007C000D706020037B5FFF7BDFF0222ADF80600DD
:1007D000002115200DF1060312F006FA044690B927
:1007E000032000F0F5FC70B1084D0949286802F0BB
:1007F00018FF00F00DFD00F00CFDBDF806200549C6
:10080000286802F00EFF204603B030BDB80F00206C
:1008100088060200E8060200012337B5134C642065
:10082000E36004F065F90223E36000F0E9FA0422D2
:10083000019000211B2001AB12F0D6F9044688B9C3
:10084000032000F0C5FC68B1094D0A49286802F090
:10085000E8FE00F0DDFC00F0DCFC019A06492868A7
:1008600002F0DFFE204603B030BD00BF00C00450E0
:10087000B80F0020880602001107020037B500F00B
:10088000D1FA0222ADF8060000211E200DF1060368
:1008900012F0AAF9044690B9032000F099FC70B157
:1008A000084D0949286802F0BCFE00F0B1FC00F0D8
:1008B000B0FCBDF806200549286802F0B2FE2046CB
:1008C00003B030BDB80F00208806020036070200D2
:1008D00037B500F0EBFA0222ADF80600002118202F
:1008E0000DF1060312F080F9044690B9032000F0E0
:1008F0006FFC70B1084D0949286802F092FE00F0C3
:1009000087FC00F086FCBDF806200549286802F047
:1009100088FE204603B030BDB80F002088060200D4
:10092000630702001FB5022101201EF05DFD0DF1DD
:100930000A03ADF80A00009302220021152003AB40
:1009400012F020F9044670B902211520BDF80A20E2
:1009500012F060F9044630B9044BBDF80A2004498E
:10096000186802F05EFE204604B010BDB80F0020EB
:100970008B07020030B585B00DF10A050222002177
:100980001E20009503AB12F0FDF8044668B92A4614
:1009900002211E2012F03EF9044630B9044BBDF886
:1009A0000A200449186802F03CFE204605B030BD1C
:1009B000B80F0020AC07020030B585B00DF10A0574
:1009C000022200211820009503AB12F0DBF8044648
:1009D00068B92A460221182012F01CF9044630B9E1
:1009E000044BBDF80A200449186802F01AFE20469C
:1009F00005B030BDB80F0020D107020030B585B07A
:100A000002AD042200211B20009503AB12F0BAF8BE
:100A1000044660B92A4604211B2012F0FBF8044664
:100A200028B9044B029A0449186802F0FAFD2046DE
:100A300005B030BDB80F0020F007020038B5FFF751
:100A4000C1FE044600284DD0294D00F0E1FB00F026
:100A5000E0FB2849286802F0E4FD2146286802F0FE
:100A6000E0FD0024244804F023FAFFF707FF0546C1
:100A700068B11F4C00F0CCFB00F0CBFB1F49206895
:100A800002F0CFFD2068294602F0CBFD00241A4871
:100A900004F00EFAFFF7C0FE054668B1144C00F0F2
:100AA000B7FB00F0B6FB1649206802F0BAFD2068DB
:100AB000294602F0B6FD00240F4804F0F9F9FFF7CB
:100AC00007FF054680B10A4C00F0A2FB00F0A1FB35
:100AD0000C49206802F0A5FD2946206802F0A1FD1E
:100AE000012038BD0124BDE784F00100F9E700BF13
:100AF000B80F00200D080200809698003E08020002
:100B000073080200A408020038B5B0F80530153BA0
:100B1000092B3FD8DFE803F0053E3E4E3E3E793ECE
:100B20003EA403890320DC0731D500F051FB60B1FE
:100B30005D4C5E49206802F074FD00F069FB00F036
:100B400068FB5B49206802F06CFDFFF73BFE044642
:100B5000002800F0A180012000F03AFBA8B1524D1E
:100B60005449286802F05DFD00F052FB00F051FB93
:100B700051492346514A286802F053FD204600F0AF
:100B80006FFB4F49286802F04CFD204638BD00F04D
:100B90001FFB08B90124F8E7434C4449206802F0E0
:100BA00040FD00F035FB00F034FB4649206802F0C0
:100BB00038FDEFE703890320D90717D500F008FBBC
:100BC00060B1394C3949206802F02BFD00F020FB60
:100BD00000F01FFB3C49206802F023FDFFF778FE80
:100BE00004460028B7D1FFF7E7FE57E000F0F0FA1F
:100BF0000028CFD02C4C2D49206802F012FD00F0C7
:100C000007FB00F006FB3149D0E703890320DA0730
:100C100017D500F0DDFA60B1234C2449206802F0BA
:100C200000FD00F0F5FA00F0F4FA2949206802F01E
:100C3000F8FCFFF7F1FD044600288CD1FFF7DEFE3B
:100C40002CE000F0C5FA0028A4D0174C1749206802
:100C500002F0E7FC00F0DCFA00F0DBFA1D49A5E742
:100C60000389DB0708D5FFF709FE044600287FF457
:100C700072AFFFF77FFE11E0032000F0A9FA002811
:100C800088D0094C0949206802F0CBFC00F0C0FA7A
:100C900000F0BFFA104989E7FFF744FE0446002838
:100CA0007FF459AF002470E7B80F002088060200D7
:100CB000D3080200830602005D0602005A06020005
:100CC000E7060200F80802001E09020041090200BE
:100CD000650902008A090200B009020030B501214D
:100CE00089B03A2000F0E0FE0121252000F0DCFE72
:100CF000012200231146104601F074FD0E2200214E
:100D000004A81EF0F8FB0D22002168461EF0F3FB3C
:100D100001250F23144C04A92046ADF812308DF89C
:100D200006508DF8005002F04AF84FF001120F4BB8
:100D30000021C3F89C552046C3F8A0256A4602F05E
:100D40008BF8236B4FF0FF33094AE36104F500533E
:100D50005A61A36943F01003A3614FF48072054BFD
:100D60001A6009B030BD00BF00C0045000C003507D
:100D70007700770700E100E0F8B51A4B1A4E5D697D
:100D80001A6E1A4F02F00302012A0CBF5A6F9A6EB4
:100D9000174C32601A6E4FF4806002F00302012A91
:100DA0000CBF5B6F9B6E3B6005F00103237000F08E
:100DB0009DFE104A2378B0FBF2F083B1094B3A68EC
:100DC000DB691344013332689B1A00221B01B3FB19
:100DD000F0F32270084A1360084B5D61F8BD3B6870
:100DE000F1E700BF00C00450000F00200C0F0020EE
:100DF000040F002040420F00080F002000E00450C4
:100E0000014B1868704700BF080F002008B504F0B8
:100E100036F8FFF7F3F904F03FF8FFF7F6F903F0BF
:100E2000F7F9F8E7E52270B5174B184C184823601E
:100E3000184B21461A7063600123238100F090FB58
:100E4000154E307058B100F0E3F900F0E2F91349A3
:100E5000134B186802F0E5FB4FF6FF7070BD0223DC
:100E6000104D21460A4863806560238100F078FBBD
:100E7000307028B100F0CCF900F0CBF90A49E7E76F
:100E8000288840BA80B2E9E780000100140F0020F2
:100E90000000015A100F0020130F0020DA09020091
:100EA000B80F0020110F0020F2090200E32270B5F4
:100EB000174B184C18482360184B21461A70636072
:100EC0000123238100F04CFB154E307058B100F027
:100ED0009FF900F09EF91349134B186802F0A1FB2B
:100EE0004FF6FF7070BD0223104D21460A48638003
:100EF0006560238100F034FB307028B100F088F980
:100F000000F087F90A49E7E7288840BA80B2E9E7A4
:100F100080000100140F00200000015A100F002073
:100F2000130F0020DA090200B80F0020110F002073
:100F3000F209020006F03EBF03F0F0BF0120704747
:100F400000B5C3B006F058FE06F081FE48B1FFF7C9
:100F5000F5FF30B101A811F0ADFD10B901A8FFF700
:100F600055F943B05DF804FB704708B503218020B4
:100F700001F0F4F803214FF4806001F0EFF8032151
:100F80004FF4906001F0EAF808214FF4C06001F0DE
:100F9000E5F808214FF4F06001F0E0F808213E2068
:100FA00001F0DCF808212D2001F0D8F8002008BD60
:100FB00008B5174B1B68C3F30743012B0ED1154B24
:100FC00004205A6E4FF480231349520358BF134A2A
:100FD0004B6601F51041086258BF536602F0FAF9FA
:100FE00000F069F902F082F902F012FA02F0A0F9B9
:100FF00002F0D4F902F0D8F9FFF7B7FF02F086F952
:1010000000F050F900F020FBBDE8084003F010B8F4
:101010000080E00F008000500090005000A00050C1
:1010200008B500F029F8BDE8084000F0CBB808B5D5
:1010300000F036F903F04AFC02F0ECF902F03AFB5A
:1010400005F008FD02F0B0FE04F0D2FC05F008FF48
:10105000BDE8084000F064B808B502F01FF902F0DE
:101060002DF9BDE80840FFF767BF00F0D3B870471F
:101070007047FFF765BF704708B53A20012100F0BF
:1010800013FDBDE80840014800F0F2B9340B002020
:1010900070B5124E92B035460BAC0FCD0FC495E82B
:1010A0000700032384E8070006F11C0506AC8DF851
:1010B00045300FCD0FC42B68236002AC06F130031E
:1010C0000FCB84E80F00064B214600930BAA06AB1A
:1010D000044802F069FD12B070BD00BFD40C0200DC
:1010E000280F0020940F0020831E012B0AD801290D
:1010F00008D80422094B1B69C3F3401305210020C3
:1011000001F070BB0239012907D8012805D8034B2B
:1011100000221B69C3F34013F0E7704700C003507F
:1011200008B50449044803F051F8BDE80840FFF74A
:10113000AFBF00BF480B00206C0F0020014B1868A8
:1011400002F0F6BD940F0020FFF7F8BF014B1A6ABA
:1011500018681047940F0020012070470120704745
:1011600010B506F0B5FD0446FFF7F6FF002814BFE2
:101170002046002010BD38B503F04CF9044606F0B7
:10118000B5FD042817D002284FF0000508BF012440
:10119000FFF7DCFF042810D0022808BF0124FFF766
:1011A000DDFF04280BD0022808BF0124002D18BF42
:1011B0000024204638BD0125EAE70125EFE7002499
:1011C000F7E70000014800F0DBB900BF140D020092
:1011D0000B4B02461B788BB10A4B1B78834234BF02
:1011E00000200120084B1B783BB1084B1B7843FAC9
:1011F00002F212F0010F08BF002070470120F1E752
:10120000580B0020590B0020BC0F00205A0B002067
:1012100070477047012208B5074B1A700022074B30
:101220001A700422064B1A701F22064B1A7002F025
:10123000BFF9054B186008BD580B0020BC0F0020FB
:10124000590B00205A0B0020B80F0020024B034915
:10125000186802F0E6B900BFB80F00202C0D02009C
:1012600070B50C4C0C490646206802F0DAF902F021
:101270009FF90546206802F08FF93046FFF7E6FF38
:10128000284602F089F920680449BDE8704002F060
:10129000C8B900BFB80F00202E0D0200300D0200AB
:1012A0000F20704708B501213A2000F0FDFBBDE892
:1012B0000840FFF759BE01213A2000F0F5BBFEE7D8
:1012C00008B500F02DF8124B12498B4212D30020C2
:1012D000114B12498B4218D3FEF756FF186850F88D
:1012E0002240586840F82240013298688242F5D383
:1012F0000C33EAE70022F8E71C6844F822000132C8
:101300005C68A242F8D30833E4E70022F8E700BFA4
:101310003856020044560200445602004456020069
:101320004FF400414FF0FF30124B134A10B59A6052
:10133000D3F8882042F47002C3F888200F4A9166DF
:1013400001F1884101F5005210664FF6DF705066DA
:101350000220C3F8D000BFF34F8FBFF36F8F082474
:101360004FF440330648C0F88041D36004600B61FD
:1013700010BD00BF00ED00E0000000000090005034
:1013800000E100E0014B1868704700BF600B0020CF
:10139000084B1B6F03F00703022B04D0032B05D06F
:1013A000012B05D0FEE7044B18687047034BFBE7A1
:1013B0000348704700800050600B0020640B002041
:1013C000002D310108B5FFF7E3FF054B1B6FC3F399
:1013D00003330133B0FBF3F0024B186008BD00BFCC
:1013E000008000505C0B00200048704700B4C4042B
:1013F000014B1868704700BF640B0020054B186054
:10140000054B1B6F03F00703032B01D1FFF7DABF76
:10141000704700BF640B0020008000500020704720
:1014200000487047002D31014FF4004070474FF4E1
:101430007A707047014B1868704700BF680B002036
:1014400000230360704703680B6001607047000071
:1014500005490A681318054883428CBF4FF0FF32D4
:101460000B601046704700BF6C0B0020008000200E
:101470002DE9FF410368374A0446934204D0364AB7
:10148000934251D12F2000E02E20012100F00CFBCF
:1014900001230A226179207901F0A4F901230A22AB
:1014A000E179A07901F09EF9092601272B4D4FF033
:1014B000300842F210032279617908FB025207FAE0
:1014C00001F1D150642003F0F3FC41F210012379C3
:1014D000627908FB035307FA02F264205A5003F0C2
:1014E000E7FC013EE3D120681A4B98421FD1032349
:1014F000C5F890346279237943EA0243C5F89434FD
:10150000E279A37943EA0243C5F8983440F2011323
:10151000ADF80030E36869460293A3680193237C29
:101520008DF80C3001F0E8F904B0BDE8F0810A4B09
:101530009842EBD10323C5F8A0346279237943EABA
:101540000243C5F8A434E279A37943EA0243C5F81B
:10155000A834DBE70000015A0080065000C00350A9
:1015600038B5054601F006FB044C012801D1013CC9
:1015700000D138BD284601F0E1F9F6E7E193040017
:10158000D0E900031847836800681847C3680068FB
:10159000184710B5044601213A2000F085FAA378D7
:1015A0002078B3FA83F3042261785B0901F01AF919
:1015B000002010BD10B501224378017884783020D6
:1015C0009A40054B00FB01331CB942F210015A50FE
:1015D00010BD41F21001FAE700C0035010B501221E
:1015E00043780178847830209A40054B00FB013322
:1015F0001CB941F210015A5010BD42F21001FAE735
:1016000000C003500122417803788A4030214B43C7
:1016100043F2100103F1A04303F570335A507047B1
:10162000302310210246007813FB001303F1A0437E
:1016300003F5703350781B68C34003F001009378C2
:101640000BB980F001007047024B1968024B186813
:1016500015F060BF740B0020700B00207047000075
:1016600037B5920004460D4601921EF0E1FF431C7F
:101670000BD060B929462046019A1DF005FF0028CD
:10168000044808BF002003B030BD0348FBE703480F
:10169000F9E700BF10E000F021E000F024E000F0E6
:1016A00013B5044601A801F03DFB9DF80630012268
:1016B00023804FF4807300206380054B9B680A33BE
:1016C00003F01F0302FA03F3636002B010BD00BF12
:1016D0000080E00F01F0A2BA08B501F08FFA0020F7
:1016E00008BD10B5044644EA010313F0030308469D
:1016F00009D1934201D1002010BD54F8231040F8C5
:1017000023100133F5E7214692001DF0CDFEF2E7EC
:1017100010B504461EF07CFF431C15D0B0B90C4B2D
:1017200020469B680A3303F01F020123934023F0F5
:1017300003032344984201D1002010BD50F8042B2C
:101740000132F7D00348F8E70348F6E70348F4E727
:101750000080E00F0EE000F021E000F024E000F057
:1017600008B500F089FE014B186008BD5016002036
:10177000014B186800F084BE501600200A4601395B
:10178000014402F06DBB0000044BD3F88420D20664
:10179000FBD4D3F88400C0F38110704700400050A0
:1017A00038B5104B0546D3F820310C4603F003033F
:1017B000022B0BD0032B0DD0012B0FD1FFF7E2FD35
:1017C000052305B1286004B1236038BDFFF710FE82
:1017D0000323F6E7FFF724FE0223F2E7002318466F
:1017E000EFE700BF0080005073B50D4600210E4B9F
:1017F0000191D3F88041064604F00304012C09D07E
:10180000022C0CD00C460EB1019B336005B12C604C
:1018100002B070BD01A8FFF7C3FF0F24F3E7FFF785
:10182000FFFD0190EFE700BF0080005038B5174B77
:101830000546D3F824310C4603F00703013B052B82
:1018400020D8DFE803F0030F171B0B13FFF79AFDF7
:10185000052305B1286004B1236038BDFFF792FD70
:101860000623F6E7FFF7C4FD0323F2E7FFF7C0FD09
:101870000423EEE7FFF7D4FD0223EAE7FFF7CEFDEE
:101880000723E6E700231846E3E700BF0080005087
:1018900038B5104B0546D3F840310C4603F003032E
:1018A000022B0BD0032B0DD0012B0FD1FFF7BCFD6A
:1018B000092305B1286004B1236038BDFFF7BAFDE4
:1018C0000823F6E7FFF7B3FD0B23F2E700231846E2
:1018D000EFE700BF0080005038B5134B0546D3F842
:1018E00000320C4603F00703013B032B18D8DFE856
:1018F00003F0020A0E12FFF797FD092305B12860D5
:1019000004B1236038BDFFF795FD0823F6E7FFF724
:101910008EFD0B23F2E7FFF755FD0E23800AEDE75E
:1019200000231846EAE700BF0080005038B5104B8E
:101930000546D3F840320C4603F00303022B0BD0CC
:10194000032B0DD0012B0FD1FFF76EFD092305B13D
:10195000286004B1236038BDFFF76CFD0823F6E76B
:10196000FFF765FD0B23F2E700231846EFE700BF02
:101970000080005038B5104B0546D3F860310C4656
:1019800003F00303022B0BD0032B0DD0012B0FD13F
:10199000FFF74AFD092305B1286004B1236038BD73
:1019A000FFF748FD0823F6E7FFF741FD0B23F2E7B9
:1019B00000231846EFE700BF0080005010B40D4C24
:1019C0000B46D4F8204204F00304012C0AD0022C68
:1019D0000CD008B1002101600BB100221A605DF843
:1019E000044B70475DF8044BFFF7DABE5DF8044B1B
:1019F000FFF74EBF00800050B0F5207F1FD009D800
:101A0000B0F5007F15D003D868B1B0F5C07F0AD01B
:101A100000200CE0B0F5607FFAD10B4BD3F88000CA
:101A2000C0F3011003E0084B186FC0F3033001301E
:101A30007047054BD3F89000C0F30460F7E7024B02
:101A4000186FC0F38020F2E7008000504FF400329E
:101A50000E4B014610B500209A66FFF7CDFF41F608
:101A6000713248430A490B4B88428CBF4FF48010B7
:101A70000020DC69DA639A6822F4401202439A601B
:101A8000E20344BF0022DA6310BD00BF00900050A3
:101A9000005A62020000035008B5FFF7A5FCBDE83C
:101AA00008400021FFF7D2BF420910B510D0012A2B
:101AB00010D00B4B0B4C022A18BF234600F01F001E
:101AC00051B103F58053012202FA00F0186010BDF5
:101AD0001346F3E7044BF1E703F50053F3E700BFC8
:101AE0006880005060820050648000501FB5002361
:101AF00080280446019371D02AD8002872D0A0F122
:101B00002004412C32D8412C30D8DFE804F06B6E31
:101B10006B6E7D7D7D7D6E6E873C9D623C6E6E6ED4
:101B20002F2F2F2F2F2F82546E6E6EA7A26E2F2F66
:101B30002F2F2F2F2F2F2F2F2F2F2F6B2F6B6B6BC5
:101B40007D2F2F2F2F2F2F2F2F2F2F2F2F2F6B6BDF
:101B5000B0F5806F58D021D8B0F5007F4FD008D8AD
:101B6000B0F5807F5FD0B0F5C07F3BD0019804B066
:101B700010BDB0F5607F42D0F8D8B0F5207F34D0EA
:101B8000B0F5407FF2D1FFF71DFC02464FF4207004
:101B9000FFF732FFB2FBF0F0400821E0B0F5C06F74
:101BA00052D00DD8B0F5A06F33D0B0F5B06F35D0AE
:101BB000B0F5906FDAD1002101A8FFF737FED5E725
:101BC000B0F5E06F45D0B0F5F06F47D0B0F5D06F0D
:101BD000CCD1002101A8FFF77FFEC7E7FFF7D8FBB4
:101BE0000190C3E7FFF7EEFBFAE7FFF7EBFB0246D6
:101BF0004FF42070FFF700FFB2FBF0F0F0E7FFF7C3
:101C0000C7FB02462046F5E7002101A8FFF7C8FD03
:101C1000ACE7002101A8FFF7D1FEA7E7002101A84A
:101C2000FFF7E2FDA2E702934FF0E0231B695B0799
:101C300005D5FFF7C7FB0290029B019396E703A926
:101C400002A8FFF725FEF7E7002101A8FFF720FE15
:101C50008CE7002101A8FFF769FE87E7002101A8B2
:101C6000FFF788FE82E7000008B58020FFF73EFFFF
:101C7000034B98429EBF4FF48032024B1A6708BD57
:101C8000005A620200A000501FB50023B0F5807F0B
:101C9000019377D028D8382800F094800BD82438C6
:101CA000092810D809280ED8DFE800F067676767B1
:101CB0000D0D620D377D52285FD008D83D283BD0EE
:101CC0003E2800F08480019805B05DF804FB802870
:101CD000F9D1414B1B6F03F00703013B032BF2D8F3
:101CE000DFE803F044413F6CB0F5D06F5BD019D80A
:101CF000B0F5A06F66D00AD8B0F5806F3DD0B0F5D2
:101D0000906FE0D1002001A9FFF790FDDBE7B0F56F
:101D1000B06F2DD0B0F5C06FD5D1002001A9FFF76D
:101D2000B7FDD0E7B0F5006FECD00AD8B0F5E06FA2
:101D30004DD0B0F5F06FC6D1002001A9FFF71AFE13
:101D4000C1E7B0F5086FBED1234BD3F8003103F0E3
:101D50000303022B2CD0032B2ED0012B30D1FFF705
:101D600047FB032300E005230193ACE70223FBE7D5
:101D7000002001A9FFF738FDA5E7002001A9FFF722
:101D80000FFDA0E702934FF0E0231B695B0705D529
:101D9000FFF718FB0C230393039BE5E703A902A8B5
:101DA000FFF776FDF8E7002001A9FFF795FD8AE728
:101DB000FFF740FB0823D7E7FFF730FB0723D3E704
:101DC0000123D1E7002001A9FFF7F8FD7BE7002000
:101DD00001A9FFF7ABFD76E70080005008B5FFF7DB
:101DE00053FF082811D00938012811D84FF40012E8
:101DF000094B4FF6FF705A6603F5D8335B6A13F050
:101E0000010F18BF4FF4FA7008BD044B1888FBE7A8
:101E10004FF6FF70F8E700BF00900050940B0020D1
:101E200070B504468020FFF72FFF032800F0828062
:101E30004FF40022444B02215A6645F60E03434AF2
:101E4000C2F88030424B9962012103F580539962B8
:101E5000936DD903FCD4D4E900131B0543EA016355
:101E6000E17B94F822500B43217B94F8236043EAF2
:101E70000143617B43EA0133A17B43EA8113136190
:101E80009169D4E904031B0643EA806301F0004131
:101E90000B43A17EE07E0B43217E43EA0143617E3A
:101EA00043EA01239361E369126A002B0CBF00210E
:101EB000082122F00D0242EA030242EA8002234B8B
:101EC00042EA01021A6294F820204FEA421232D10B
:101ED000986A94F8211020F0330042EA011202437C
:101EE00042F001029A621B4A996D32EA0101FBD16C
:101EF000022217498A621A659A6D5200FCD4186949
:101F0000A26820F4700040EA02504FF000421861CD
:101F10000F4B9A611DB9022203F580539A6216B9DC
:101F200001220D4B9A6294F824301BB1074B0B4AE7
:101F3000C3F8802070BD996A21F0330131430A4310
:101F400042EA4502EEE700BF0090005000C000509A
:101F500000D000500300014000E00050F1A7FFFF57
:101F6000014B93F90000704704170020F0B5D0E949
:101F700001434FF480061A4A4178057856664FF4BB
:101F8000D156022702F5B8325662164E4F297760B5
:101F90004FF0010728BF4F2106F58056776016697C
:101FA000F603FCD441EA052151611B01417B43EA60
:101FB00004230B43017B43EA41039360C37B817B92
:101FC0001B0143EA4113417C0B43017C43EA41037B
:101FD0005360837C13B16FF4D1535362F0BD00BFE3
:101FE0000090005000100250014B1880704700BF55
:101FF000940B00204FF4001208B5184B5A660223C8
:10200000174A5360936813F48033FBD1012822D11F
:10201000FFF7EEF9134B984215D003F5122303F5A1
:10202000F863984213D0104B00EB8002400AB3FBD8
:10203000F0F0520A0A4BDA62012218635A62002257
:10204000074B5A6008BD45F67A10084AF2E745F694
:102050001A00074AEEE75362F1E700BF0090005014
:102060000040025000F0490264666666D8B8050078
:10207000BBCF05000029CCBF01210021FFF7E6BC42
:10208000B0F5207F10B50C4642D008D8B0F5007FDF
:1020900033D003D888B1B0F5C07F0ED010BDB0F5F5
:1020A000607FFBD11F4B013CD3F8801021F0300141
:1020B00041EA0414C3F88040F0E7FFF7EDFC00F0BC
:1020C00035F84FF48031184A164B1167196F013CEF
:1020D00021F4704141EA04341C67FFF773F90446A8
:1020E000FFF752FBC0F102012046FFF7C3FF00F0EB
:1020F00023F8BDE81040FFF7B7BD0A4B013CD3F809
:10210000901021F0F85141EA0464C3F89040C5E70B
:10211000044B013C196F21F4806141EA84241C675F
:10212000BCE700BF008000500090005002214FF437
:102130002070FFF7A5BF000008B54FF4C070FFF78F
:10214000D5FCBDE80840044988428CBF022101212A
:102150004FF42070FFF794BF80F0FA02B0F5807F53
:1021600070B50C4600F0F88029D8382800F04B8173
:1021700010D82438092816D8092814D8DFE810F018
:10218000DC00DC00DC00DC0013001300CD001300D9
:1021900047003301522800F0CF8005D83D2851D0A8
:1021A0003E2800F0418170BD8028FCD18B1E052B9C
:1021B00000F2B080DFE803F0AB99AE69AEA8B0F5ED
:1021C000D06F00F0108132D8B0F5A06F00F01B8105
:1021D00016D8B0F5806F00F0AF80B0F5906FE2D107
:1021E000023C052C8CBF0021974B984A98BF195D83
:1021F000D2F8243123F007030B43C2F82431D2E78D
:10220000B0F5B06F00F08980B0F5C06FCBD1083C5D
:10221000032C8CBF00218E4B8C4A98BF195DD2F8DD
:10222000403123F003030B43C2F84031BBE7B0F564
:10223000006FD5D016D8B0F5E06F00F0F580B0F59E
:10224000F06FB0D1083C032C8CBF0021814B7F4A3A
:1022500098BF195DD2F8603123F003030B43C2F835
:102260006031A0E7B0F5086F9DD1CC1E052C8CBF66
:102270000021794B754A98BF195DD2F8003123F0DF
:1022800003030B43C2F800318DE70025022601212C
:10229000022000F0B9F9FFF7FFFBFFF747FF4FF40B
:1022A00080316E4B694A1967136F23F0070333437C
:1022B0001367FFF787F80646FFF766FAC0F10201D9
:1022C0003046FFF7D7FE0121002000F0DDF9FFF7CF
:1022D00033FFFFF7C9FC002D7FF465AF032C7FF4BB
:1022E00062AF01225E4B9A625DE74FF400225B4BC6
:1022F0000E465A66012203F540539D6A03F580534A
:10230000C5F340059A62C2E700250426BFE7002511
:102310000126BCE700252E46B9E7022C03D0A4F124
:102320000F0044424441494BD3F8801121F003018E
:102330000C43C3F8804136E7023C032C8CBF0021DC
:10234000484B424A98BF195DD2F8203123F003036D
:102350000B43C2F8203126E7A1F10804082C3FF610
:1023600022AF01A353F824F08D2300008D23000039
:10237000A72100008D230000BB230000A72100003F
:10238000A7210000A72100008D2300004FF4803218
:102390002E4B3549586E03F580535A660B6A43F04D
:1023A00001030B62C1035CBF304B5A664FF0E02261
:1023B000136923F004031361F5E64FF48032234BD5
:1023C0002949586E03F580535A660B6A23F00103BE
:1023D0000B62C3035CBF254B5A664FF0E0221369C2
:1023E00043F00403E7E7083C062C8CBF0021204B98
:1023F000164A98BF195DD2F8003223F007030B4349
:10240000C2F80032CFE60F2C0CD0102C14BF0021E4
:1024100002210E4AD2F8203223F003030B43C2F804
:102420002032C0E60121F4E7083C032C8CBF0021D8
:10243000104B064A98BF195DD2F8403223F00303CF
:102440000B43C2F84032AEE6600D0200008000503F
:102450005C0D02005C0D02006D0D0200009000504A
:1024600000E00050580D020000C0075000A00050CE
:10247000660D02005C0D0200EFF3108072B670472B
:1024800000B962B67047EFF31180302383F31188EF
:10249000704780F311887047194B10B51B6873B3F0
:1024A000184A5268012A2AD0174A8020C2F80031FF
:1024B000FFF7EAFB05281FD14FF4C070FFF79CFA25
:1024C0000128044604D102214FF4C070FFF7D8FD63
:1024D00007220E4B1A610122A3F580535A60094A64
:1024E0001369DB07FCD5012C09D12146BDE810405A
:1024F0004FF4C070FFF7C4BD0122054B5A6010BDF8
:102500000817002000C001500080005000E001507A
:1025100000D0015000224FF40031074B1A60074AE7
:10252000516602F598325268012A02BF044AD2F875
:1025300000211A60704700BF08170020009000506B
:1025400000800050044A4178536F23F4407343EAFB
:1025500001235367704700BF004000507047704729
:1025600010B5044608B1FFF7D5FF0E4A136943F0D2
:102570000403136102F024F8FFF7F0FFFFF77CFF7C
:102580001EF04EF8FFF77CFFFFF7E9FF02F02CF892
:102590001CB1BDE81040FFF77FBFBDE81040FEF75B
:1025A00011BF00BF00ED00E010B5044608B1FFF711
:1025B000B1FF0C4A136943F00403136102F000F801
:1025C000FFF75AFF1EF02CF8FFF75AFF02F00CF845
:1025D0001CB1BDE81040FFF75FBFBDE81040FEF73B
:1025E000F1BE00BF00ED00E0FFF794BFFFF754BF5E
:1025F000034A0179D36E23F030030B43D36670474F
:102600000040005070470000F8B504461C4BD3F85A
:102610008420D106FBD4D3F88430C3F381139C42C9
:102620002CD0FEF7B5FE012C064602D12146FFF75D
:1026300021FDFFF721FF4FF00072124B07465A664B
:102640002046FFF7DFFF4FF480630D4D621E93407D
:102650002B676B6E9A0103D4D5F884309B060AD59C
:102660003846FFF70DFF022C08D13046BDE8F84090
:102670000021FFF7FFBCD5F88430EAE7F8BD00BFC2
:10268000004000500060005007B518B90191FEF7F6
:102690007FFE0199064B1B7843B1064B984205D843
:1026A000012003B05DF804EBFFF7AEBF0220F8E7AE
:1026B0000C170020005A62020278034B012100200F
:1026C0001A70FFF7E1BF00BF0C1700204FF0004267
:1026D00010B501244AF6CD31154B5A66154A03F55B
:1026E0000B2354605A6C1964224088B9996811F020
:1026F000010F114903D08C60D86AC007FCD50123B3
:102700004B6012B10D4B0E4A1A6416F02DF810BD35
:10271000D96A0907FCD42021074B59620121A3F58E
:102720008053996005494B6A9B06FCD5E9E700BFD9
:1027300000900050005009500060095000400950BE
:102740003254FFFF4FF0004238B5194B194C5A660E
:10275000012203F50C235A604AF6CD33656C2364DD
:102760004378154093401343134AD363A368827898
:1027700023F0740343EA0213C278002A14BF042230
:1027800000221343A3600279837943EA0223236181
:102790004279C37943EA022363610078FFF796FF29
:1027A0000DB1064B236415F0DFFF012038BD00BFDB
:1027B0000090005000400950004000503254FFFF8C
:1027C00070B5054614460E46FFF756FE296881EAA5
:1027D000040202EA06044C402C60BDE87040FFF79A
:1027E0004FBE0000F8B504460D461F4616464AB1D6
:1027F00001238B403021194A01FB0022FFB141F235
:102800001001535004EB4403072D4FF00F014FEA22
:10281000031317D8A80006FA00F2814010481844A4
:10282000FFF7CEFF56B9012130230C4801FA05F518
:1028300003FB040077B141F21003C550F8BD42F22A
:102840001001DEE7A5F10800800006FA00F28140E1
:102850000448E4E742F21003EFE700BF00C0035072
:1028600004C003500CC00350F8B505460E4614468C
:102870005AB3826803F0030722F440728260FFF7C4
:10288000FBFDAA6882EA072303F440735340AB6060
:10289000FFF7F6FD36B9104B9D4217D12E20FFF7FA
:1028A00025F90646AB680D4BD85D60430DD06FEA45
:1028B000C4040444A319B3FBF0F3AA68013B9207D4
:1028C00002D5002B08BF0123AB61F8BD044B9D422C
:1028D000E8D12F20E3E700BF0000015A730D02008A
:1028E00000800650043021B100F5805001230360C0
:1028F000704700F50050F9E738B500230E4A03642D
:1029000000F50053DA634A7804460D4600F10803E7
:102910007AB903F5805302221A602046D5E90112E4
:102920002B7BFFF7A1FF20462978BDE83840FFF751
:10293000D9BF03F50053EEE7FFFF1F00884B2DE9D9
:10294000F043984222D0874B984240F00581864B55
:10295000402505264FF000084FF0030C996800F55C
:102960000054C26B12F4C06F16D0970510D5FD222B
:102970005A7009221A700022026493F90110012989
:1029800000D15A7093F90100BDE8F083774BDFE77F
:102990005605EED5FE22EBE71F78082F00F2D8800F
:1029A000DFE817F009001F0041004C0069007400C7
:1029B00096009E00CD004C880A88E5060AD5120ACA
:1029C00002F0060242F0F002012119704263C16078
:1029D0000120D9E702F0FE02A10748BF42F0010240
:1029E000F2E7170607D5802100F50052D1634FF6B4
:1029F00008721A8062E05206EAD54A88E563D70673
:102A000004D502221A700B784363E1E7920765D57B
:102A100007221A701B7901EBC3010B89012BD7D157
:102A20000823C360D4E71706DDD45206D0D54A8800
:102A3000E563970752D583F800C092E74C880A886F
:102A4000E50643BF120A02F0060242F0F00202F06D
:102A5000FE02640709D51C7942F0010201EBC401B2
:102A60000989012904BF0821C160042119700123CB
:102A7000C3604263ACE71706B5D45706A8D54A88A9
:102A8000E56352072AD507221A70A1E71A795F88F1
:102A900001EBC20EBEF80890B94511D80132D2B28E
:102AA0001A714F88A3F8028017F0040FC3D1FF07F3
:102AB00002D4012A7FF655AF08221A700223B0E72C
:102AC000DEF80420791C5980D25D42630622DBE7E0
:102AD000170688D457067FF57BAFE5631E7040E785
:102AE00094067FF575AF456A214C46691A793440E2
:102AF000B4F5003F04BF466A4FF4005601EBC20133
:102B000000F500540A8908BFE6632026E6635C8866
:102B1000A24281BF4968661C5E800D5559888A4271
:102B2000CAD90424012AC46004D9013A914201D1CE
:102B30000822C2601A78092A3FF41DAF48E7D2057F
:102B40007FF546AF4FF4807100F50052D16310E776
:102B50004FF609321A800EE76FF0030014E700BF4A
:102B60000000015A008006501C170020101700209A
:102B7000200002001C4B10B4984207D01B4B984217
:102B80002ED06FF003005DF8044B7047184B0269BC
:102B9000D20744BF2022C2604A88940702D50C891C
:102BA000002CEED0520702D50A8A002AE9D04FF451
:102BB00080721A60002299601A71C023C360436951
:102BC000DB050FD4202200F50053DA63094A5DF8D3
:102BD000044BDA63036C43F4FC630364FFF7AEBE9B
:102BE000054BD4E7436AEAE70000015A008006502B
:102BF00010170020FFFF1F001C1700204FF40032A9
:102C0000054B9A6641F6713203F51C33DA630122F3
:102C100003F50053DA6070470090005041F67132BE
:102C20000121064BDA6303F50052D1600022DA631A
:102C30004FF40032A3F518339A6670470000035032
:102C40004FF0B0435A6812B19A6A002AFAD170471D
:102C5000CB784A7810B55B010C7843EA82030A7995
:102C6000234343EA02130C22424302F1B0421363AE
:102C7000012C02BF8A78024B43F8202010BD00BF10
:102C8000E880035008B54FF0B0435A6802B960B10C
:102C90005B680BB1FFF7D4FF4FF0B04130B10120BA
:102CA000074B5860FFF7CCFFC86008BDFFF7C8FFAF
:102CB0000223CB60FFF7C4FF0122024B5A60F4E706
:102CC00000100058002000584FF0B0435B6870B50A
:102CD0000BB1FFF7B5FF0121104B457859608378A0
:102CE0000679002BC37814BF02240024002B14BFE4
:102CF000042200224379DB0043EA06132B432343DB
:102D000013434FF0B0429360054B59600378002B9A
:102D100014BF0B460223D36070BD00BF00200058D3
:102D2000001000584FF48032064B5A6603F5E62334
:102D30005B69C3F38512827003F03F021B0B427084
:102D4000037070470090005030B5174CA0421BD064
:102D500004F58044A04219D004F58044A04217D065
:102D600004F58044A04215D004F58044A0420CBF75
:102D700004204FF0FF3006250C4C6BB105FB001012
:102D800004EB8000C26030BD0020F4E70120F2E7D0
:102D90000220F0E70320EEE705FB0010120204EB2F
:102DA0008004E260EFE700BF008004500081035020
:102DB000036BDA0702D503695B06F9D4704710B5D7
:102DC000FFF7F6FF012200F500531A630B79044662
:102DD00048881B0243EA8043487A03434878002826
:102DE00014BF402000200343887A002814BF8020AD
:102DF00000200343C87A002814BF2020002003438A
:102E0000087B002814BF102000200343487B0028C3
:102E100014BF0820002003438879002814BF4FF412
:102E2000803000200343636004F580531A630A78FE
:102E30000AB90223E36000236362C8790B7A4979F7
:102E400043EA8003002914BF102100210B43A36033
:102E50000AB10123E36010BDF8B51446FFF7A8FFDF
:102E6000012200F500531A63E279A379002A627AFD
:102E700014BF4FF480170027002A14BF102200222D
:102E800094F80BC000EB411543EACC433B4313439A
:102E90002B66237A064623B3237B2A6E42EA4342FB
:102EA0002A66013B18BF0123A278FFF74DFF0123DB
:102EB00006F580563363637822781B0643EA826303
:102EC000E27843EA0233227943EA8223627943EAD1
:102ED0000223A27A002A14BF0422002213436B6645
:102EE000F8BD2B6E2B66E2E770B5054616461C460C
:102EF00021B94FF42070FEF7F9FD0146402C1BD09C
:102F000003D8DCB1202C1BD070BD602CFCD1042375
:102F100003FB06F2560806EB4113B3FBF2F3094A32
:102F2000203B02EAC303AA6822F06002AA60AA68F2
:102F30001443AC60EB61E7E70623E9E71023E7E71A
:102F40000823E5E7F8FF7F00012200F580535A606F
:102F5000CB43934003F00A034361416111B900F58B
:102F60000050426070470000012200F5805310B508
:102F70005A6040F6AA6341F20502436100230E49FC
:102F80008360C365C26000F500520361C361C3641E
:102F900091640A498365884202D0094CA04207D156
:102FA0008842036502D0064B984201D10023436555
:102FB0000123536010BD00BFFFFF010000C005509A
:102FC0000000065070B50D46FFF7CEFF012300F557
:102FD00080567360AB7C04461BB1836843F080432A
:102FE0008360EB7C5BB1354A2B7D944245D1A2F5E1
:102FF0001032C2F88C31E36D43F08003E3652A8A16
:103000006B7B20461343EA891343E3602B7BD5E9AE
:103010000112FFF769FF6B7D1BB1A36843F4803396
:10302000A360AB7D1BB1A36843F40043A360EB7DB9
:103030002A7E1B07120502F4E00203F0E04313436B
:10304000A365697E1D4A8B1E012B1D4B1FD8944220
:103050001BD002F5804294420CBF01224FF0FF3298
:1030600003EB4213022041F21C620329985020D145
:103070000423F3652B78636170BD124A944204BF48
:10308000A2F52032C2F89C31B5E70022E8E794426D
:103090000DD00C4A94420CBF01224FF0FF3203EBDB
:1030A0004213022042F21C6201299850DFE70022FD
:1030B000F5E7042204F50053DA65DBE700C00550AC
:1030C00000C003500000065083691B06FCD5406A0F
:1030D000C0B2704783695B06FCD5C16370470000CE
:1030E00038B50446054D15F066FB0FCC0FC594E8C6
:1030F000030085E80300002038BD00BF281700202A
:1031000047F6FF739A42F0B563D0022963D8334B78
:10311000CF0003EBC10013F831108478012913D1DB
:103120000025C3781B1B9D4202D3E018C0B2F0BD3E
:10313000591B4668A3EB510136F911609642D4BF82
:103140000D4601F1FF33EEE740680028EFD0B0F9FB
:103150000010914204DBB0F902109142B8BF114651
:1031600082883B44FF2A19BFC8222826B0F90620CE
:10317000B0F90860A2EB01020CBF0125002592FB0B
:10318000F6F25F782A447B1E934228BF13464FF421
:103190007A7E00EBC305AE68EA88AC4611FB02629A
:1031A0001E4622EAE272013302F5FA729F42B2FB36
:1031B000FEF204D9BCF80CC008359445EBD200EB04
:1031C000C6008088904228BF1046A04238BF2046E3
:1031D000ACE7FF20ABE70020A9E700BF28170020DD
:1031E0000229F0B553D82B4800EBC10410F8311078
:1031F000636801290FD1E078A478904294BFC4EBB2
:103200000001C4EB0201001BCAB28242C8BF002207
:1032100033F91200F0BD002B39D0A178914202D3CE
:10322000B3F90200F6E7E178B3F900009142F1D971
:1032300099886478A1F1FF06013C714203F104050D
:10324000E4B2714103F10C071FFA82FCCEB2B44222
:1032500016D805EBC1014FF47A756A43B1F9024003
:103260004968521A04EBD47102EB610292FBF4F24A
:103270009042CFDBB3F902009042CBDC10B2C9E739
:1032800037F831E04E1CE645E3D33146DEE702482D
:10329000C0E700BF281700200080FFFF08B50448E2
:1032A000FFF71EFFBDE80840012015F086BA00BFF9
:1032B0000C14020000487047960B00207FB50222D4
:1032C000084B0949CDE901234FF00073CDE9031301
:1032D000052301A94FF0FF30059315F0D3FA07B08D
:1032E0005DF804FB006A18000002040007B56B4695
:1032F000054A1068516803C36846FFF723FA0020A7
:1033000003B05DF804FB00BF770D020013B5002485
:10331000064A6846536F43F00103536700948DF8E3
:103320000440FFF765F9204602B010BD0040005090
:1033300030B58BB06C46154D0FCD0FC40FCD0FC4FB
:1033400095E8030084E80300114BD3F84C211203E5
:1033500014D4D3F85041E4B28DF81940FEF700FEC2
:10336000204480F308008DF818000A48FEF746F85C
:103370006846FEF755FD00200BB030BD064B1C889B
:103380004FF6FF739C4208BF8C24E5E7800D0200D6
:103390000080E00F00F049020001E00F08B50120B5
:1033A000FEF728FE002008BD30B5094D87B001ACFE
:1033B0000FCD0FC42B6801A8236019238DF80530A9
:1033C000FEF7D4FD6420FEF70FFE002007B030BDED
:1033D000A80D02006FF00402502110B50A480B4CF2
:1033E00012F0800FD3B21BBF03F00F03043BA318EE
:1033F0001B1802F101020CBF83F800131976402A52
:10340000EED1002010BD00BF00ED00E000E100E0C3
:1034100000F078B838B501F059FA0446E0B901F087
:1034200055FB4FF4167343430C4803F5742303F222
:103430003F23B3FBF0F30A4A0A4913600A220D68DE
:103440000948013A12F0FF0240F8043BF9D103EBBE
:10345000C3022B4413440B60204638BD40420F008A
:103460007C170020481700204C170020012208B5C7
:10347000034B1A7001F01EFB024B186008BD00BF21
:103480004417002078170020F8B5144C237823B394
:1034900001F010FB124B134D1B68134EC01A01288C
:1034A00038BF0120114B124F18602B7856F823209B
:1034B00046F82300111A3A680E48521A0A213A6057
:1034C0000932B2FBF1F20133DBB20260B3FBF1F27D
:1034D00001FB12332B7000232370F8BD441700202A
:1034E00078170020741700204C1700204017002088
:1034F000481700207C170020014B1868704700BF58
:103500007C17002020234FF400220A4981F82C3335
:10351000094B5A66094A03F5405303F500504267C8
:1035200002674FF48050C1F88401486003445A6731
:10353000704700BF00E100E000900050010000A0D3
:10354000044B9A6DD20702D40028FAD170470120AB
:10355000704700BF00C000500C4B10B51C6FE20755
:1035600007D5012203F500531A67FFF78DFF00F01E
:1035700061FF14F000521CBF054B1A67002CBEBF40
:103580004FF00042024B1A6710BD00BF00C0005050
:1035900000E00050FFF7E0BF10B50446FEF76CFFF7
:1035A000024B1C60FEF76CFF002010BD801700204E
:1035B00010B5FEF761FF034B1C68FEF761FF204664
:1035C00010BD00BF8017002007B530B9CDE900124B
:1035D000FFF7EEFFDDE9001230B1436823B1006868
:1035E00003B05DF804EB1847232003B05DF804FB3B
:1035F00030B51C4685B058B9CDE90012FFF7D8FFA9
:10360000DDE9001204B903AC20B9232005B030BDB8
:1036100003B903AC8568002DF7D023460068A8479E
:10362000F4E70EB477B507AB53F8046B0546019386
:10363000B0B9FFF7BDFF04460546304601991CF0BE
:103640002DF9AC42064602D02046FFF7A5FF002E1A
:10365000D4BF3720002003B0BDE8704003B07047EE
:10366000FFF7A6FF85420446E7D02846FFF794FF00
:10367000E3E700207047FEE74FF4005300204B6063
:103680007047012070470020704707B5002001AB4C
:103690000190FFF7ADFF0198002808BF4FF0FF3001
:1036A00003B05DF804FB10B514460020FFF78CFF53
:1036B000204610BD034B022218680023806819467B
:1036C0001CF028B89C0C002090F82A3001223BB155
:1036D00090F82E30022B03D180F82E201846704728
:1036E0001346FBE780F82410704790F824007047D9
:1036F00090F82B0070470000002808DB01234209E6
:1037000000F01F0003FA00F0014B43F8220070475D
:1037100000E100E0002809DB0122430900F01F005E
:1037200002FA00F0024A603342F82300704700BFFB
:1037300000E100E0F8B504460D4690F82B3081B169
:1037400073B990F82C60FEF797FE054601213046CC
:1037500000F09EFC2846FEF793FE012384F82B30F0
:10376000F8BD002BFCD090F82C70FEF785FE0646C5
:103770002946384600F08CFC3046FEF781FE84F87E
:103780002B50EDE770B504460568FFF711FF844242
:1037900002D10020FFF700FF95F92800FFF7BAFFDC
:1037A00095F92830002B0DDB01215A0903F01F0386
:1037B00001FA03F31449203241F82230BFF34F8F4E
:1037C000BFF36F8F95F92900FFF7A4FF95F9293012
:1037D000002B0DDB01215A0903F01F0301FA03F34B
:1037E0000949203241F82230BFF34F8FBFF36F8F6A
:1037F00000232846C4E90033C4E90433A360EB681E
:10380000BDE87040184700BF00E100E02DE9F04737
:10381000044616460D4690F82480FEF734FE94F8D0
:103820002A2003469AB1FEF734FE94F82D90FEF755
:1038300023FE07460121484600F02AFC3846FEF7E1
:103840001FFEFEF720FE0022034684F82A201846B9
:10385000FEF71FFE2E44B8F1000F23D1AE4205D172
:10386000204663680121BDE8F047184794F82630E8
:10387000002BF3D02046236815F8011B9847002839
:10388000ECD0BDE8F08794F826305BB12B780A2B9A
:1038900003D10D212046236898472046236815F858
:1038A000011B9847AE42EED1DAE72DE9F7434FF01E
:1038B0000009044690461E46C3F800904F1E336828
:1038C000434505D2FEF7DFFDA269C2B9FEF7E1FD6F
:1038D00094F827305BB91123012220460DF107012E
:1038E0008DF80730FFF792FF012384F82730336803
:1038F000002B0CBF1B20002003B0BDE8F083E16962
:1039000022698A5C07F8012F2569226A01359542F0
:1039100008BF4D46A2692561013AA261FEF7B9FDD3
:10392000A36820469847336801333360C7E708B57A
:10393000FFF76CFF002008BDF8B51F465368064628
:103940000C461546002B5BD09368002B5AD03022D2
:10395000002120461BF0CFFD6B682B4AE361AB686A
:10396000204623622B7B84F82430AB7B276084F8CD
:10397000253040F20113E384069B00276360079B18
:10398000A360089BE3602B7884F828306B7884F878
:1039900029301E4B346073601D4BB3601D4B336187
:1039A0001D4B73611D4BF3601D4B3362012384F883
:1039B0002E30B2611B4AF2619DF8282084F82D2038
:1039C0009DF8242084F82A3084F82C20697B84F820
:1039D0002B70FFF7AFFE95F90100FFF79BFE95F9FD
:1039E0000100FFF789FE95F90000FFF793FE95F9B6
:1039F0000000FFF781FE3046FFF7CEFD3846F8BDE8
:103A00002220FCE72120FAE7353700002F3900009B
:103A1000AB380000E5360000EB36000085370000CB
:103A2000C9360000F136000010B50446FEF72BFD44
:103A3000A269236A9A4203D2FEF72BFD012010BD32
:103A4000FEF727FD0020FAE737B504460D4600E0F3
:103A500000BFFEF718FD94F8253002466BB1132D18
:103A600007D1002384F8263003B0BDE83040FEF7CC
:103A700010BD112D01D10123F4E76369E1691046FE
:103A8000CD54A16963690131A161216A01338B427F
:103A9000636104BF00236361FEF7FBFC0423A2699A
:103AA00084F82E30236A9A420BD113230122204638
:103AB0000DF107018DF80730FFF7A8FE002384F809
:103AC000273003B030BD90F82A3073B5044603F0B8
:103AD000FF01A3B9436801919847012384F82A3074
:103AE00094F82D60FEF7C8FC05460199304600F0B9
:103AF000CFFA2846FEF7C4FC022384F82E3002B029
:103B000070BD026BD36C43F00403D364704710B5EF
:103B10000446026B93695906FCD5002394F83910CA
:103B20001A4694F83800FEF75DFE002394F83B1027
:103B30001A4694F83A00FEF755FE94F84030DA073A
:103B400007D5002394F83D101A4694F83C00FEF780
:103B500049FE94F840309B0707D5002394F83F10A6
:103B60001A4694F83E00FEF73DFE206B0021FFF759
:103B7000EBF9606B0021FDF797FF002010BD08B541
:103B8000006BFFF7A7FA002008BD036BDA6C19B1D0
:103B900042F00102DA64704722F00102DA64012285
:103BA00003F500539A6470472DE9F04101271C4644
:103BB000594B86B00293594B0C9D0193584B90463C
:103BC00000930A46CDE903772946564BFFF7B4FE2A
:103BD000064600287AD1236839462B6363683A2069
:103BE0006B63637A85F83930237A85F83830E37A65
:103BF00085F83B30A37A85F83A30637B85F83D3011
:103C0000237B85F83C30E37B85F83F30A37B85F848
:103C10003E30FDF749FF3B460422617A207AFEF7E9
:103C2000E1FD3B460222E17AA07AFEF7DBFD394650
:103C30006068FDF739FF88F8006041462068FFF7AB
:103C4000C1F91422237C5B0103F1A04303F5703317
:103C5000C3F81C26617A227A42EA0142C3F834266C
:103C6000E17AA27A42EA0142C3F82C2685F8406044
:103C700098F81930032B4CD8DFE803F01A022C46D1
:103C80000123002785F8403000230222617B207B3E
:103C9000FEF7A8FD637B227B217C42EA0342224B94
:103CA00049015A500422236803F58053DA65A7B905
:103CB000237A052185F83830637A85F83930206811
:103CC000C36C43F00403C364FFF73EF9304606B00B
:103CD000BDE8F081022385F8403000230422E17B17
:103CE000A07BFEF77FFD022741F21C61227C0F4B77
:103CF00003EB42104750E07BA17BB13241EA004127
:103D000003EB42139960D3E70323012785F8403082
:103D1000BAE72326DAE700BF0F3B0000033B0000B1
:103D20008B3B00007F3B000024D6035000C00350B3
:103D3000036B10B59B690446190609D5FFF774FE9D
:103D4000B0B1206BFFF7C0F901462046FFF77CFEBB
:103D5000236B9A6CD20711D5012103F500529164AF
:103D60009B699B060AD52046BDE81040FFF7ABBE15
:103D7000226BD36C23F00403D364E9E710BD000089
:103D8000BFF35F8F074B5A6A22F480325A62D3F82E
:103D9000942022F00102C3F89420BFF34F8FBFF3A9
:103DA0006F8F704700ED00E070B52648264CFFF796
:103DB000E7FF844208BF4FF08043244A18BF20F039
:103DC0001F03D2F8C01018BF203B21F0FF0141F0C3
:103DD000A001B3F1005FC2F8C0100CD31C4D1D4E02
:103DE000296843F00103C2F898100131C2F89C60C1
:103DF000C2F8A0302960844210D01548164B0268E2
:103E0000124923F01F0343F00303C1F89820C1F8BF
:103E10009C30124B0132C1F8A0300260BFF35F8FBB
:103E200005220A4BC3F894205A6A42F480325A623F
:103E3000BFF34F8FBFF36F8FBFF34F8FBFF36F8F02
:103E400070BD00BF040D0020DC0E002000ED00E07E
:103E50008417002003000020FB0E0020E1FFFF3F3D
:103E600010B51446FFF78CFF1F2C24D91C4A1D4C9B
:103E7000D2F8C03023F47F4343F48073C2F8C030DB
:103E8000C2061CBF20F01F002030CB06144A236856
:103E900018BF21F01F0120F01F0021F01F01C2F800
:103EA000983040F0030041F003010133C2F89C0058
:103EB000C2F8A0102360BFF35F8F0522084BC3F840
:103EC00094205A6A42F480325A62BFF34F8FBFF394
:103ED0006F8FBFF34F8FBFF36F8F002010BD00BFF8
:103EE00000ED00E084170020BFF34F8F0549064B1B
:103EF000CA6802F4E0621343CB60BFF34F8F00BF88
:103F0000FDE700BF00ED00E00400FA0508B5FFF78B
:103F1000EBFF08BD034B1B78002B14BF01200220D0
:103F2000704700BFB81700200329F8B598BF124B9F
:103F300005460E468CBF00245C5C032805D8DFE8EC
:103F400000F002080B0E44F002040C4B1F684FB93E
:103F5000F8BD44F00804F8E744F02004F5E744F025
:103F60008004F2E77B681A68144203D03146284681
:103F70005B6898473F68EAE7BC0D0200B417002071
:103F800038B5104D2B78ABB10F4C23781BB100F036
:103F900057FB00232370002000F074FB0B4C50B142
:103FA00000F07AFB0023012120782B70FFF7BCFF83
:103FB0000123237038BD0122054B1A702278054B6E
:103FC0001A70F7E7B2170020AD170020A4170020E1
:103FD000B1170020C417002010B5FEF74DFA064BAC
:103FE00004461B781BB1BDE81040FEF749BAFFF745
:103FF000C7FF2046F7E700BFAC170020002814BF1A
:104000000121FF21074A13780B44137008D0064B97
:104010001B78012B04D9054B1B780BB9FFF7B0BFF8
:10402000704700BFB8170020A4170020B117002068
:1040300070B5FEF721FA114E054633788BB900F0C2
:1040400045FC044620B12846FEF71AFA204670BD0A
:104050000B48FDF7F5F90B4B1C6000F037FD0A4BE0
:10406000186000F02FFA00F04BFB084B002418609A
:10407000012328463370FEF703FAE7E7AE17002066
:10408000B4170020C8170020C0170020A817002070
:1040900000292DE9F34114BF0121FF21254A00F138
:1040A000FF30135C0B4413543AD0234E3278012A6C
:1040B00036D9FFF72FFF0128044634D81F4FFEF7EB
:1040C000DBF93B781BB31E4D2B781BB901222A70FC
:1040D0001C4A1370DFF8708098F8003033B10190FB
:1040E00000F0AEFA0023019888F80030FEF7C8F916
:1040F000012000F0C7FAFEF7BFF92B782BB1019031
:1041000000F0CAFA002301982B7000233B70FEF7E1
:10411000B7F93078A04203D02146FFF705FF34708D
:1041200002B0BDE8F081032AF3D10228F1D100F0FA
:1041300001FBEEE7B8170020A4170020B2170020FB
:10414000AC170020B1170020AD17002010B50446B1
:10415000FEF792F9002C14BF0121FF21064A1378C3
:104160000B44DBB21370B3FA83F3BDE81040034A8B
:104170005B091370FEF784B9BB170020BA17002043
:1041800068B5FEF779F9094B06461B78012B04D870
:10419000FEF776F90025284668BD054B1D6800F03E
:1041A000B3FA05443046FEF76BF9F4E7A417002094
:1041B000C817002007B5FEF75FF90190FFF7E0FE92
:1041C000019803B05DF804EBFEF75AB938B54160C9
:1041D0000446FEF751F9054621460448FDF733F938
:1041E0002846BDE83840FEF74BB900BFB4170020A1
:1041F000054B1B685843054B00F5742000F23F2027
:10420000B0FBF3F0704700BFC017002040420F0022
:104210002DE9FF47FEF730F9044600E000BFFCF748
:104220009FFF002800F09C806D4E6E4F337823B1C5
:104230000020FFF7E3FE00233370FFF76BFE054617
:10424000002800F09580851EEDB2012D40F2988087
:10425000FFF760FE0128804604D9634B1B780BB939
:1042600000F0ACF9614DDFF8A4912878DFF8A0A147
:1042700040450AD0002389F800309AF8003013B97D
:104280004146FFF751FE85F8008099F800303BB1B8
:104290002B78022B04D1002389F8003014F088FF1A
:1042A000B8F1010F0FD9DFF8408198F8003053B909
:1042B0004F4B1B7823B900F0BDF901224D4B1A700A
:1042C000012388F80030287800F004FA9AF80030CA
:1042D00013B1494B1B782B7000E000BF2046FEF75E
:1042E000CFF8FEF7C9F8454B04461A7852B10022C0
:1042F0001A70414B28781B78984203D1012129700C
:10430000FFF712FE384600F01BFBFCF734FF804637
:1043100000288BD1344F89F800003B789BB1DFF83F
:10432000D4908AF8000099F800301BB100F088F9A9
:1043300089F80080002000F0A5F9002846D000F0A0
:10434000ABF900233B70337823B10020FFF756FE12
:104350000023337000212878FFF7E6FD00232B703F
:1043600000E000BF204604B0BDE8F047FEF788B883
:104370003378002B3FF46CAFFFF740FE357067E7F2
:10438000002003A900F05EFB054600287FF460AF23
:104390001B4B039A1B689A4205D80120FFF72EFE9B
:1043A0000123337054E7174BD3F8008000F0ACF9C9
:1043B000039940448842F0D20223091ACDE9005300
:1043C00038462B46104A00F0E3FA41E7012000F09E
:1043D00081F92046FEF754F8FEF74EF80446A9E7A7
:1043E000BC17002088170020B2170020A417002057
:1043F000BB170020AD170020C4170020B017002005
:10440000A8170020C8170020D93F0000BA170020C5
:10441000B117002010B5FEF72FF80022044B1C78CE
:104420001A70FEF72DF800F049FC2043C0B210BD11
:10443000AF17002010B5094B1B786BB1084C2378DF
:1044400053B100F029F90023064A237013700123A9
:10445000054A1370054A137010BD00BFA417002051
:10446000B1170020B2170020AF170020B0170020AE
:104470007047000073B5114E04463378834212D062
:1044800000238DF8043080B102238DF8053001A897
:10449000FEF758F80A4D402054B1FFF7A9FE2B68EB
:1044A000181A2860347002B070BD8DF80500EEE770
:1044B000FFF79EFE2B681844F3E700BF9C0B00201B
:1044C000D417002073B5002401A88DF80440FEF72E
:1044D000F3F820464FF40024FFF7CCFF3149324B6C
:1044E0000A6F02F007021A60D1F82031D1F82401D6
:1044F00001F580514C664FF400344C6601F598315B
:104500008969032A00F0070001F0020141D003F09D
:1045100003039C1E63426341022808BF43F001036A
:104520002248234D037061B31E4A3BB9D2F80031D3
:1045300003F00303591E4B424B410370D2F8003184
:1045400003F00303022B26D0032B27D0012B18D115
:10455000FCF74EFFA8B1174B411EDC680023024652
:1045600008461946C4F30B04134E013404EB8404CB
:10457000E4FB06011AF0A8FDFFF73AFE2B68184489
:1045800028606420FFF734FE2B681844286002B0CE
:1045900070BD0123C0E7FCF74DFFDBE7FCF73EFFF2
:1045A000D8E700BF00800050CC170020D2170020B1
:1045B000D417002000C0015040420F00FEF714B88D
:1045C000074B1A7852B100221A70064A136F23F073
:1045D000070343F001031367FCF7F4BE704700BF05
:1045E000D0170020008000500E4B10B51B7883B10F
:1045F000022000F017FC60B100F056FA48B10A4BF7
:104600009A6DD20306D5DB6D9B0703D50122074BBC
:104610009A6210BD0124064B1C70FEF727FF034B66
:104620009C62F6E7D217002000C0005000D0005076
:10463000D11700200122014B1A707047D0170020BB
:1046400038B50C4B1B786BB10B4C23787BB90B4BFB
:104650000B4D9A6D12F4803F05D0DB6D9B0702D5A0
:104660000123AB6238BDFEF701FF0123AB620023DB
:104670002370F7E7D2170020D117002000C00050A8
:1046800000D00050034B1B780BB1FEF759BF01203F
:10469000704700BFD217002008B5FDF7A7FF094AF1
:1046A0000949136F096823F007030B431367074B8E
:1046B0001B7813B10122064B9A62BDE80840FCF753
:1046C00081BE00BF00800050CC170020D217002010
:1046D00000E0005002280AD003280BD001280CD19A
:1046E000064A136923F00403136130BF70470020AA
:1046F000FDF736BF0020FDF757BF704700ED00E023
:104700004FF4C870FFF774BD08B5054B187818B1A1
:10471000FEF7F2FE00EBD000024B1B68184408BD08
:10472000D2170020D41700200122014B1A707047C5
:10473000D2170020704700230B70704710B500F0AF
:104740000BFB0A4C0A4B19682368C31A01B10BB959
:10475000206010BD4A699A423ABF9B1A0022D21AC1
:104760004A6128BF00238968F0E700BFDC170020FA
:10477000F0170020C38870B504460D463BB9FFF71B
:10478000FFFC8542064602D2FFF714FD35460F496D
:1047900065610B68ABB90C60A36011E0AD1A9A6853
:1047A000184665612AB113465A69AA42F6D950B132
:1047B0001A4613468460A36013B15969491B5961B5
:1047C00070BD0020F0E70C60F5E700BFF017002097
:1047D00038B5134D2B685B6993B1124A02201468F7
:1047E0001C4400F0F3FA204600F0BEFA00230E4904
:1047F0002A680B70D088800709D501230B7038BD5B
:10480000022000F0E3FA022000F004FBEEE79268D9
:10481000002AF4D050690344012BEBD9EFE700BF25
:10482000F0170020DC170020E417002070B51646B2
:104830009DF81420C0E903360271049ABDF81830BF
:1048400002600022C380826004460D4600F084FAB4
:104850003044A0613DB9E368656113B12046216829
:10486000984796B13546FDF707FE0646FFF766FF07
:1048700029462046FFF77EFF054B1B68A34201D166
:10488000FFF7A6FF3046FDF7FBFD002070BD00BF1F
:10489000F017002000220C490B687BB183420AD13B
:1048A00083687AB1936083681BB15A6941690A448D
:1048B0005A61002070471A469B68EEE70028EFD047
:1048C000022070470B60EEE7F017002070B5FDF78F
:1048D000DAFD144E05463478FCB9134B1C60134BBB
:1048E0001C60134B1C8000F0F5F9012000F06EFAFB
:1048F00000F0C2FA0F4B0246186020B92846FDF7B7
:10490000C8FD232070BD234640F2E7310A481AF063
:10491000DBFB0A4B1860012333702846FDF7B9FD15
:104920000020EFE7D8170020F0170020DC17002048
:10493000E6170020EC17002018FCFFFFE01700200E
:104940002DE9F0410546F8B1FDF796FD0F4F0646FB
:10495000FFF7F4FE2846D7F80080FFF79BFF0446D8
:1049600028B13046FDF78CFD2046BDE8F081A84512
:104970003B6803D123B1FFF72BFFF2E7002BF0D107
:10498000022000F02FFAECE72224EDE7F0170020D8
:1049900070B586B015461E460446059180B1FFF7F6
:1049A000CFFFBDF82C30002202939DF8283020461E
:1049B000CDE9006305992B46FFF738FF06B070BDBF
:1049C0002220FBE738B50C46054698B191B100238B
:1049D0000B70FDF758FD0121074B1B680BB12278C6
:1049E0001AB1FDF756FD002038BDAB4214BF9B68DD
:1049F0002170F3E72220F7E7F0170020F0B51F46FB
:104A0000002387B00D46164604468DF81730A0B136
:104A10000DF11701FFF7D6FF9DF817207AB9BDF801
:104A20003430294602939DF830302046CDE900739A
:104A30003346FFF7FBFE07B0F0BD2220FBE7032063
:104A4000F9E700002DE9F04107468846FDF71BFD18
:104A500000260546124B1C6824B92846FDF719FDAF
:104A60001B2016E063691E44E388BB4215D100F0A9
:104A700073F90C4C2368C01AB0420CD200F06CF9E8
:104A800022683244121A2846C8F80020FDF701FDBA
:104A90000020BDE8F0810022F5E7A468DCE700BF54
:104AA000F0170020DC170020014B1878704700BF7A
:104AB000E417002038B5FDF7E6FC054600F04CF998
:104AC00004462846FDF7E5FC204638BD014B186832
:104AD000704700BFEC170020044B1B6858434FF48D
:104AE0007A7300F2E730B0FBF3F07047EC17002068
:104AF000012300B58BB08DF80B30FFF7EDFF0023DD
:104B00000146CDE90033074A0DF10B0303A8FFF777
:104B100075FF18B99DF80B30002BFBD10BB05DF879
:104B200004FB00BF374700000C4B70B51B680D46F7
:104B3000834211D340F2E73100248C462146084BD2
:104B40004FF47A721E680023E0FB06C160461AF03B
:104B5000BBFA2860204670BD2120FCE7E01700204A
:104B6000EC1700200F4B10B51A689AB14FF47A7108
:104B7000531E1342A0FB01010ED1B2FA82F2C2F120
:104B80001F04531CD243E04001FA03F3184321FAF7
:104B900002F20243104610BD00231AF095FA0246B5
:104BA000F8E700BFEC170020C2072DE9F3470446E1
:104BB0000BD53F4A138801339BB21380FFF7BEFD2C
:104BC0003C4B1B680BB1FFF703FEA3076DD5FDF748
:104BD0005AFC002605463746FFF7B0FDB146DFF820
:104BE000D480D8F800400CB163698BB10022324BFD
:104BF000012F1A7002D1022E08BF1F70002C44D062
:104C0000FFF7E6FD284602B0BDE8F047FDF741BCDE
:104C100023461A792179914288BF1C469B6813B1BB
:104C20005A69002AF5D02846FDF733FC256985B37B
:104C300000F092F8A269861AF317B54279EB0303E4
:104C400028DA23691344A3610123226982B17BB965
:104C5000A91B0191FDF717FC824601992046FFF739
:104C600089FDA369226950461344A361FDF711FC35
:104C7000E368E688013713B1204621689847FDF7BD
:104C800002FC0546FFF75AFDABE7022000F0AAF848
:104C9000B8E72E46FDF7F7FB82462046FFF7FAFD00
:104CA0005046FDF7F6FB0023CFE702B0BDE8F087E2
:104CB000E6170020F0170020E817002010B5FDF7D8
:104CC000E2FB034B1C78FDF7E4FB204610BD00BF60
:104CD000E81700201FB500241C4B012118689A8892
:104CE0000290D3F806009B7A00903E20ADF80C208D
:104CF0008DF80430FCF7D8FE02A88DF808408DF836
:104D00000C40FDF7E1FF694601208DF80040FDF7FA
:104D10009FFF4FF0B04240F2FF31936923F47F735D
:104D200023F0030393610A4B5961936A13F008035C
:104D3000FBD113620120FDF7A5FF4FF48052054B14
:104D4000C3F880211A6004B010BD00BFC00D02007E
:104D50000020005800E100E04FF0B0439A6A1207CB
:104D6000FCD4186A7047000010B50446FDF784FBB8
:104D70004FF0B042936A1907FCD4136A116C526960
:104D8000520604D4CA1A032A01D899420ED1E21A53
:104D9000022A98BFDC1CB4F1FF3F38BF013C4FF042
:104DA000B0431C649A6942F040029A61FDF768FBC7
:104DB000054A13783BB14FF0B041CB6B43F002038F
:104DC000CB630023137010BD9D0B002082074FF0B2
:104DD000B04200F00103916948BF43F040030B4328
:104DE00093617047820700F001030AD50121084A48
:104DF00043F0400311704FF0B041CA6B22F0030240
:104E0000CA634FF0B0418A6922EA03038B6170479D
:104E10009D0B0020830742BF4022014B5A6170471F
:104E2000001000584FF0B04301285B6904D00228FD
:104E300005D1C3F38010704703F0010070470020D4
:104E40007047000010B5FDF71EFB4FF0B04304465D
:104E50005B695A06074A03F0010003F0510348BF9B
:104E600040F002005361FFF79FFE2046BDE810406E
:104E7000FDF70FBB002000583E20FCF737BE08B5F9
:104E8000FCF796F8FCF7CCF8FCF7D1F8FCF7E4F85F
:104E9000BDE80840FCF7E9B808B5FCF7E8F8FCF70E
:104EA000E7F8FCF7E6F8BDE80840FCF7E4B80000D6
:104EB00010B50446FCF786FA0C4BA0F57A729A42BC
:104EC00012D84FF47A73B0FBF3F05C43084BB3FB9A
:104ED000F0F0B4FBF0F0022806D9BDE8104003233F
:104EE000B0FBF3F000F00CB810BD00BFFFC99A3B57
:104EF00040420F0000000000000000000000000021
:104F0000013800D0FCE7704708B503F06DF806F0F3
:104F1000DCF807F0D4F8002008BD0000024A03497D
:104F2000034802F035BD00BFCC0D02000C0E02009C
:104F3000E40D020038B50446FDF79EFA054620460A
:104F40001AF092FA04462846FDF79AFA204638BD30
:104F500037B504460191FDF78FFA019905462046C1
:104F60001AF042FA04462846FDF78AFA204603B0B2
:104F700030BD38B50546FDF77FFA044628461AF0DD
:104F80007BFA2046BDE83840FDF77ABA0A4619B1E7
:104F9000024B00211B681847704700BFA00B002080
:104FA00000F4E040B0F5805F04D0A0F50053584213
:104FB00058417047012070470E4B0340B3F1607FAA
:104FC00006D1B1F5885F14BF6FF0860000207047EE
:104FD000B3F1707F0BD101F4E043B3F5005F06D16C
:104FE00011F4E06F0CBF6FF08600002070476FF087
:104FF000860070470000C07F8A42F8B507460D461C
:1050000000F021819B4822F0FF01814210D09A4C90
:1050100022F4FF7323F00103A34209D0974B994276
:1050200006D0974922F47F7323F003038B4223D1E8
:1050300025F0FF01814210D08F4825F4FF7323F043
:105040000103834209D08D4B994206D08C4925F447
:105050007F7323F003038B420ED115F0FF030BD0B7
:10506000884943F000738B4206D16A4032F0FF0357
:105070000CBF01200020F8BD05F0FE43B3F1A06F86
:1050800017D102F0FE43B3F1A06F40F0DE8082EA58
:10509000050333F47E1340F0D88015F40040EAD0C5
:1050A000C5F30540C2F3054290428CBF00200120A9
:1050B000E1E7B3F1407F40F0B38002F0FE43B3F18B
:1050C000407F40F0C28082EA050333F47E1640F050
:1050D000BC8039462846FFF76FFF002840F0B580B6
:1050E000694C12F47C1C04EA020438D0B4F1607FED
:1050F000C2F3054C7AD16549D3B243F000738B42B9
:1051000078D003F17E410439012975D960498B4279
:1051100076D001318B4275D001318B4274D0013190
:105120008B426BD001318B426AD001318B4269D006
:1051300003318B4264D001318B4263D001318B4209
:1051400062D001318B4208BF402615F47C1FC5F3A5
:1051500005435BD1664514BF002001208BE7B4F105
:10516000607F2BD14949D3B243F000738B426ED09C
:1051700003F17E41043901296CD945498B426FD036
:1051800001318B426FD001318B426FD001318B42A4
:1051900063D001318B4263D001318B4263D0033144
:1051A0008B425DD001318B425DD001318B425DD0AD
:1051B00001318B4208BF4FF0400C9CE7B4F1707F87
:1051C000C3D107F4E043B3F5005F05D14FF0010C04
:1051D000C7F302230CFA03FC07F4E043B3F5005FC6
:1051E000B3D10126C7F302239E40AEE7B4F1707F2E
:1051F000ABD1F1E71026A8E71426A6E74026A4E7DE
:105200001C26A2E72026A0E730269EE712F47C1F8A
:1052100001D1B34217D02A047FF52DAF634544E78F
:10522000B3F1106F11D125F01F6323F4702363B91C
:1052300002F0FE43B3F1106F07D11648104040F062
:105240001060A84287E7012015E7002013E74FF020
:10525000100C50E74FF0140C4DE74FF0400C4AE7AC
:105260004FF01C0C47E74FF0200C44E74FF0300C98
:1052700041E700BF00130006000200060009000617
:1052800000040006FF0000020000C07F03000002CF
:10529000080000020000FFF62DE9F8438846174693
:1052A0001C4600F013FD0546002859D1D8F80060CF
:1052B000B6F8009009F4E043B3F5804FF36808BFF7
:1052C00027F0010737EA030342D1002C48D02F4AC8
:1052D00024F0FF03934211D02D4924F4FF7222F0F1
:1052E00001028A420AD02B4A934207D024F47F72EB
:1052F00022F0030201F500718A4234D114F0FF025A
:1053000031D022498B4211D0214824F4FF7121F081
:10531000010181420AD01F498B4207D024F47F73D8
:1053200023F00303A1F5A0618B4204D142F0007386
:10533000194A93421ED0224648463169FFF75CFE67
:10534000074668B9224648467169FFF755FED0B94D
:105350006FF0840500233046C8F8003000F004FDEB
:105360002846BDE8F88304F0FE43B3F1407F04D142
:105370002304E0D56FF08605ECE7B3F1A06FF7D01A
:10538000054B9C42D6E73D46EAE700BF0013000606
:105390000002000600090006FF00000238B503798C
:1053A00004460D4633B9A36820462B6000F0DCFCB0
:1053B00038B938BDD0E9081200F09AFD0028F2D0C3
:1053C000F7E700232B60F4E700F0FE43B3F1407FE2
:1053D00070B505460E4640F09980FFF7EDFD0028B8
:1053E00040F0968015F47C1F05D0C5F30543032BD0
:1053F00013700DD86BE04C4B2B40B3F1607F69D13B
:105400004A49EBB243F000738B4231D11023137041
:10541000454C2C40B4F1607F6AD14449EAB242F075
:1054200000728A4275D002F17E410439012972D995
:105430003F498A4271D001318A4270D001318A429B
:105440006FD001318A4211D001318A4265D00131D9
:105450008A4264D003318A425FD001318A425ED0F1
:1054600001318A425DD001318A424FD140214BE067
:1054700003F17E410439012901D81423C7E72C49DF
:105480008B4201D11C23C2E72A498B4201D1202340
:10549000BDE729498B4201D13023B8E727498B4228
:1054A00001D14023B3E726498B42EBD001318B4237
:1054B000EDD003318B42E5D001318B42E7D0013191
:1054C0008B42E9D001318B42EBD0002313706FF097
:1054D00085001DE0B3F1707FF7D101F4E043B3F52F
:1054E000005FF2D10123C1F302218B40DBB27EE7E2
:1054F000B4F1707F0AD106F4E042B2F5005F05D145
:105500000121C6F3022291408B4201D96FF086003F
:1055100070BD1021F8E71421F6E71C21F4E72021E3
:10552000F2E73021F0E700BF0000C07F0300000277
:1055300008000002090000020A0000020B0000023D
:105540000C00000200232DE9F341D0E90168044674
:105550000F4630461146136000F010FC054688B92E
:10556000304600F00DFC054660B9F6B276B9B8F1E8
:10557000000F05D1E36823F47F4323F0030363B1F5
:105580006FF08605284602B0BDE8F0810146A068AC
:1055900000F0F1FA0028EDD1F2E74FF6F8736288D7
:1055A0009A421CD8238B23F00103002BE8D1394603
:1055B00001A800F049FB05460028E3D10FCC3F6865
:1055C0003E460FC694E807003B7986E807000BB912
:1055D000019BBB603B8B23F001033B83D2E76FF061
:1055E0008505CFE7B0F5105F0DD009D8B0F5885F1D
:1055F00010D0B0F5905F0DD041F20103984209D070
:105600006FF08500704721F04003802B02D0B1F588
:10561000807F06D111F0070F14BF6FF086000020C5
:1056200070476FF08600704770B5046A05460E46F5
:105630003CB90120FFF78CFC286228B120466E623D
:1056400070BD6FF08A00FBE76FF08C00F8E773B570
:105650000E46114605460192FFF7E6FF044620B9C3
:105660003146019A286A19F01FFF204602B070BD2A
:105670002DE9F041089D88461F46048802B3204664
:10568000FFF78EFCE0B12B680BB9D3002B602046EE
:105690002968FFF7A7FF044678B9CE1DB2EBD60FF5
:1056A00011D1069B9A4211D84146384619F0FCFEAA
:1056B0002B68079A0733DB0813602046BDE8F081AA
:1056C0006FF08504F9E76FF08604F6E76FF0890460
:1056D000F3E710B50446006A10B1616AFFF756FCA3
:1056E000206AFFF746FC0020C4E9080010BD38B569
:1056F0000446FFF7EEFFE3692822012B0CBF0546A5
:105700006FF096050021204619F0F5FE284638BDB9
:1057100013B5044660B101A900F0D8FA044638B9BF
:105720000198C369012B06D900F01EFB6FF08304BA
:10573000204602B010BD0379FF2B0BD01BB180684F
:1057400000F030FB04460198FFF7D1FF002818BF96
:105750000446EDE76FF08404F5E72DE9F0411F46BC
:10576000002388B0054688461646CDE904330792E3
:105770003B60002A5FD0B2F1005F5FD205AA04A9A6
:10578000FFF7E0FE0446A0B9049B1B6ABBB1049B73
:1057900041465A882846069206AA029203F124023C
:1057A00001925A6A00921B6A324600F077F9044669
:1057B000D0B10498002832D0FFF799FF2FE06B6832
:1057C0001B0A07D107990498FFF72EFF044600280B
:1057D000DDD0EEE732464146284607AB00F059F9E6
:1057E00004460028EED0E4E70498069B4288D2B92C
:1057F00043804FF6F87293421AD82B8813B102886F
:105800009A4212D12B6A83B96B8813B142889A42AB
:105810000BD13946FFF7C2FD04460028C9D1204606
:1058200008B0BDE8F0819A42E3D06FF08604C0E78B
:105830006FF08504BDE76FF08604F0E76FF0850434
:10584000EDE7036810B5044653B100F08BF900236F
:105850002360A38823F4FF7323F00103A38010BD0A
:105860001846FCE72DE9F04105460C4600218CB0B6
:10587000174603A824229846029119F03CFE2B6893
:10588000002B3DD1B8F1000F20463B4614BF4FF42A
:1058900080624FF4006202A9FFF7FEFC044600BBE1
:1058A000029E03AC0FCE0FC496E8070084E8070001
:1058B0003846BDF80C102A1DFFF786FD044680B956
:1058C0006B79284668F300036B71029B03A9D3E947
:1058D00008230097B8F1000F0FD000F006F9044636
:1058E00010B12846FFF7ADFF029800F03DFA002CFA
:1058F00018BF20460CB0BDE8F08100F009F9EEE7D2
:105900006FF08804EDE70123FFF7ACBF38B50368FB
:10591000054614464BB132B100F00DF9044610B102
:105920002846FFF78EFF204638BD6FF08804FAE75F
:105930002DE9F0411646026805460F469846F2B139
:105940004279D2071BD50279CAB1B2421AD800F007
:10595000FBF8044618B10023C8F800602B712879C1
:10596000B04204D2321A2121384419F0C4FD28462D
:10597000FFF767FF002C18BF2046BDE8F0816FF0ED
:105980008804E8E76FF08904E5E7000037B50C4DBF
:105990000C462B78DB070FD500230A4601930146FE
:1059A00001AB281D01F068FF20B9019BA34218BF7D
:1059B0006FF0930003B030BD6FF08800FAE700BFCE
:1059C000F417002008B500F029F9084B0C211A78CB
:1059D000064812F0060F1CBF0022C3E90122FFF7A0
:1059E000D5FABDE8084000F053B800BFF417002016
:1059F00038B50F4D2B7813F0010213D1C5E9012200
:105A0000022262F342032B7000F0FCF8044658B9FE
:105A100000F03CF8044638B92B7843F001032B70B2
:105A2000204638BD0024FBE7FFF7CCFFF8E700BFB6
:105A3000F417002010B50446C069FFF79AFA204613
:105A4000BDE810402422002119F055BD2DE9F04198
:105A500005460F4690461C469BB119460120FFF7AC
:105A600077FA064678B12246414619F01DFDE869ED
:105A700008B1FFF77EFA0020C5E907642F80BDE872
:105A8000F0811E46F3E76FF08C00F8E701F0F2BEFC
:105A9000704700226FF086001A6070472DE9F04FC2
:105AA000456885B02D0A0446DDE90E7A894616461A
:105AB0009846DDF840B013D1CDE901AB009701F075
:105AC00001FD10F1860F0DD143463246494620466E
:105AD000CDE90FAB0E9705B0BDE8F04FFFF7C8BD9D
